{
	"Voting/Vote.sol": {
		"Vote": {
			"abi": [
				{
					"inputs": [],
					"stateMutability": "nonpayable",
					"type": "constructor"
				},
				{
					"inputs": [],
					"name": "candidateList",
					"outputs": [
						{
							"components": [
								{
									"internalType": "string",
									"name": "name",
									"type": "string"
								},
								{
									"internalType": "string",
									"name": "party",
									"type": "string"
								},
								{
									"internalType": "uint256",
									"name": "age",
									"type": "uint256"
								},
								{
									"internalType": "string",
									"name": "gender",
									"type": "string"
								},
								{
									"internalType": "uint256",
									"name": "candidateId",
									"type": "uint256"
								},
								{
									"internalType": "address",
									"name": "candidateAddress",
									"type": "address"
								},
								{
									"internalType": "uint256",
									"name": "votes",
									"type": "uint256"
								}
							],
							"internalType": "struct Vote.Candidate[]",
							"name": "",
							"type": "tuple[]"
						}
					],
					"stateMutability": "view",
					"type": "function"
				},
				{
					"inputs": [
						{
							"internalType": "string",
							"name": "_name",
							"type": "string"
						},
						{
							"internalType": "string",
							"name": "_party",
							"type": "string"
						},
						{
							"internalType": "uint256",
							"name": "_age",
							"type": "uint256"
						},
						{
							"internalType": "string",
							"name": "_gender",
							"type": "string"
						}
					],
					"name": "candidateRegister",
					"outputs": [],
					"stateMutability": "nonpayable",
					"type": "function"
				},
				{
					"inputs": [],
					"name": "emergency",
					"outputs": [],
					"stateMutability": "nonpayable",
					"type": "function"
				},
				{
					"inputs": [],
					"name": "result",
					"outputs": [],
					"stateMutability": "nonpayable",
					"type": "function"
				},
				{
					"inputs": [
						{
							"internalType": "uint256",
							"name": "_voterId",
							"type": "uint256"
						},
						{
							"internalType": "uint256",
							"name": "_id",
							"type": "uint256"
						}
					],
					"name": "vote",
					"outputs": [],
					"stateMutability": "nonpayable",
					"type": "function"
				},
				{
					"inputs": [
						{
							"internalType": "uint256",
							"name": "_startTime",
							"type": "uint256"
						},
						{
							"internalType": "uint256",
							"name": "_endTime",
							"type": "uint256"
						}
					],
					"name": "voteTime",
					"outputs": [],
					"stateMutability": "nonpayable",
					"type": "function"
				},
				{
					"inputs": [],
					"name": "voterList",
					"outputs": [
						{
							"components": [
								{
									"internalType": "string",
									"name": "name",
									"type": "string"
								},
								{
									"internalType": "uint256",
									"name": "age",
									"type": "uint256"
								},
								{
									"internalType": "uint256",
									"name": "voterId",
									"type": "uint256"
								},
								{
									"internalType": "string",
									"name": "gender",
									"type": "string"
								},
								{
									"internalType": "uint256",
									"name": "voteCandidateId",
									"type": "uint256"
								},
								{
									"internalType": "address",
									"name": "voterAddress",
									"type": "address"
								}
							],
							"internalType": "struct Vote.Voter[]",
							"name": "",
							"type": "tuple[]"
						}
					],
					"stateMutability": "view",
					"type": "function"
				},
				{
					"inputs": [
						{
							"internalType": "string",
							"name": "_name",
							"type": "string"
						},
						{
							"internalType": "uint256",
							"name": "_age",
							"type": "uint256"
						},
						{
							"internalType": "string",
							"name": "_gender",
							"type": "string"
						}
					],
					"name": "voterRegister",
					"outputs": [],
					"stateMutability": "nonpayable",
					"type": "function"
				},
				{
					"inputs": [],
					"name": "votingStatus",
					"outputs": [
						{
							"internalType": "string",
							"name": "",
							"type": "string"
						}
					],
					"stateMutability": "view",
					"type": "function"
				},
				{
					"inputs": [],
					"name": "winner",
					"outputs": [
						{
							"internalType": "address",
							"name": "",
							"type": "address"
						}
					],
					"stateMutability": "view",
					"type": "function"
				}
			],
			"devdoc": {
				"kind": "dev",
				"methods": {},
				"version": 1
			},
			"evm": {
				"assembly": "    /* \"Voting/Vote.sol\":57:4621  contract Vote{... */\n  mstore(0x40, 0x80)\n    /* \"Voting/Vote.sol\":513:514  1 */\n  0x01\n    /* \"Voting/Vote.sol\":496:514  uint nextVoterId=1 */\n  0x02\n  sstore\n    /* \"Voting/Vote.sol\":541:542  1 */\n  0x01\n    /* \"Voting/Vote.sol\":520:542  uint nextCandidateId=1 */\n  0x03\n  sstore\n    /* \"Voting/Vote.sol\":700:819  constructor(){... */\n  callvalue\n  dup1\n  iszero\n  tag_1\n  jumpi\n  0x00\n  dup1\n  revert\ntag_1:\n  pop\n    /* \"Voting/Vote.sol\":740:750  msg.sender */\n  caller\n    /* \"Voting/Vote.sol\":723:739  electionComision */\n  0x00\n  dup1\n    /* \"Voting/Vote.sol\":723:750  electionComision=msg.sender */\n  0x0100\n  exp\n  dup2\n  sload\n  dup2\n  0xffffffffffffffffffffffffffffffffffffffff\n  mul\n  not\n  and\n  swap1\n  dup4\n  0xffffffffffffffffffffffffffffffffffffffff\n  and\n  mul\n  or\n  swap1\n  sstore\n  pop\n    /* \"Voting/Vote.sol\":57:4621  contract Vote{... */\n  dataSize(sub_0)\n  dup1\n  dataOffset(sub_0)\n  0x00\n  codecopy\n  0x00\n  return\nstop\n\nsub_0: assembly {\n        /* \"Voting/Vote.sol\":57:4621  contract Vote{... */\n      mstore(0x40, 0x80)\n      callvalue\n      dup1\n      iszero\n      tag_1\n      jumpi\n      0x00\n      dup1\n      revert\n    tag_1:\n      pop\n      jumpi(tag_2, lt(calldatasize, 0x04))\n      shr(0xe0, calldataload(0x00))\n      dup1\n      0x93e5fed2\n      gt\n      tag_13\n      jumpi\n      dup1\n      0x93e5fed2\n      eq\n      tag_8\n      jumpi\n      dup1\n      0xb384abef\n      eq\n      tag_9\n      jumpi\n      dup1\n      0xcaa6fea4\n      eq\n      tag_10\n      jumpi\n      dup1\n      0xcf5ce2e7\n      eq\n      tag_11\n      jumpi\n      dup1\n      0xdfbf53ae\n      eq\n      tag_12\n      jumpi\n      jump(tag_2)\n    tag_13:\n      dup1\n      0x19f41a40\n      eq\n      tag_3\n      jumpi\n      dup1\n      0x24089918\n      eq\n      tag_4\n      jumpi\n      dup1\n      0x498ea441\n      eq\n      tag_5\n      jumpi\n      dup1\n      0x65372147\n      eq\n      tag_6\n      jumpi\n      dup1\n      0x65ca2be3\n      eq\n      tag_7\n      jumpi\n    tag_2:\n      0x00\n      dup1\n      revert\n        /* \"Voting/Vote.sol\":3774:4076  function votingStatus()public view returns(string memory){... */\n    tag_3:\n      tag_14\n      tag_15\n      jump\t// in\n    tag_14:\n      mload(0x40)\n      tag_16\n      swap2\n      swap1\n      tag_17\n      jump\t// in\n    tag_16:\n      mload(0x40)\n      dup1\n      swap2\n      sub\n      swap1\n      return\n        /* \"Voting/Vote.sol\":2866:3101  function voterList() public view returns(Voter[] memory){... */\n    tag_4:\n      tag_18\n      tag_19\n      jump\t// in\n    tag_18:\n      mload(0x40)\n      tag_20\n      swap2\n      swap1\n      tag_21\n      jump\t// in\n    tag_20:\n      mload(0x40)\n      dup1\n      swap2\n      sub\n      swap1\n      return\n        /* \"Voting/Vote.sol\":1962:2224  function candidateList() public view returns(Candidate[] memory){... */\n    tag_5:\n      tag_22\n      tag_23\n      jump\t// in\n    tag_22:\n      mload(0x40)\n      tag_24\n      swap2\n      swap1\n      tag_25\n      jump\t// in\n    tag_24:\n      mload(0x40)\n      dup1\n      swap2\n      sub\n      swap1\n      return\n        /* \"Voting/Vote.sol\":4082:4535  function result()external onlyCommisioner(){... */\n    tag_6:\n      tag_26\n      tag_27\n      jump\t// in\n    tag_26:\n      stop\n        /* \"Voting/Vote.sol\":3603:3768  function voteTime(uint _startTime,uint _endTime) external onlyCommisioner(){... */\n    tag_7:\n      tag_28\n      0x04\n      dup1\n      calldatasize\n      sub\n      dup2\n      add\n      swap1\n      tag_29\n      swap2\n      swap1\n      tag_30\n      jump\t// in\n    tag_29:\n      tag_31\n      jump\t// in\n    tag_28:\n      stop\n        /* \"Voting/Vote.sol\":2230:2565  function voterRegister(string calldata _name,uint _age,string calldata _gender)external{... */\n    tag_8:\n      tag_32\n      0x04\n      dup1\n      calldatasize\n      sub\n      dup2\n      add\n      swap1\n      tag_33\n      swap2\n      swap1\n      tag_34\n      jump\t// in\n    tag_33:\n      tag_35\n      jump\t// in\n    tag_32:\n      stop\n        /* \"Voting/Vote.sol\":3107:3597  function vote(uint _voterId,uint _id)external {... */\n    tag_9:\n      tag_36\n      0x04\n      dup1\n      calldatasize\n      sub\n      dup2\n      add\n      swap1\n      tag_37\n      swap2\n      swap1\n      tag_30\n      jump\t// in\n    tag_37:\n      tag_38\n      jump\t// in\n    tag_36:\n      stop\n        /* \"Voting/Vote.sol\":4541:4618  function emergency()public onlyCommisioner(){... */\n    tag_10:\n      tag_39\n      tag_40\n      jump\t// in\n    tag_39:\n      stop\n        /* \"Voting/Vote.sol\":1084:1632  function candidateRegister(string calldata _name,string calldata _party,uint _age,string calldata _gender) external{... */\n    tag_11:\n      tag_41\n      0x04\n      dup1\n      calldatasize\n      sub\n      dup2\n      add\n      swap1\n      tag_42\n      swap2\n      swap1\n      tag_43\n      jump\t// in\n    tag_42:\n      tag_44\n      jump\t// in\n    tag_41:\n      stop\n        /* \"Voting/Vote.sol\":106:127  address public winner */\n    tag_12:\n      tag_45\n      tag_46\n      jump\t// in\n    tag_45:\n      mload(0x40)\n      tag_47\n      swap2\n      swap1\n      tag_48\n      jump\t// in\n    tag_47:\n      mload(0x40)\n      dup1\n      swap2\n      sub\n      swap1\n      return\n        /* \"Voting/Vote.sol\":3774:4076  function votingStatus()public view returns(string memory){... */\n    tag_15:\n        /* \"Voting/Vote.sol\":3817:3830  string memory */\n      0x60\n        /* \"Voting/Vote.sol\":3855:3856  0 */\n      0x00\n        /* \"Voting/Vote.sol\":3844:3853  startTime */\n      sload(0x04)\n        /* \"Voting/Vote.sol\":3844:3856  startTime==0 */\n      sub\n        /* \"Voting/Vote.sol\":3841:4069  if(startTime==0){... */\n      tag_50\n      jumpi\n        /* \"Voting/Vote.sol\":3871:3902  return \"Voting has not started\" */\n      mload(0x40)\n      dup1\n      0x40\n      add\n      0x40\n      mstore\n      dup1\n      0x16\n      dup2\n      mstore\n      0x20\n      add\n      0x566f74696e6720686173206e6f74207374617274656400000000000000000000\n      dup2\n      mstore\n      pop\n      swap1\n      pop\n      jump(tag_49)\n        /* \"Voting/Vote.sol\":3841:4069  if(startTime==0){... */\n    tag_50:\n        /* \"Voting/Vote.sol\":3934:3935  0 */\n      0x00\n        /* \"Voting/Vote.sol\":3923:3932  startTime */\n      sload(0x04)\n        /* \"Voting/Vote.sol\":3923:3935  startTime!=0 */\n      eq\n      iszero\n        /* \"Voting/Vote.sol\":3923:3960  startTime!=0&&endTime>block.timestamp */\n      dup1\n      iszero\n      tag_52\n      jumpi\n      pop\n        /* \"Voting/Vote.sol\":3945:3960  block.timestamp */\n      timestamp\n        /* \"Voting/Vote.sol\":3937:3944  endTime */\n      sload(0x05)\n        /* \"Voting/Vote.sol\":3937:3960  endTime>block.timestamp */\n      gt\n        /* \"Voting/Vote.sol\":3923:3960  startTime!=0&&endTime>block.timestamp */\n    tag_52:\n        /* \"Voting/Vote.sol\":3922:3980  (startTime!=0&&endTime>block.timestamp)&&stopVoting==false */\n      dup1\n      iszero\n      tag_53\n      jumpi\n      pop\n        /* \"Voting/Vote.sol\":3975:3980  false */\n      0x00\n        /* \"Voting/Vote.sol\":3963:3980  stopVoting==false */\n      iszero\n      iszero\n        /* \"Voting/Vote.sol\":3963:3973  stopVoting */\n      0x08\n      0x00\n      swap1\n      sload\n      swap1\n      0x0100\n      exp\n      swap1\n      div\n      0xff\n      and\n        /* \"Voting/Vote.sol\":3963:3980  stopVoting==false */\n      iszero\n      iszero\n      eq\n        /* \"Voting/Vote.sol\":3922:3980  (startTime!=0&&endTime>block.timestamp)&&stopVoting==false */\n    tag_53:\n        /* \"Voting/Vote.sol\":3919:4069  if((startTime!=0&&endTime>block.timestamp)&&stopVoting==false){... */\n      iszero\n      tag_54\n      jumpi\n        /* \"Voting/Vote.sol\":3995:4015  return \"In progress\" */\n      mload(0x40)\n      dup1\n      0x40\n      add\n      0x40\n      mstore\n      dup1\n      0x0b\n      dup2\n      mstore\n      0x20\n      add\n      0x496e2070726f6772657373000000000000000000000000000000000000000000\n      dup2\n      mstore\n      pop\n      swap1\n      pop\n      jump(tag_49)\n        /* \"Voting/Vote.sol\":3919:4069  if((startTime!=0&&endTime>block.timestamp)&&stopVoting==false){... */\n    tag_54:\n        /* \"Voting/Vote.sol\":4044:4058  return \"Ended\" */\n      mload(0x40)\n      dup1\n      0x40\n      add\n      0x40\n      mstore\n      dup1\n      0x05\n      dup2\n      mstore\n      0x20\n      add\n      0x456e646564000000000000000000000000000000000000000000000000000000\n      dup2\n      mstore\n      pop\n      swap1\n      pop\n        /* \"Voting/Vote.sol\":3774:4076  function votingStatus()public view returns(string memory){... */\n    tag_49:\n      swap1\n      jump\t// out\n        /* \"Voting/Vote.sol\":2866:3101  function voterList() public view returns(Voter[] memory){... */\n    tag_19:\n        /* \"Voting/Vote.sol\":2907:2921  Voter[] memory */\n      0x60\n        /* \"Voting/Vote.sol\":2932:2952  Voter[] memory array */\n      0x00\n        /* \"Voting/Vote.sol\":2977:2978  1 */\n      0x01\n        /* \"Voting/Vote.sol\":2965:2976  nextVoterId */\n      sload(0x02)\n        /* \"Voting/Vote.sol\":2965:2978  nextVoterId-1 */\n      tag_57\n      swap2\n      swap1\n      tag_58\n      jump\t// in\n    tag_57:\n        /* \"Voting/Vote.sol\":2953:2979  new Voter[](nextVoterId-1) */\n      0xffffffffffffffff\n      dup2\n      gt\n      iszero\n      tag_59\n      jumpi\n      tag_60\n      tag_61\n      jump\t// in\n    tag_60:\n    tag_59:\n      mload(0x40)\n      swap1\n      dup1\n      dup3\n      mstore\n      dup1\n      0x20\n      mul\n      0x20\n      add\n      dup3\n      add\n      0x40\n      mstore\n      dup1\n      iszero\n      tag_62\n      jumpi\n      dup2\n      0x20\n      add\n    tag_63:\n      tag_64\n      tag_65\n      jump\t// in\n    tag_64:\n      dup2\n      mstore\n      0x20\n      add\n      swap1\n      0x01\n      swap1\n      sub\n      swap1\n      dup2\n      tag_63\n      jumpi\n      swap1\n      pop\n    tag_62:\n      pop\n        /* \"Voting/Vote.sol\":2932:2979  Voter[] memory array=new Voter[](nextVoterId-1) */\n      swap1\n      pop\n        /* \"Voting/Vote.sol\":2994:3000  uint i */\n      0x00\n        /* \"Voting/Vote.sol\":3001:3002  1 */\n      0x01\n        /* \"Voting/Vote.sol\":2994:3002  uint i=1 */\n      swap1\n      pop\n        /* \"Voting/Vote.sol\":2989:3072  for (uint i=1;i<nextVoterId;i++){... */\n    tag_66:\n        /* \"Voting/Vote.sol\":3005:3016  nextVoterId */\n      sload(0x02)\n        /* \"Voting/Vote.sol\":3003:3004  i */\n      dup2\n        /* \"Voting/Vote.sol\":3003:3016  i<nextVoterId */\n      lt\n        /* \"Voting/Vote.sol\":2989:3072  for (uint i=1;i<nextVoterId;i++){... */\n      iszero\n      tag_67\n      jumpi\n        /* \"Voting/Vote.sol\":3046:3058  voterDetails */\n      0x06\n        /* \"Voting/Vote.sol\":3046:3061  voterDetails[i] */\n      0x00\n        /* \"Voting/Vote.sol\":3059:3060  i */\n      dup3\n        /* \"Voting/Vote.sol\":3046:3061  voterDetails[i] */\n      dup2\n      mstore\n      0x20\n      add\n      swap1\n      dup2\n      mstore\n      0x20\n      add\n      0x00\n      keccak256\n        /* \"Voting/Vote.sol\":3035:3061  array[i-1]=voterDetails[i] */\n      mload(0x40)\n      dup1\n      0xc0\n      add\n      0x40\n      mstore\n      swap1\n      dup2\n      0x00\n      dup3\n      add\n      dup1\n      sload\n      tag_69\n      swap1\n      tag_70\n      jump\t// in\n    tag_69:\n      dup1\n      0x1f\n      add\n      0x20\n      dup1\n      swap2\n      div\n      mul\n      0x20\n      add\n      mload(0x40)\n      swap1\n      dup2\n      add\n      0x40\n      mstore\n      dup1\n      swap3\n      swap2\n      swap1\n      dup2\n      dup2\n      mstore\n      0x20\n      add\n      dup3\n      dup1\n      sload\n      tag_71\n      swap1\n      tag_70\n      jump\t// in\n    tag_71:\n      dup1\n      iszero\n      tag_72\n      jumpi\n      dup1\n      0x1f\n      lt\n      tag_73\n      jumpi\n      0x0100\n      dup1\n      dup4\n      sload\n      div\n      mul\n      dup4\n      mstore\n      swap2\n      0x20\n      add\n      swap2\n      jump(tag_72)\n    tag_73:\n      dup3\n      add\n      swap2\n      swap1\n      0x00\n      mstore\n      keccak256(0x00, 0x20)\n      swap1\n    tag_74:\n      dup2\n      sload\n      dup2\n      mstore\n      swap1\n      0x01\n      add\n      swap1\n      0x20\n      add\n      dup1\n      dup4\n      gt\n      tag_74\n      jumpi\n      dup3\n      swap1\n      sub\n      0x1f\n      and\n      dup3\n      add\n      swap2\n    tag_72:\n      pop\n      pop\n      pop\n      pop\n      pop\n      dup2\n      mstore\n      0x20\n      add\n      0x01\n      dup3\n      add\n      sload\n      dup2\n      mstore\n      0x20\n      add\n      0x02\n      dup3\n      add\n      sload\n      dup2\n      mstore\n      0x20\n      add\n      0x03\n      dup3\n      add\n      dup1\n      sload\n      tag_75\n      swap1\n      tag_70\n      jump\t// in\n    tag_75:\n      dup1\n      0x1f\n      add\n      0x20\n      dup1\n      swap2\n      div\n      mul\n      0x20\n      add\n      mload(0x40)\n      swap1\n      dup2\n      add\n      0x40\n      mstore\n      dup1\n      swap3\n      swap2\n      swap1\n      dup2\n      dup2\n      mstore\n      0x20\n      add\n      dup3\n      dup1\n      sload\n      tag_76\n      swap1\n      tag_70\n      jump\t// in\n    tag_76:\n      dup1\n      iszero\n      tag_77\n      jumpi\n      dup1\n      0x1f\n      lt\n      tag_78\n      jumpi\n      0x0100\n      dup1\n      dup4\n      sload\n      div\n      mul\n      dup4\n      mstore\n      swap2\n      0x20\n      add\n      swap2\n      jump(tag_77)\n    tag_78:\n      dup3\n      add\n      swap2\n      swap1\n      0x00\n      mstore\n      keccak256(0x00, 0x20)\n      swap1\n    tag_79:\n      dup2\n      sload\n      dup2\n      mstore\n      swap1\n      0x01\n      add\n      swap1\n      0x20\n      add\n      dup1\n      dup4\n      gt\n      tag_79\n      jumpi\n      dup3\n      swap1\n      sub\n      0x1f\n      and\n      dup3\n      add\n      swap2\n    tag_77:\n      pop\n      pop\n      pop\n      pop\n      pop\n      dup2\n      mstore\n      0x20\n      add\n      0x04\n      dup3\n      add\n      sload\n      dup2\n      mstore\n      0x20\n      add\n      0x05\n      dup3\n      add\n      0x00\n      swap1\n      sload\n      swap1\n      0x0100\n      exp\n      swap1\n      div\n      0xffffffffffffffffffffffffffffffffffffffff\n      and\n      0xffffffffffffffffffffffffffffffffffffffff\n      and\n      0xffffffffffffffffffffffffffffffffffffffff\n      and\n      dup2\n      mstore\n      pop\n      pop\n        /* \"Voting/Vote.sol\":3035:3040  array */\n      dup3\n        /* \"Voting/Vote.sol\":3043:3044  1 */\n      0x01\n        /* \"Voting/Vote.sol\":3041:3042  i */\n      dup4\n        /* \"Voting/Vote.sol\":3041:3044  i-1 */\n      tag_80\n      swap2\n      swap1\n      tag_58\n      jump\t// in\n    tag_80:\n        /* \"Voting/Vote.sol\":3035:3045  array[i-1] */\n      dup2\n      mload\n      dup2\n      lt\n      tag_81\n      jumpi\n      tag_82\n      tag_83\n      jump\t// in\n    tag_82:\n    tag_81:\n      0x20\n      mul\n      0x20\n      add\n      add\n        /* \"Voting/Vote.sol\":3035:3061  array[i-1]=voterDetails[i] */\n      dup2\n      swap1\n      mstore\n      pop\n        /* \"Voting/Vote.sol\":3017:3020  i++ */\n      dup1\n      dup1\n      0x01\n      add\n      swap2\n      pop\n      pop\n        /* \"Voting/Vote.sol\":2989:3072  for (uint i=1;i<nextVoterId;i++){... */\n      jump(tag_66)\n    tag_67:\n      pop\n        /* \"Voting/Vote.sol\":3088:3093  array */\n      dup1\n        /* \"Voting/Vote.sol\":3081:3093  return array */\n      swap2\n      pop\n      pop\n        /* \"Voting/Vote.sol\":2866:3101  function voterList() public view returns(Voter[] memory){... */\n      swap1\n      jump\t// out\n        /* \"Voting/Vote.sol\":1962:2224  function candidateList() public view returns(Candidate[] memory){... */\n    tag_23:\n        /* \"Voting/Vote.sol\":2007:2025  Candidate[] memory */\n      0x60\n        /* \"Voting/Vote.sol\":2036:2060  Candidate[] memory array */\n      0x00\n        /* \"Voting/Vote.sol\":2093:2094  1 */\n      0x01\n        /* \"Voting/Vote.sol\":2077:2092  nextCandidateId */\n      sload(0x03)\n        /* \"Voting/Vote.sol\":2077:2094  nextCandidateId-1 */\n      tag_85\n      swap2\n      swap1\n      tag_58\n      jump\t// in\n    tag_85:\n        /* \"Voting/Vote.sol\":2061:2095  new Candidate[](nextCandidateId-1) */\n      0xffffffffffffffff\n      dup2\n      gt\n      iszero\n      tag_86\n      jumpi\n      tag_87\n      tag_61\n      jump\t// in\n    tag_87:\n    tag_86:\n      mload(0x40)\n      swap1\n      dup1\n      dup3\n      mstore\n      dup1\n      0x20\n      mul\n      0x20\n      add\n      dup3\n      add\n      0x40\n      mstore\n      dup1\n      iszero\n      tag_88\n      jumpi\n      dup2\n      0x20\n      add\n    tag_89:\n      tag_90\n      tag_91\n      jump\t// in\n    tag_90:\n      dup2\n      mstore\n      0x20\n      add\n      swap1\n      0x01\n      swap1\n      sub\n      swap1\n      dup2\n      tag_89\n      jumpi\n      swap1\n      pop\n    tag_88:\n      pop\n        /* \"Voting/Vote.sol\":2036:2095  Candidate[] memory array=new Candidate[](nextCandidateId-1) */\n      swap1\n      pop\n        /* \"Voting/Vote.sol\":2109:2115  uint i */\n      0x00\n        /* \"Voting/Vote.sol\":2116:2117  1 */\n      0x01\n        /* \"Voting/Vote.sol\":2109:2117  uint i=1 */\n      swap1\n      pop\n        /* \"Voting/Vote.sol\":2105:2195  for(uint i=1;i<nextCandidateId;i++){... */\n    tag_92:\n        /* \"Voting/Vote.sol\":2120:2135  nextCandidateId */\n      sload(0x03)\n        /* \"Voting/Vote.sol\":2118:2119  i */\n      dup2\n        /* \"Voting/Vote.sol\":2118:2135  i<nextCandidateId */\n      lt\n        /* \"Voting/Vote.sol\":2105:2195  for(uint i=1;i<nextCandidateId;i++){... */\n      iszero\n      tag_93\n      jumpi\n        /* \"Voting/Vote.sol\":2165:2181  candidateDetails */\n      0x07\n        /* \"Voting/Vote.sol\":2165:2184  candidateDetails[i] */\n      0x00\n        /* \"Voting/Vote.sol\":2182:2183  i */\n      dup3\n        /* \"Voting/Vote.sol\":2165:2184  candidateDetails[i] */\n      dup2\n      mstore\n      0x20\n      add\n      swap1\n      dup2\n      mstore\n      0x20\n      add\n      0x00\n      keccak256\n        /* \"Voting/Vote.sol\":2154:2184  array[i-1]=candidateDetails[i] */\n      mload(0x40)\n      dup1\n      0xe0\n      add\n      0x40\n      mstore\n      swap1\n      dup2\n      0x00\n      dup3\n      add\n      dup1\n      sload\n      tag_95\n      swap1\n      tag_70\n      jump\t// in\n    tag_95:\n      dup1\n      0x1f\n      add\n      0x20\n      dup1\n      swap2\n      div\n      mul\n      0x20\n      add\n      mload(0x40)\n      swap1\n      dup2\n      add\n      0x40\n      mstore\n      dup1\n      swap3\n      swap2\n      swap1\n      dup2\n      dup2\n      mstore\n      0x20\n      add\n      dup3\n      dup1\n      sload\n      tag_96\n      swap1\n      tag_70\n      jump\t// in\n    tag_96:\n      dup1\n      iszero\n      tag_97\n      jumpi\n      dup1\n      0x1f\n      lt\n      tag_98\n      jumpi\n      0x0100\n      dup1\n      dup4\n      sload\n      div\n      mul\n      dup4\n      mstore\n      swap2\n      0x20\n      add\n      swap2\n      jump(tag_97)\n    tag_98:\n      dup3\n      add\n      swap2\n      swap1\n      0x00\n      mstore\n      keccak256(0x00, 0x20)\n      swap1\n    tag_99:\n      dup2\n      sload\n      dup2\n      mstore\n      swap1\n      0x01\n      add\n      swap1\n      0x20\n      add\n      dup1\n      dup4\n      gt\n      tag_99\n      jumpi\n      dup3\n      swap1\n      sub\n      0x1f\n      and\n      dup3\n      add\n      swap2\n    tag_97:\n      pop\n      pop\n      pop\n      pop\n      pop\n      dup2\n      mstore\n      0x20\n      add\n      0x01\n      dup3\n      add\n      dup1\n      sload\n      tag_100\n      swap1\n      tag_70\n      jump\t// in\n    tag_100:\n      dup1\n      0x1f\n      add\n      0x20\n      dup1\n      swap2\n      div\n      mul\n      0x20\n      add\n      mload(0x40)\n      swap1\n      dup2\n      add\n      0x40\n      mstore\n      dup1\n      swap3\n      swap2\n      swap1\n      dup2\n      dup2\n      mstore\n      0x20\n      add\n      dup3\n      dup1\n      sload\n      tag_101\n      swap1\n      tag_70\n      jump\t// in\n    tag_101:\n      dup1\n      iszero\n      tag_102\n      jumpi\n      dup1\n      0x1f\n      lt\n      tag_103\n      jumpi\n      0x0100\n      dup1\n      dup4\n      sload\n      div\n      mul\n      dup4\n      mstore\n      swap2\n      0x20\n      add\n      swap2\n      jump(tag_102)\n    tag_103:\n      dup3\n      add\n      swap2\n      swap1\n      0x00\n      mstore\n      keccak256(0x00, 0x20)\n      swap1\n    tag_104:\n      dup2\n      sload\n      dup2\n      mstore\n      swap1\n      0x01\n      add\n      swap1\n      0x20\n      add\n      dup1\n      dup4\n      gt\n      tag_104\n      jumpi\n      dup3\n      swap1\n      sub\n      0x1f\n      and\n      dup3\n      add\n      swap2\n    tag_102:\n      pop\n      pop\n      pop\n      pop\n      pop\n      dup2\n      mstore\n      0x20\n      add\n      0x02\n      dup3\n      add\n      sload\n      dup2\n      mstore\n      0x20\n      add\n      0x03\n      dup3\n      add\n      dup1\n      sload\n      tag_105\n      swap1\n      tag_70\n      jump\t// in\n    tag_105:\n      dup1\n      0x1f\n      add\n      0x20\n      dup1\n      swap2\n      div\n      mul\n      0x20\n      add\n      mload(0x40)\n      swap1\n      dup2\n      add\n      0x40\n      mstore\n      dup1\n      swap3\n      swap2\n      swap1\n      dup2\n      dup2\n      mstore\n      0x20\n      add\n      dup3\n      dup1\n      sload\n      tag_106\n      swap1\n      tag_70\n      jump\t// in\n    tag_106:\n      dup1\n      iszero\n      tag_107\n      jumpi\n      dup1\n      0x1f\n      lt\n      tag_108\n      jumpi\n      0x0100\n      dup1\n      dup4\n      sload\n      div\n      mul\n      dup4\n      mstore\n      swap2\n      0x20\n      add\n      swap2\n      jump(tag_107)\n    tag_108:\n      dup3\n      add\n      swap2\n      swap1\n      0x00\n      mstore\n      keccak256(0x00, 0x20)\n      swap1\n    tag_109:\n      dup2\n      sload\n      dup2\n      mstore\n      swap1\n      0x01\n      add\n      swap1\n      0x20\n      add\n      dup1\n      dup4\n      gt\n      tag_109\n      jumpi\n      dup3\n      swap1\n      sub\n      0x1f\n      and\n      dup3\n      add\n      swap2\n    tag_107:\n      pop\n      pop\n      pop\n      pop\n      pop\n      dup2\n      mstore\n      0x20\n      add\n      0x04\n      dup3\n      add\n      sload\n      dup2\n      mstore\n      0x20\n      add\n      0x05\n      dup3\n      add\n      0x00\n      swap1\n      sload\n      swap1\n      0x0100\n      exp\n      swap1\n      div\n      0xffffffffffffffffffffffffffffffffffffffff\n      and\n      0xffffffffffffffffffffffffffffffffffffffff\n      and\n      0xffffffffffffffffffffffffffffffffffffffff\n      and\n      dup2\n      mstore\n      0x20\n      add\n      0x06\n      dup3\n      add\n      sload\n      dup2\n      mstore\n      pop\n      pop\n        /* \"Voting/Vote.sol\":2154:2159  array */\n      dup3\n        /* \"Voting/Vote.sol\":2162:2163  1 */\n      0x01\n        /* \"Voting/Vote.sol\":2160:2161  i */\n      dup4\n        /* \"Voting/Vote.sol\":2160:2163  i-1 */\n      tag_110\n      swap2\n      swap1\n      tag_58\n      jump\t// in\n    tag_110:\n        /* \"Voting/Vote.sol\":2154:2164  array[i-1] */\n      dup2\n      mload\n      dup2\n      lt\n      tag_111\n      jumpi\n      tag_112\n      tag_83\n      jump\t// in\n    tag_112:\n    tag_111:\n      0x20\n      mul\n      0x20\n      add\n      add\n        /* \"Voting/Vote.sol\":2154:2184  array[i-1]=candidateDetails[i] */\n      dup2\n      swap1\n      mstore\n      pop\n        /* \"Voting/Vote.sol\":2136:2139  i++ */\n      dup1\n      dup1\n      0x01\n      add\n      swap2\n      pop\n      pop\n        /* \"Voting/Vote.sol\":2105:2195  for(uint i=1;i<nextCandidateId;i++){... */\n      jump(tag_92)\n    tag_93:\n      pop\n        /* \"Voting/Vote.sol\":2211:2216  array */\n      dup1\n        /* \"Voting/Vote.sol\":2204:2216  return array */\n      swap2\n      pop\n      pop\n        /* \"Voting/Vote.sol\":1962:2224  function candidateList() public view returns(Candidate[] memory){... */\n      swap1\n      jump\t// out\n        /* \"Voting/Vote.sol\":4082:4535  function result()external onlyCommisioner(){... */\n    tag_27:\n        /* \"Voting/Vote.sol\":1016:1026  msg.sender */\n      caller\n        /* \"Voting/Vote.sol\":998:1026  electionComision==msg.sender */\n      0xffffffffffffffffffffffffffffffffffffffff\n      and\n        /* \"Voting/Vote.sol\":998:1014  electionComision */\n      0x00\n      dup1\n      sload\n      swap1\n      0x0100\n      exp\n      swap1\n      div\n      0xffffffffffffffffffffffffffffffffffffffff\n      and\n        /* \"Voting/Vote.sol\":998:1026  electionComision==msg.sender */\n      0xffffffffffffffffffffffffffffffffffffffff\n      and\n      eq\n        /* \"Voting/Vote.sol\":990:1058  require(electionComision==msg.sender,\"Not from election commission\") */\n      tag_114\n      jumpi\n      mload(0x40)\n      0x08c379a000000000000000000000000000000000000000000000000000000000\n      dup2\n      mstore\n      0x04\n      add\n      tag_115\n      swap1\n      tag_116\n      jump\t// in\n    tag_115:\n      mload(0x40)\n      dup1\n      swap2\n      sub\n      swap1\n      revert\n    tag_114:\n        /* \"Voting/Vote.sol\":4159:4160  1 */\n      0x01\n        /* \"Voting/Vote.sol\":4143:4158  nextCandidateId */\n      sload(0x03)\n        /* \"Voting/Vote.sol\":4143:4160  nextCandidateId>1 */\n      gt\n        /* \"Voting/Vote.sol\":4135:4188  require(nextCandidateId>1,\"No candidates registered\") */\n      tag_118\n      jumpi\n      mload(0x40)\n      0x08c379a000000000000000000000000000000000000000000000000000000000\n      dup2\n      mstore\n      0x04\n      add\n      tag_119\n      swap1\n      tag_120\n      jump\t// in\n    tag_119:\n      mload(0x40)\n      dup1\n      swap2\n      sub\n      swap1\n      revert\n    tag_118:\n        /* \"Voting/Vote.sol\":4198:4215  uint maximumVotes */\n      0x00\n        /* \"Voting/Vote.sol\":4227:4248  address currentWinner */\n      dup1\n        /* \"Voting/Vote.sol\":4262:4268  uint i */\n      dup1\n        /* \"Voting/Vote.sol\":4269:4270  1 */\n      0x01\n        /* \"Voting/Vote.sol\":4262:4270  uint i=1 */\n      swap1\n      pop\n        /* \"Voting/Vote.sol\":4258:4498  for(uint i=1;i<nextCandidateId;i++){... */\n    tag_121:\n        /* \"Voting/Vote.sol\":4273:4288  nextCandidateId */\n      sload(0x03)\n        /* \"Voting/Vote.sol\":4271:4272  i */\n      dup2\n        /* \"Voting/Vote.sol\":4271:4288  i<nextCandidateId */\n      lt\n        /* \"Voting/Vote.sol\":4258:4498  for(uint i=1;i<nextCandidateId;i++){... */\n      iszero\n      tag_122\n      jumpi\n        /* \"Voting/Vote.sol\":4336:4348  maximumVotes */\n      dup3\n        /* \"Voting/Vote.sol\":4310:4326  candidateDetails */\n      0x07\n        /* \"Voting/Vote.sol\":4310:4329  candidateDetails[i] */\n      0x00\n        /* \"Voting/Vote.sol\":4327:4328  i */\n      dup4\n        /* \"Voting/Vote.sol\":4310:4329  candidateDetails[i] */\n      dup2\n      mstore\n      0x20\n      add\n      swap1\n      dup2\n      mstore\n      0x20\n      add\n      0x00\n      keccak256\n        /* \"Voting/Vote.sol\":4310:4335  candidateDetails[i].votes */\n      0x06\n      add\n      sload\n        /* \"Voting/Vote.sol\":4310:4348  candidateDetails[i].votes>maximumVotes */\n      gt\n        /* \"Voting/Vote.sol\":4307:4488  if(candidateDetails[i].votes>maximumVotes){... */\n      iszero\n      tag_124\n      jumpi\n        /* \"Voting/Vote.sol\":4380:4396  candidateDetails */\n      0x07\n        /* \"Voting/Vote.sol\":4380:4399  candidateDetails[i] */\n      0x00\n        /* \"Voting/Vote.sol\":4397:4398  i */\n      dup3\n        /* \"Voting/Vote.sol\":4380:4399  candidateDetails[i] */\n      dup2\n      mstore\n      0x20\n      add\n      swap1\n      dup2\n      mstore\n      0x20\n      add\n      0x00\n      keccak256\n        /* \"Voting/Vote.sol\":4380:4405  candidateDetails[i].votes */\n      0x06\n      add\n      sload\n        /* \"Voting/Vote.sol\":4367:4405  maximumVotes=candidateDetails[i].votes */\n      swap3\n      pop\n        /* \"Voting/Vote.sol\":4437:4453  candidateDetails */\n      0x07\n        /* \"Voting/Vote.sol\":4437:4456  candidateDetails[i] */\n      0x00\n        /* \"Voting/Vote.sol\":4454:4455  i */\n      dup3\n        /* \"Voting/Vote.sol\":4437:4456  candidateDetails[i] */\n      dup2\n      mstore\n      0x20\n      add\n      swap1\n      dup2\n      mstore\n      0x20\n      add\n      0x00\n      keccak256\n        /* \"Voting/Vote.sol\":4437:4473  candidateDetails[i].candidateAddress */\n      0x05\n      add\n      0x00\n      swap1\n      sload\n      swap1\n      0x0100\n      exp\n      swap1\n      div\n      0xffffffffffffffffffffffffffffffffffffffff\n      and\n        /* \"Voting/Vote.sol\":4423:4473  currentWinner=candidateDetails[i].candidateAddress */\n      swap2\n      pop\n        /* \"Voting/Vote.sol\":4307:4488  if(candidateDetails[i].votes>maximumVotes){... */\n    tag_124:\n        /* \"Voting/Vote.sol\":4289:4292  i++ */\n      dup1\n      dup1\n      0x01\n      add\n      swap2\n      pop\n      pop\n        /* \"Voting/Vote.sol\":4258:4498  for(uint i=1;i<nextCandidateId;i++){... */\n      jump(tag_121)\n    tag_122:\n      pop\n        /* \"Voting/Vote.sol\":4514:4527  currentWinner */\n      dup1\n        /* \"Voting/Vote.sol\":4507:4513  winner */\n      0x01\n      0x00\n        /* \"Voting/Vote.sol\":4507:4527  winner=currentWinner */\n      0x0100\n      exp\n      dup2\n      sload\n      dup2\n      0xffffffffffffffffffffffffffffffffffffffff\n      mul\n      not\n      and\n      swap1\n      dup4\n      0xffffffffffffffffffffffffffffffffffffffff\n      and\n      mul\n      or\n      swap1\n      sstore\n      pop\n        /* \"Voting/Vote.sol\":4125:4535  {... */\n      pop\n      pop\n        /* \"Voting/Vote.sol\":4082:4535  function result()external onlyCommisioner(){... */\n      jump\t// out\n        /* \"Voting/Vote.sol\":3603:3768  function voteTime(uint _startTime,uint _endTime) external onlyCommisioner(){... */\n    tag_31:\n        /* \"Voting/Vote.sol\":1016:1026  msg.sender */\n      caller\n        /* \"Voting/Vote.sol\":998:1026  electionComision==msg.sender */\n      0xffffffffffffffffffffffffffffffffffffffff\n      and\n        /* \"Voting/Vote.sol\":998:1014  electionComision */\n      0x00\n      dup1\n      sload\n      swap1\n      0x0100\n      exp\n      swap1\n      div\n      0xffffffffffffffffffffffffffffffffffffffff\n      and\n        /* \"Voting/Vote.sol\":998:1026  electionComision==msg.sender */\n      0xffffffffffffffffffffffffffffffffffffffff\n      and\n      eq\n        /* \"Voting/Vote.sol\":990:1058  require(electionComision==msg.sender,\"Not from election commission\") */\n      tag_126\n      jumpi\n      mload(0x40)\n      0x08c379a000000000000000000000000000000000000000000000000000000000\n      dup2\n      mstore\n      0x04\n      add\n      tag_127\n      swap1\n      tag_116\n      jump\t// in\n    tag_127:\n      mload(0x40)\n      dup1\n      swap2\n      sub\n      swap1\n      revert\n    tag_126:\n        /* \"Voting/Vote.sol\":3714:3724  _startTime */\n      dup2\n        /* \"Voting/Vote.sol\":3698:3713  block.timestamp */\n      timestamp\n        /* \"Voting/Vote.sol\":3698:3724  block.timestamp+_startTime */\n      tag_129\n      swap2\n      swap1\n      tag_130\n      jump\t// in\n    tag_129:\n        /* \"Voting/Vote.sol\":3688:3697  startTime */\n      0x04\n        /* \"Voting/Vote.sol\":3688:3724  startTime=block.timestamp+_startTime */\n      dup2\n      swap1\n      sstore\n      pop\n        /* \"Voting/Vote.sol\":3752:3760  _endTime */\n      dup1\n        /* \"Voting/Vote.sol\":3742:3751  startTime */\n      sload(0x04)\n        /* \"Voting/Vote.sol\":3742:3760  startTime+_endTime */\n      tag_131\n      swap2\n      swap1\n      tag_130\n      jump\t// in\n    tag_131:\n        /* \"Voting/Vote.sol\":3734:3741  endTime */\n      0x05\n        /* \"Voting/Vote.sol\":3734:3760  endTime=startTime+_endTime */\n      dup2\n      swap1\n      sstore\n      pop\n        /* \"Voting/Vote.sol\":3603:3768  function voteTime(uint _startTime,uint _endTime) external onlyCommisioner(){... */\n      pop\n      pop\n      jump\t// out\n        /* \"Voting/Vote.sol\":2230:2565  function voterRegister(string calldata _name,uint _age,string calldata _gender)external{... */\n    tag_35:\n        /* \"Voting/Vote.sol\":2366:2370  true */\n      0x01\n        /* \"Voting/Vote.sol\":2335:2370  voterVerification(msg.sender)==true */\n      iszero\n      iszero\n        /* \"Voting/Vote.sol\":2335:2364  voterVerification(msg.sender) */\n      tag_133\n        /* \"Voting/Vote.sol\":2353:2363  msg.sender */\n      caller\n        /* \"Voting/Vote.sol\":2335:2352  voterVerification */\n      tag_134\n        /* \"Voting/Vote.sol\":2335:2364  voterVerification(msg.sender) */\n      jump\t// in\n    tag_133:\n        /* \"Voting/Vote.sol\":2335:2370  voterVerification(msg.sender)==true */\n      iszero\n      iszero\n      eq\n        /* \"Voting/Vote.sol\":2327:2398  require(voterVerification(msg.sender)==true,\"Voter already registered\") */\n      tag_135\n      jumpi\n      mload(0x40)\n      0x08c379a000000000000000000000000000000000000000000000000000000000\n      dup2\n      mstore\n      0x04\n      add\n      tag_136\n      swap1\n      tag_137\n      jump\t// in\n    tag_136:\n      mload(0x40)\n      dup1\n      swap2\n      sub\n      swap1\n      revert\n    tag_135:\n        /* \"Voting/Vote.sol\":2422:2424  18 */\n      0x12\n        /* \"Voting/Vote.sol\":2416:2420  _age */\n      dup4\n        /* \"Voting/Vote.sol\":2416:2424  _age>=18 */\n      lt\n      iszero\n        /* \"Voting/Vote.sol\":2408:2448  require(_age>=18,\"you are not eligible\") */\n      tag_138\n      jumpi\n      mload(0x40)\n      0x08c379a000000000000000000000000000000000000000000000000000000000\n      dup2\n      mstore\n      0x04\n      add\n      tag_139\n      swap1\n      tag_140\n      jump\t// in\n    tag_139:\n      mload(0x40)\n      dup1\n      swap2\n      sub\n      swap1\n      revert\n    tag_138:\n        /* \"Voting/Vote.sol\":2484:2534  Voter(_name,_age,nextVoterId,_gender,0,msg.sender) */\n      mload(0x40)\n      dup1\n      0xc0\n      add\n      0x40\n      mstore\n      dup1\n        /* \"Voting/Vote.sol\":2490:2495  _name */\n      dup7\n      dup7\n        /* \"Voting/Vote.sol\":2484:2534  Voter(_name,_age,nextVoterId,_gender,0,msg.sender) */\n      dup1\n      dup1\n      0x1f\n      add\n      0x20\n      dup1\n      swap2\n      div\n      mul\n      0x20\n      add\n      mload(0x40)\n      swap1\n      dup2\n      add\n      0x40\n      mstore\n      dup1\n      swap4\n      swap3\n      swap2\n      swap1\n      dup2\n      dup2\n      mstore\n      0x20\n      add\n      dup4\n      dup4\n      dup1\n      dup3\n      dup5\n      calldatacopy\n      0x00\n      dup2\n      dup5\n      add\n      mstore\n      not(0x1f)\n      0x1f\n      dup3\n      add\n      and\n      swap1\n      pop\n      dup1\n      dup4\n      add\n      swap3\n      pop\n      pop\n      pop\n      pop\n      pop\n      pop\n      pop\n      dup2\n      mstore\n      0x20\n      add\n        /* \"Voting/Vote.sol\":2496:2500  _age */\n      dup5\n        /* \"Voting/Vote.sol\":2484:2534  Voter(_name,_age,nextVoterId,_gender,0,msg.sender) */\n      dup2\n      mstore\n      0x20\n      add\n        /* \"Voting/Vote.sol\":2501:2512  nextVoterId */\n      sload(0x02)\n        /* \"Voting/Vote.sol\":2484:2534  Voter(_name,_age,nextVoterId,_gender,0,msg.sender) */\n      dup2\n      mstore\n      0x20\n      add\n        /* \"Voting/Vote.sol\":2513:2520  _gender */\n      dup4\n      dup4\n        /* \"Voting/Vote.sol\":2484:2534  Voter(_name,_age,nextVoterId,_gender,0,msg.sender) */\n      dup1\n      dup1\n      0x1f\n      add\n      0x20\n      dup1\n      swap2\n      div\n      mul\n      0x20\n      add\n      mload(0x40)\n      swap1\n      dup2\n      add\n      0x40\n      mstore\n      dup1\n      swap4\n      swap3\n      swap2\n      swap1\n      dup2\n      dup2\n      mstore\n      0x20\n      add\n      dup4\n      dup4\n      dup1\n      dup3\n      dup5\n      calldatacopy\n      0x00\n      dup2\n      dup5\n      add\n      mstore\n      not(0x1f)\n      0x1f\n      dup3\n      add\n      and\n      swap1\n      pop\n      dup1\n      dup4\n      add\n      swap3\n      pop\n      pop\n      pop\n      pop\n      pop\n      pop\n      pop\n      dup2\n      mstore\n      0x20\n      add\n        /* \"Voting/Vote.sol\":2521:2522  0 */\n      0x00\n        /* \"Voting/Vote.sol\":2484:2534  Voter(_name,_age,nextVoterId,_gender,0,msg.sender) */\n      dup2\n      mstore\n      0x20\n      add\n        /* \"Voting/Vote.sol\":2523:2533  msg.sender */\n      caller\n        /* \"Voting/Vote.sol\":2484:2534  Voter(_name,_age,nextVoterId,_gender,0,msg.sender) */\n      0xffffffffffffffffffffffffffffffffffffffff\n      and\n      dup2\n      mstore\n      pop\n        /* \"Voting/Vote.sol\":2458:2470  voterDetails */\n      0x06\n        /* \"Voting/Vote.sol\":2458:2483  voterDetails[nextVoterId] */\n      0x00\n        /* \"Voting/Vote.sol\":2471:2482  nextVoterId */\n      sload(0x02)\n        /* \"Voting/Vote.sol\":2458:2483  voterDetails[nextVoterId] */\n      dup2\n      mstore\n      0x20\n      add\n      swap1\n      dup2\n      mstore\n      0x20\n      add\n      0x00\n      keccak256\n        /* \"Voting/Vote.sol\":2458:2534  voterDetails[nextVoterId]=Voter(_name,_age,nextVoterId,_gender,0,msg.sender) */\n      0x00\n      dup3\n      add\n      mload\n      dup2\n      0x00\n      add\n      swap1\n      dup2\n      tag_141\n      swap2\n      swap1\n      tag_142\n      jump\t// in\n    tag_141:\n      pop\n      0x20\n      dup3\n      add\n      mload\n      dup2\n      0x01\n      add\n      sstore\n      0x40\n      dup3\n      add\n      mload\n      dup2\n      0x02\n      add\n      sstore\n      0x60\n      dup3\n      add\n      mload\n      dup2\n      0x03\n      add\n      swap1\n      dup2\n      tag_143\n      swap2\n      swap1\n      tag_142\n      jump\t// in\n    tag_143:\n      pop\n      0x80\n      dup3\n      add\n      mload\n      dup2\n      0x04\n      add\n      sstore\n      0xa0\n      dup3\n      add\n      mload\n      dup2\n      0x05\n      add\n      exp(0x0100, 0x00)\n      dup2\n      sload\n      dup2\n      0xffffffffffffffffffffffffffffffffffffffff\n      mul\n      not\n      and\n      swap1\n      dup4\n      0xffffffffffffffffffffffffffffffffffffffff\n      and\n      mul\n      or\n      swap1\n      sstore\n      pop\n      swap1\n      pop\n      pop\n        /* \"Voting/Vote.sol\":2544:2555  nextVoterId */\n      0x02\n      0x00\n        /* \"Voting/Vote.sol\":2544:2557  nextVoterId++ */\n      dup2\n      sload\n      dup1\n      swap3\n      swap2\n      swap1\n      tag_144\n      swap1\n      tag_145\n      jump\t// in\n    tag_144:\n      swap2\n      swap1\n      pop\n      sstore\n      pop\n        /* \"Voting/Vote.sol\":2230:2565  function voterRegister(string calldata _name,uint _age,string calldata _gender)external{... */\n      pop\n      pop\n      pop\n      pop\n      pop\n      jump\t// out\n        /* \"Voting/Vote.sol\":3107:3597  function vote(uint _voterId,uint _id)external {... */\n    tag_38:\n        /* \"Voting/Vote.sol\":3211:3212  0 */\n      0x00\n        /* \"Voting/Vote.sol\":3171:3183  voterDetails */\n      0x06\n        /* \"Voting/Vote.sol\":3171:3193  voterDetails[_voterId] */\n      0x00\n        /* \"Voting/Vote.sol\":3184:3192  _voterId */\n      dup5\n        /* \"Voting/Vote.sol\":3171:3193  voterDetails[_voterId] */\n      dup2\n      mstore\n      0x20\n      add\n      swap1\n      dup2\n      mstore\n      0x20\n      add\n      0x00\n      keccak256\n        /* \"Voting/Vote.sol\":3171:3209  voterDetails[_voterId].voteCandidateId */\n      0x04\n      add\n      sload\n        /* \"Voting/Vote.sol\":3171:3212  voterDetails[_voterId].voteCandidateId==0 */\n      eq\n        /* \"Voting/Vote.sol\":3163:3229  require(voterDetails[_voterId].voteCandidateId==0,\"Already voted\") */\n      tag_147\n      jumpi\n      mload(0x40)\n      0x08c379a000000000000000000000000000000000000000000000000000000000\n      dup2\n      mstore\n      0x04\n      add\n      tag_148\n      swap1\n      tag_149\n      jump\t// in\n    tag_148:\n      mload(0x40)\n      dup1\n      swap2\n      sub\n      swap1\n      revert\n    tag_147:\n        /* \"Voting/Vote.sol\":3284:3294  msg.sender */\n      caller\n        /* \"Voting/Vote.sol\":3247:3294  voterDetails[_voterId].voterAddress==msg.sender */\n      0xffffffffffffffffffffffffffffffffffffffff\n      and\n        /* \"Voting/Vote.sol\":3247:3259  voterDetails */\n      0x06\n        /* \"Voting/Vote.sol\":3247:3269  voterDetails[_voterId] */\n      0x00\n        /* \"Voting/Vote.sol\":3260:3268  _voterId */\n      dup5\n        /* \"Voting/Vote.sol\":3247:3269  voterDetails[_voterId] */\n      dup2\n      mstore\n      0x20\n      add\n      swap1\n      dup2\n      mstore\n      0x20\n      add\n      0x00\n      keccak256\n        /* \"Voting/Vote.sol\":3247:3282  voterDetails[_voterId].voterAddress */\n      0x05\n      add\n      0x00\n      swap1\n      sload\n      swap1\n      0x0100\n      exp\n      swap1\n      div\n      0xffffffffffffffffffffffffffffffffffffffff\n      and\n        /* \"Voting/Vote.sol\":3247:3294  voterDetails[_voterId].voterAddress==msg.sender */\n      0xffffffffffffffffffffffffffffffffffffffff\n      and\n      eq\n        /* \"Voting/Vote.sol\":3239:3317  require(voterDetails[_voterId].voterAddress==msg.sender,\"you are not a voter\") */\n      tag_150\n      jumpi\n      mload(0x40)\n      0x08c379a000000000000000000000000000000000000000000000000000000000\n      dup2\n      mstore\n      0x04\n      add\n      tag_151\n      swap1\n      tag_152\n      jump\t// in\n    tag_151:\n      mload(0x40)\n      dup1\n      swap2\n      sub\n      swap1\n      revert\n    tag_150:\n        /* \"Voting/Vote.sol\":3346:3347  0 */\n      0x00\n        /* \"Voting/Vote.sol\":3335:3344  startTime */\n      sload(0x04)\n        /* \"Voting/Vote.sol\":3335:3347  startTime!=0 */\n      sub\n        /* \"Voting/Vote.sol\":3327:3369  require(startTime!=0,\"Voting not started\") */\n      tag_153\n      jumpi\n      mload(0x40)\n      0x08c379a000000000000000000000000000000000000000000000000000000000\n      dup2\n      mstore\n      0x04\n      add\n      tag_154\n      swap1\n      tag_155\n      jump\t// in\n    tag_154:\n      mload(0x40)\n      dup1\n      swap2\n      sub\n      swap1\n      revert\n    tag_153:\n        /* \"Voting/Vote.sol\":3404:3405  3 */\n      0x03\n        /* \"Voting/Vote.sol\":3387:3402  nextCandidateId */\n      dup1\n      sload\n        /* \"Voting/Vote.sol\":3387:3405  nextCandidateId==3 */\n      eq\n        /* \"Voting/Vote.sol\":3379:3444  require(nextCandidateId==3,\"Candidate registration not done yet\") */\n      tag_156\n      jumpi\n      mload(0x40)\n      0x08c379a000000000000000000000000000000000000000000000000000000000\n      dup2\n      mstore\n      0x04\n      add\n      tag_157\n      swap1\n      tag_158\n      jump\t// in\n    tag_157:\n      mload(0x40)\n      dup1\n      swap2\n      sub\n      swap1\n      revert\n    tag_156:\n        /* \"Voting/Vote.sol\":3466:3467  0 */\n      0x00\n        /* \"Voting/Vote.sol\":3462:3465  _id */\n      dup2\n        /* \"Voting/Vote.sol\":3462:3467  _id>0 */\n      gt\n        /* \"Voting/Vote.sol\":3462:3474  _id>0&&_id<3 */\n      dup1\n      iszero\n      tag_159\n      jumpi\n      pop\n        /* \"Voting/Vote.sol\":3473:3474  3 */\n      0x03\n        /* \"Voting/Vote.sol\":3469:3472  _id */\n      dup2\n        /* \"Voting/Vote.sol\":3469:3474  _id<3 */\n      lt\n        /* \"Voting/Vote.sol\":3462:3474  _id>0&&_id<3 */\n    tag_159:\n        /* \"Voting/Vote.sol\":3454:3498  require(_id>0&&_id<3,\"invalid Candidate Id\") */\n      tag_160\n      jumpi\n      mload(0x40)\n      0x08c379a000000000000000000000000000000000000000000000000000000000\n      dup2\n      mstore\n      0x04\n      add\n      tag_161\n      swap1\n      tag_162\n      jump\t// in\n    tag_161:\n      mload(0x40)\n      dup1\n      swap2\n      sub\n      swap1\n      revert\n    tag_160:\n        /* \"Voting/Vote.sol\":3547:3550  _id */\n      dup1\n        /* \"Voting/Vote.sol\":3508:3520  voterDetails */\n      0x06\n        /* \"Voting/Vote.sol\":3508:3530  voterDetails[_voterId] */\n      0x00\n        /* \"Voting/Vote.sol\":3521:3529  _voterId */\n      dup5\n        /* \"Voting/Vote.sol\":3508:3530  voterDetails[_voterId] */\n      dup2\n      mstore\n      0x20\n      add\n      swap1\n      dup2\n      mstore\n      0x20\n      add\n      0x00\n      keccak256\n        /* \"Voting/Vote.sol\":3508:3546  voterDetails[_voterId].voteCandidateId */\n      0x04\n      add\n        /* \"Voting/Vote.sol\":3508:3550  voterDetails[_voterId].voteCandidateId=_id */\n      dup2\n      swap1\n      sstore\n      pop\n        /* \"Voting/Vote.sol\":3560:3576  candidateDetails */\n      0x07\n        /* \"Voting/Vote.sol\":3560:3581  candidateDetails[_id] */\n      0x00\n        /* \"Voting/Vote.sol\":3577:3580  _id */\n      dup3\n        /* \"Voting/Vote.sol\":3560:3581  candidateDetails[_id] */\n      dup2\n      mstore\n      0x20\n      add\n      swap1\n      dup2\n      mstore\n      0x20\n      add\n      0x00\n      keccak256\n        /* \"Voting/Vote.sol\":3560:3587  candidateDetails[_id].votes */\n      0x06\n      add\n      0x00\n        /* \"Voting/Vote.sol\":3560:3589  candidateDetails[_id].votes++ */\n      dup2\n      sload\n      dup1\n      swap3\n      swap2\n      swap1\n      tag_163\n      swap1\n      tag_145\n      jump\t// in\n    tag_163:\n      swap2\n      swap1\n      pop\n      sstore\n      pop\n        /* \"Voting/Vote.sol\":3107:3597  function vote(uint _voterId,uint _id)external {... */\n      pop\n      pop\n      jump\t// out\n        /* \"Voting/Vote.sol\":4541:4618  function emergency()public onlyCommisioner(){... */\n    tag_40:\n        /* \"Voting/Vote.sol\":1016:1026  msg.sender */\n      caller\n        /* \"Voting/Vote.sol\":998:1026  electionComision==msg.sender */\n      0xffffffffffffffffffffffffffffffffffffffff\n      and\n        /* \"Voting/Vote.sol\":998:1014  electionComision */\n      0x00\n      dup1\n      sload\n      swap1\n      0x0100\n      exp\n      swap1\n      div\n      0xffffffffffffffffffffffffffffffffffffffff\n      and\n        /* \"Voting/Vote.sol\":998:1026  electionComision==msg.sender */\n      0xffffffffffffffffffffffffffffffffffffffff\n      and\n      eq\n        /* \"Voting/Vote.sol\":990:1058  require(electionComision==msg.sender,\"Not from election commission\") */\n      tag_165\n      jumpi\n      mload(0x40)\n      0x08c379a000000000000000000000000000000000000000000000000000000000\n      dup2\n      mstore\n      0x04\n      add\n      tag_166\n      swap1\n      tag_116\n      jump\t// in\n    tag_166:\n      mload(0x40)\n      dup1\n      swap2\n      sub\n      swap1\n      revert\n    tag_165:\n        /* \"Voting/Vote.sol\":4606:4610  true */\n      0x01\n        /* \"Voting/Vote.sol\":4595:4605  stopVoting */\n      0x08\n      0x00\n        /* \"Voting/Vote.sol\":4595:4610  stopVoting=true */\n      0x0100\n      exp\n      dup2\n      sload\n      dup2\n      0xff\n      mul\n      not\n      and\n      swap1\n      dup4\n      iszero\n      iszero\n      mul\n      or\n      swap1\n      sstore\n      pop\n        /* \"Voting/Vote.sol\":4541:4618  function emergency()public onlyCommisioner(){... */\n      jump\t// out\n        /* \"Voting/Vote.sol\":1084:1632  function candidateRegister(string calldata _name,string calldata _party,uint _age,string calldata _gender) external{... */\n    tag_44:\n        /* \"Voting/Vote.sol\":1229:1245  electionComision */\n      0x00\n      dup1\n      sload\n      swap1\n      0x0100\n      exp\n      swap1\n      div\n      0xffffffffffffffffffffffffffffffffffffffff\n      and\n        /* \"Voting/Vote.sol\":1217:1245  msg.sender!=electionComision */\n      0xffffffffffffffffffffffffffffffffffffffff\n      and\n        /* \"Voting/Vote.sol\":1217:1227  msg.sender */\n      caller\n        /* \"Voting/Vote.sol\":1217:1245  msg.sender!=electionComision */\n      0xffffffffffffffffffffffffffffffffffffffff\n      and\n      sub\n        /* \"Voting/Vote.sol\":1209:1280  require(msg.sender!=electionComision,\"You are from election commision\") */\n      tag_169\n      jumpi\n      mload(0x40)\n      0x08c379a000000000000000000000000000000000000000000000000000000000\n      dup2\n      mstore\n      0x04\n      add\n      tag_170\n      swap1\n      tag_171\n      jump\t// in\n    tag_170:\n      mload(0x40)\n      dup1\n      swap2\n      sub\n      swap1\n      revert\n    tag_169:\n        /* \"Voting/Vote.sol\":1333:1337  true */\n      0x01\n        /* \"Voting/Vote.sol\":1298:1337  candidateVerification(msg.sender)==true */\n      iszero\n      iszero\n        /* \"Voting/Vote.sol\":1298:1331  candidateVerification(msg.sender) */\n      tag_172\n        /* \"Voting/Vote.sol\":1320:1330  msg.sender */\n      caller\n        /* \"Voting/Vote.sol\":1298:1319  candidateVerification */\n      tag_173\n        /* \"Voting/Vote.sol\":1298:1331  candidateVerification(msg.sender) */\n      jump\t// in\n    tag_172:\n        /* \"Voting/Vote.sol\":1298:1337  candidateVerification(msg.sender)==true */\n      iszero\n      iszero\n      eq\n        /* \"Voting/Vote.sol\":1290:1369  require(candidateVerification(msg.sender)==true,\"Candidate already registered\") */\n      tag_174\n      jumpi\n      mload(0x40)\n      0x08c379a000000000000000000000000000000000000000000000000000000000\n      dup2\n      mstore\n      0x04\n      add\n      tag_175\n      swap1\n      tag_176\n      jump\t// in\n    tag_175:\n      mload(0x40)\n      dup1\n      swap2\n      sub\n      swap1\n      revert\n    tag_174:\n        /* \"Voting/Vote.sol\":1393:1395  18 */\n      0x12\n        /* \"Voting/Vote.sol\":1387:1391  _age */\n      dup4\n        /* \"Voting/Vote.sol\":1387:1395  _age>=18 */\n      lt\n      iszero\n        /* \"Voting/Vote.sol\":1379:1419  require(_age>=18,\"You are not eligible\") */\n      tag_177\n      jumpi\n      mload(0x40)\n      0x08c379a000000000000000000000000000000000000000000000000000000000\n      dup2\n      mstore\n      0x04\n      add\n      tag_178\n      swap1\n      tag_179\n      jump\t// in\n    tag_178:\n      mload(0x40)\n      dup1\n      swap2\n      sub\n      swap1\n      revert\n    tag_177:\n        /* \"Voting/Vote.sol\":1453:1454  3 */\n      0x03\n        /* \"Voting/Vote.sol\":1437:1452  nextCandidateId */\n      dup1\n      sload\n        /* \"Voting/Vote.sol\":1437:1454  nextCandidateId<3 */\n      lt\n        /* \"Voting/Vote.sol\":1429:1488  require(nextCandidateId<3,\"Candidate Registration is full\") */\n      tag_180\n      jumpi\n      mload(0x40)\n      0x08c379a000000000000000000000000000000000000000000000000000000000\n      dup2\n      mstore\n      0x04\n      add\n      tag_181\n      swap1\n      tag_182\n      jump\t// in\n    tag_181:\n      mload(0x40)\n      dup1\n      swap2\n      sub\n      swap1\n      revert\n    tag_180:\n        /* \"Voting/Vote.sol\":1532:1597  Candidate(_name,_party,_age,_gender,nextCandidateId,msg.sender,0) */\n      mload(0x40)\n      dup1\n      0xe0\n      add\n      0x40\n      mstore\n      dup1\n        /* \"Voting/Vote.sol\":1542:1547  _name */\n      dup9\n      dup9\n        /* \"Voting/Vote.sol\":1532:1597  Candidate(_name,_party,_age,_gender,nextCandidateId,msg.sender,0) */\n      dup1\n      dup1\n      0x1f\n      add\n      0x20\n      dup1\n      swap2\n      div\n      mul\n      0x20\n      add\n      mload(0x40)\n      swap1\n      dup2\n      add\n      0x40\n      mstore\n      dup1\n      swap4\n      swap3\n      swap2\n      swap1\n      dup2\n      dup2\n      mstore\n      0x20\n      add\n      dup4\n      dup4\n      dup1\n      dup3\n      dup5\n      calldatacopy\n      0x00\n      dup2\n      dup5\n      add\n      mstore\n      not(0x1f)\n      0x1f\n      dup3\n      add\n      and\n      swap1\n      pop\n      dup1\n      dup4\n      add\n      swap3\n      pop\n      pop\n      pop\n      pop\n      pop\n      pop\n      pop\n      dup2\n      mstore\n      0x20\n      add\n        /* \"Voting/Vote.sol\":1548:1554  _party */\n      dup7\n      dup7\n        /* \"Voting/Vote.sol\":1532:1597  Candidate(_name,_party,_age,_gender,nextCandidateId,msg.sender,0) */\n      dup1\n      dup1\n      0x1f\n      add\n      0x20\n      dup1\n      swap2\n      div\n      mul\n      0x20\n      add\n      mload(0x40)\n      swap1\n      dup2\n      add\n      0x40\n      mstore\n      dup1\n      swap4\n      swap3\n      swap2\n      swap1\n      dup2\n      dup2\n      mstore\n      0x20\n      add\n      dup4\n      dup4\n      dup1\n      dup3\n      dup5\n      calldatacopy\n      0x00\n      dup2\n      dup5\n      add\n      mstore\n      not(0x1f)\n      0x1f\n      dup3\n      add\n      and\n      swap1\n      pop\n      dup1\n      dup4\n      add\n      swap3\n      pop\n      pop\n      pop\n      pop\n      pop\n      pop\n      pop\n      dup2\n      mstore\n      0x20\n      add\n        /* \"Voting/Vote.sol\":1555:1559  _age */\n      dup5\n        /* \"Voting/Vote.sol\":1532:1597  Candidate(_name,_party,_age,_gender,nextCandidateId,msg.sender,0) */\n      dup2\n      mstore\n      0x20\n      add\n        /* \"Voting/Vote.sol\":1560:1567  _gender */\n      dup4\n      dup4\n        /* \"Voting/Vote.sol\":1532:1597  Candidate(_name,_party,_age,_gender,nextCandidateId,msg.sender,0) */\n      dup1\n      dup1\n      0x1f\n      add\n      0x20\n      dup1\n      swap2\n      div\n      mul\n      0x20\n      add\n      mload(0x40)\n      swap1\n      dup2\n      add\n      0x40\n      mstore\n      dup1\n      swap4\n      swap3\n      swap2\n      swap1\n      dup2\n      dup2\n      mstore\n      0x20\n      add\n      dup4\n      dup4\n      dup1\n      dup3\n      dup5\n      calldatacopy\n      0x00\n      dup2\n      dup5\n      add\n      mstore\n      not(0x1f)\n      0x1f\n      dup3\n      add\n      and\n      swap1\n      pop\n      dup1\n      dup4\n      add\n      swap3\n      pop\n      pop\n      pop\n      pop\n      pop\n      pop\n      pop\n      dup2\n      mstore\n      0x20\n      add\n        /* \"Voting/Vote.sol\":1568:1583  nextCandidateId */\n      sload(0x03)\n        /* \"Voting/Vote.sol\":1532:1597  Candidate(_name,_party,_age,_gender,nextCandidateId,msg.sender,0) */\n      dup2\n      mstore\n      0x20\n      add\n        /* \"Voting/Vote.sol\":1584:1594  msg.sender */\n      caller\n        /* \"Voting/Vote.sol\":1532:1597  Candidate(_name,_party,_age,_gender,nextCandidateId,msg.sender,0) */\n      0xffffffffffffffffffffffffffffffffffffffff\n      and\n      dup2\n      mstore\n      0x20\n      add\n        /* \"Voting/Vote.sol\":1595:1596  0 */\n      0x00\n        /* \"Voting/Vote.sol\":1532:1597  Candidate(_name,_party,_age,_gender,nextCandidateId,msg.sender,0) */\n      dup2\n      mstore\n      pop\n        /* \"Voting/Vote.sol\":1498:1514  candidateDetails */\n      0x07\n        /* \"Voting/Vote.sol\":1498:1531  candidateDetails[nextCandidateId] */\n      0x00\n        /* \"Voting/Vote.sol\":1515:1530  nextCandidateId */\n      sload(0x03)\n        /* \"Voting/Vote.sol\":1498:1531  candidateDetails[nextCandidateId] */\n      dup2\n      mstore\n      0x20\n      add\n      swap1\n      dup2\n      mstore\n      0x20\n      add\n      0x00\n      keccak256\n        /* \"Voting/Vote.sol\":1498:1597  candidateDetails[nextCandidateId]=Candidate(_name,_party,_age,_gender,nextCandidateId,msg.sender,0) */\n      0x00\n      dup3\n      add\n      mload\n      dup2\n      0x00\n      add\n      swap1\n      dup2\n      tag_183\n      swap2\n      swap1\n      tag_142\n      jump\t// in\n    tag_183:\n      pop\n      0x20\n      dup3\n      add\n      mload\n      dup2\n      0x01\n      add\n      swap1\n      dup2\n      tag_184\n      swap2\n      swap1\n      tag_142\n      jump\t// in\n    tag_184:\n      pop\n      0x40\n      dup3\n      add\n      mload\n      dup2\n      0x02\n      add\n      sstore\n      0x60\n      dup3\n      add\n      mload\n      dup2\n      0x03\n      add\n      swap1\n      dup2\n      tag_185\n      swap2\n      swap1\n      tag_142\n      jump\t// in\n    tag_185:\n      pop\n      0x80\n      dup3\n      add\n      mload\n      dup2\n      0x04\n      add\n      sstore\n      0xa0\n      dup3\n      add\n      mload\n      dup2\n      0x05\n      add\n      exp(0x0100, 0x00)\n      dup2\n      sload\n      dup2\n      0xffffffffffffffffffffffffffffffffffffffff\n      mul\n      not\n      and\n      swap1\n      dup4\n      0xffffffffffffffffffffffffffffffffffffffff\n      and\n      mul\n      or\n      swap1\n      sstore\n      pop\n      0xc0\n      dup3\n      add\n      mload\n      dup2\n      0x06\n      add\n      sstore\n      swap1\n      pop\n      pop\n        /* \"Voting/Vote.sol\":1607:1622  nextCandidateId */\n      0x03\n      0x00\n        /* \"Voting/Vote.sol\":1607:1624  nextCandidateId++ */\n      dup2\n      sload\n      dup1\n      swap3\n      swap2\n      swap1\n      tag_186\n      swap1\n      tag_145\n      jump\t// in\n    tag_186:\n      swap2\n      swap1\n      pop\n      sstore\n      pop\n        /* \"Voting/Vote.sol\":1084:1632  function candidateRegister(string calldata _name,string calldata _party,uint _age,string calldata _gender) external{... */\n      pop\n      pop\n      pop\n      pop\n      pop\n      pop\n      pop\n      jump\t// out\n        /* \"Voting/Vote.sol\":106:127  address public winner */\n    tag_46:\n      0x01\n      0x00\n      swap1\n      sload\n      swap1\n      0x0100\n      exp\n      swap1\n      div\n      0xffffffffffffffffffffffffffffffffffffffff\n      and\n      dup2\n      jump\t// out\n        /* \"Voting/Vote.sol\":2571:2859  function voterVerification(address _person) internal view returns(bool){... */\n    tag_134:\n        /* \"Voting/Vote.sol\":2637:2641  bool */\n      0x00\n        /* \"Voting/Vote.sol\":2656:2662  uint i */\n      dup1\n        /* \"Voting/Vote.sol\":2663:2664  1 */\n      0x01\n        /* \"Voting/Vote.sol\":2656:2664  uint i=1 */\n      swap1\n      pop\n        /* \"Voting/Vote.sol\":2652:2814  for(uint i=1;i<nextVoterId;i++){... */\n    tag_188:\n        /* \"Voting/Vote.sol\":2667:2678  nextVoterId */\n      sload(0x02)\n        /* \"Voting/Vote.sol\":2665:2666  i */\n      dup2\n        /* \"Voting/Vote.sol\":2665:2678  i<nextVoterId */\n      lt\n        /* \"Voting/Vote.sol\":2652:2814  for(uint i=1;i<nextVoterId;i++){... */\n      iszero\n      tag_189\n      jumpi\n        /* \"Voting/Vote.sol\":2730:2737  _person */\n      dup3\n        /* \"Voting/Vote.sol\":2700:2737  voterDetails[i].voterAddress==_person */\n      0xffffffffffffffffffffffffffffffffffffffff\n      and\n        /* \"Voting/Vote.sol\":2700:2712  voterDetails */\n      0x06\n        /* \"Voting/Vote.sol\":2700:2715  voterDetails[i] */\n      0x00\n        /* \"Voting/Vote.sol\":2713:2714  i */\n      dup4\n        /* \"Voting/Vote.sol\":2700:2715  voterDetails[i] */\n      dup2\n      mstore\n      0x20\n      add\n      swap1\n      dup2\n      mstore\n      0x20\n      add\n      0x00\n      keccak256\n        /* \"Voting/Vote.sol\":2700:2728  voterDetails[i].voterAddress */\n      0x05\n      add\n      0x00\n      swap1\n      sload\n      swap1\n      0x0100\n      exp\n      swap1\n      div\n      0xffffffffffffffffffffffffffffffffffffffff\n      and\n        /* \"Voting/Vote.sol\":2700:2737  voterDetails[i].voterAddress==_person */\n      0xffffffffffffffffffffffffffffffffffffffff\n      and\n      sub\n        /* \"Voting/Vote.sol\":2697:2804  if(voterDetails[i].voterAddress==_person){... */\n      tag_191\n      jumpi\n        /* \"Voting/Vote.sol\":2763:2768  false */\n      0x00\n        /* \"Voting/Vote.sol\":2756:2768  return false */\n      swap2\n      pop\n      pop\n      jump(tag_187)\n        /* \"Voting/Vote.sol\":2697:2804  if(voterDetails[i].voterAddress==_person){... */\n    tag_191:\n        /* \"Voting/Vote.sol\":2679:2682  i++ */\n      dup1\n      dup1\n      0x01\n      add\n      swap2\n      pop\n      pop\n        /* \"Voting/Vote.sol\":2652:2814  for(uint i=1;i<nextVoterId;i++){... */\n      jump(tag_188)\n    tag_189:\n      pop\n        /* \"Voting/Vote.sol\":2830:2834  true */\n      0x01\n        /* \"Voting/Vote.sol\":2823:2834  return true */\n      swap1\n      pop\n        /* \"Voting/Vote.sol\":2571:2859  function voterVerification(address _person) internal view returns(bool){... */\n    tag_187:\n      swap2\n      swap1\n      pop\n      jump\t// out\n        /* \"Voting/Vote.sol\":1638:1956  function candidateVerification(address _person)internal view returns(bool){... */\n    tag_173:\n        /* \"Voting/Vote.sol\":1707:1711  bool */\n      0x00\n        /* \"Voting/Vote.sol\":1726:1732  uint i */\n      dup1\n        /* \"Voting/Vote.sol\":1733:1734  1 */\n      0x01\n        /* \"Voting/Vote.sol\":1726:1734  uint i=1 */\n      swap1\n      pop\n        /* \"Voting/Vote.sol\":1722:1897  for(uint i=1;i<nextCandidateId;i++){... */\n    tag_193:\n        /* \"Voting/Vote.sol\":1737:1752  nextCandidateId */\n      sload(0x03)\n        /* \"Voting/Vote.sol\":1735:1736  i */\n      dup2\n        /* \"Voting/Vote.sol\":1735:1752  i<nextCandidateId */\n      lt\n        /* \"Voting/Vote.sol\":1722:1897  for(uint i=1;i<nextCandidateId;i++){... */\n      iszero\n      tag_194\n      jumpi\n        /* \"Voting/Vote.sol\":1812:1819  _person */\n      dup3\n        /* \"Voting/Vote.sol\":1774:1819  candidateDetails[i].candidateAddress==_person */\n      0xffffffffffffffffffffffffffffffffffffffff\n      and\n        /* \"Voting/Vote.sol\":1774:1790  candidateDetails */\n      0x07\n        /* \"Voting/Vote.sol\":1774:1793  candidateDetails[i] */\n      0x00\n        /* \"Voting/Vote.sol\":1791:1792  i */\n      dup4\n        /* \"Voting/Vote.sol\":1774:1793  candidateDetails[i] */\n      dup2\n      mstore\n      0x20\n      add\n      swap1\n      dup2\n      mstore\n      0x20\n      add\n      0x00\n      keccak256\n        /* \"Voting/Vote.sol\":1774:1810  candidateDetails[i].candidateAddress */\n      0x05\n      add\n      0x00\n      swap1\n      sload\n      swap1\n      0x0100\n      exp\n      swap1\n      div\n      0xffffffffffffffffffffffffffffffffffffffff\n      and\n        /* \"Voting/Vote.sol\":1774:1819  candidateDetails[i].candidateAddress==_person */\n      0xffffffffffffffffffffffffffffffffffffffff\n      and\n      sub\n        /* \"Voting/Vote.sol\":1771:1887  if(candidateDetails[i].candidateAddress==_person){... */\n      tag_196\n      jumpi\n        /* \"Voting/Vote.sol\":1845:1850  false */\n      0x00\n        /* \"Voting/Vote.sol\":1838:1850  return false */\n      swap2\n      pop\n      pop\n      jump(tag_192)\n        /* \"Voting/Vote.sol\":1771:1887  if(candidateDetails[i].candidateAddress==_person){... */\n    tag_196:\n        /* \"Voting/Vote.sol\":1753:1756  i++ */\n      dup1\n      dup1\n      0x01\n      add\n      swap2\n      pop\n      pop\n        /* \"Voting/Vote.sol\":1722:1897  for(uint i=1;i<nextCandidateId;i++){... */\n      jump(tag_193)\n    tag_194:\n      pop\n        /* \"Voting/Vote.sol\":1913:1917  true */\n      0x01\n        /* \"Voting/Vote.sol\":1906:1917  return true */\n      swap1\n      pop\n        /* \"Voting/Vote.sol\":1638:1956  function candidateVerification(address _person)internal view returns(bool){... */\n    tag_192:\n      swap2\n      swap1\n      pop\n      jump\t// out\n    tag_65:\n      mload(0x40)\n      dup1\n      0xc0\n      add\n      0x40\n      mstore\n      dup1\n      0x60\n      dup2\n      mstore\n      0x20\n      add\n      0x00\n      dup2\n      mstore\n      0x20\n      add\n      0x00\n      dup2\n      mstore\n      0x20\n      add\n      0x60\n      dup2\n      mstore\n      0x20\n      add\n      0x00\n      dup2\n      mstore\n      0x20\n      add\n      and(0xffffffffffffffffffffffffffffffffffffffff, 0x00)\n      dup2\n      mstore\n      pop\n      swap1\n      jump\t// out\n    tag_91:\n      mload(0x40)\n      dup1\n      0xe0\n      add\n      0x40\n      mstore\n      dup1\n      0x60\n      dup2\n      mstore\n      0x20\n      add\n      0x60\n      dup2\n      mstore\n      0x20\n      add\n      0x00\n      dup2\n      mstore\n      0x20\n      add\n      0x60\n      dup2\n      mstore\n      0x20\n      add\n      0x00\n      dup2\n      mstore\n      0x20\n      add\n      and(0xffffffffffffffffffffffffffffffffffffffff, 0x00)\n      dup2\n      mstore\n      0x20\n      add\n      0x00\n      dup2\n      mstore\n      pop\n      swap1\n      jump\t// out\n        /* \"#utility.yul\":7:106   */\n    tag_197:\n        /* \"#utility.yul\":59:65   */\n      0x00\n        /* \"#utility.yul\":93:98   */\n      dup2\n        /* \"#utility.yul\":87:99   */\n      mload\n        /* \"#utility.yul\":77:99   */\n      swap1\n      pop\n        /* \"#utility.yul\":7:106   */\n      swap2\n      swap1\n      pop\n      jump\t// out\n        /* \"#utility.yul\":112:281   */\n    tag_198:\n        /* \"#utility.yul\":196:207   */\n      0x00\n        /* \"#utility.yul\":230:236   */\n      dup3\n        /* \"#utility.yul\":225:228   */\n      dup3\n        /* \"#utility.yul\":218:237   */\n      mstore\n        /* \"#utility.yul\":270:274   */\n      0x20\n        /* \"#utility.yul\":265:268   */\n      dup3\n        /* \"#utility.yul\":261:275   */\n      add\n        /* \"#utility.yul\":246:275   */\n      swap1\n      pop\n        /* \"#utility.yul\":112:281   */\n      swap3\n      swap2\n      pop\n      pop\n      jump\t// out\n        /* \"#utility.yul\":287:533   */\n    tag_199:\n        /* \"#utility.yul\":368:369   */\n      0x00\n        /* \"#utility.yul\":378:491   */\n    tag_280:\n        /* \"#utility.yul\":392:398   */\n      dup4\n        /* \"#utility.yul\":389:390   */\n      dup2\n        /* \"#utility.yul\":386:399   */\n      lt\n        /* \"#utility.yul\":378:491   */\n      iszero\n      tag_282\n      jumpi\n        /* \"#utility.yul\":477:478   */\n      dup1\n        /* \"#utility.yul\":472:475   */\n      dup3\n        /* \"#utility.yul\":468:479   */\n      add\n        /* \"#utility.yul\":462:480   */\n      mload\n        /* \"#utility.yul\":458:459   */\n      dup2\n        /* \"#utility.yul\":453:456   */\n      dup5\n        /* \"#utility.yul\":449:460   */\n      add\n        /* \"#utility.yul\":442:481   */\n      mstore\n        /* \"#utility.yul\":414:416   */\n      0x20\n        /* \"#utility.yul\":411:412   */\n      dup2\n        /* \"#utility.yul\":407:417   */\n      add\n        /* \"#utility.yul\":402:417   */\n      swap1\n      pop\n        /* \"#utility.yul\":378:491   */\n      jump(tag_280)\n    tag_282:\n        /* \"#utility.yul\":525:526   */\n      0x00\n        /* \"#utility.yul\":516:522   */\n      dup5\n        /* \"#utility.yul\":511:514   */\n      dup5\n        /* \"#utility.yul\":507:523   */\n      add\n        /* \"#utility.yul\":500:527   */\n      mstore\n        /* \"#utility.yul\":349:533   */\n      pop\n        /* \"#utility.yul\":287:533   */\n      pop\n      pop\n      pop\n      jump\t// out\n        /* \"#utility.yul\":539:641   */\n    tag_200:\n        /* \"#utility.yul\":580:586   */\n      0x00\n        /* \"#utility.yul\":631:633   */\n      0x1f\n        /* \"#utility.yul\":627:634   */\n      not\n        /* \"#utility.yul\":622:624   */\n      0x1f\n        /* \"#utility.yul\":615:620   */\n      dup4\n        /* \"#utility.yul\":611:625   */\n      add\n        /* \"#utility.yul\":607:635   */\n      and\n        /* \"#utility.yul\":597:635   */\n      swap1\n      pop\n        /* \"#utility.yul\":539:641   */\n      swap2\n      swap1\n      pop\n      jump\t// out\n        /* \"#utility.yul\":647:1024   */\n    tag_201:\n        /* \"#utility.yul\":735:738   */\n      0x00\n        /* \"#utility.yul\":763:802   */\n      tag_285\n        /* \"#utility.yul\":796:801   */\n      dup3\n        /* \"#utility.yul\":763:802   */\n      tag_197\n      jump\t// in\n    tag_285:\n        /* \"#utility.yul\":818:889   */\n      tag_286\n        /* \"#utility.yul\":882:888   */\n      dup2\n        /* \"#utility.yul\":877:880   */\n      dup6\n        /* \"#utility.yul\":818:889   */\n      tag_198\n      jump\t// in\n    tag_286:\n        /* \"#utility.yul\":811:889   */\n      swap4\n      pop\n        /* \"#utility.yul\":898:963   */\n      tag_287\n        /* \"#utility.yul\":956:962   */\n      dup2\n        /* \"#utility.yul\":951:954   */\n      dup6\n        /* \"#utility.yul\":944:948   */\n      0x20\n        /* \"#utility.yul\":937:942   */\n      dup7\n        /* \"#utility.yul\":933:949   */\n      add\n        /* \"#utility.yul\":898:963   */\n      tag_199\n      jump\t// in\n    tag_287:\n        /* \"#utility.yul\":988:1017   */\n      tag_288\n        /* \"#utility.yul\":1010:1016   */\n      dup2\n        /* \"#utility.yul\":988:1017   */\n      tag_200\n      jump\t// in\n    tag_288:\n        /* \"#utility.yul\":983:986   */\n      dup5\n        /* \"#utility.yul\":979:1018   */\n      add\n        /* \"#utility.yul\":972:1018   */\n      swap2\n      pop\n        /* \"#utility.yul\":739:1024   */\n      pop\n        /* \"#utility.yul\":647:1024   */\n      swap3\n      swap2\n      pop\n      pop\n      jump\t// out\n        /* \"#utility.yul\":1030:1343   */\n    tag_17:\n        /* \"#utility.yul\":1143:1147   */\n      0x00\n        /* \"#utility.yul\":1181:1183   */\n      0x20\n        /* \"#utility.yul\":1170:1179   */\n      dup3\n        /* \"#utility.yul\":1166:1184   */\n      add\n        /* \"#utility.yul\":1158:1184   */\n      swap1\n      pop\n        /* \"#utility.yul\":1230:1239   */\n      dup2\n        /* \"#utility.yul\":1224:1228   */\n      dup2\n        /* \"#utility.yul\":1220:1240   */\n      sub\n        /* \"#utility.yul\":1216:1217   */\n      0x00\n        /* \"#utility.yul\":1205:1214   */\n      dup4\n        /* \"#utility.yul\":1201:1218   */\n      add\n        /* \"#utility.yul\":1194:1241   */\n      mstore\n        /* \"#utility.yul\":1258:1336   */\n      tag_290\n        /* \"#utility.yul\":1331:1335   */\n      dup2\n        /* \"#utility.yul\":1322:1328   */\n      dup5\n        /* \"#utility.yul\":1258:1336   */\n      tag_201\n      jump\t// in\n    tag_290:\n        /* \"#utility.yul\":1250:1336   */\n      swap1\n      pop\n        /* \"#utility.yul\":1030:1343   */\n      swap3\n      swap2\n      pop\n      pop\n      jump\t// out\n        /* \"#utility.yul\":1349:1484   */\n    tag_202:\n        /* \"#utility.yul\":1437:1443   */\n      0x00\n        /* \"#utility.yul\":1471:1476   */\n      dup2\n        /* \"#utility.yul\":1465:1477   */\n      mload\n        /* \"#utility.yul\":1455:1477   */\n      swap1\n      pop\n        /* \"#utility.yul\":1349:1484   */\n      swap2\n      swap1\n      pop\n      jump\t// out\n        /* \"#utility.yul\":1490:1695   */\n    tag_203:\n        /* \"#utility.yul\":1610:1621   */\n      0x00\n        /* \"#utility.yul\":1644:1650   */\n      dup3\n        /* \"#utility.yul\":1639:1642   */\n      dup3\n        /* \"#utility.yul\":1632:1651   */\n      mstore\n        /* \"#utility.yul\":1684:1688   */\n      0x20\n        /* \"#utility.yul\":1679:1682   */\n      dup3\n        /* \"#utility.yul\":1675:1689   */\n      add\n        /* \"#utility.yul\":1660:1689   */\n      swap1\n      pop\n        /* \"#utility.yul\":1490:1695   */\n      swap3\n      swap2\n      pop\n      pop\n      jump\t// out\n        /* \"#utility.yul\":1701:1854   */\n    tag_204:\n        /* \"#utility.yul\":1789:1793   */\n      0x00\n        /* \"#utility.yul\":1812:1815   */\n      dup2\n        /* \"#utility.yul\":1804:1815   */\n      swap1\n      pop\n        /* \"#utility.yul\":1842:1846   */\n      0x20\n        /* \"#utility.yul\":1837:1840   */\n      dup3\n        /* \"#utility.yul\":1833:1847   */\n      add\n        /* \"#utility.yul\":1825:1847   */\n      swap1\n      pop\n        /* \"#utility.yul\":1701:1854   */\n      swap2\n      swap1\n      pop\n      jump\t// out\n        /* \"#utility.yul\":1860:2019   */\n    tag_205:\n        /* \"#utility.yul\":1934:1945   */\n      0x00\n        /* \"#utility.yul\":1968:1974   */\n      dup3\n        /* \"#utility.yul\":1963:1966   */\n      dup3\n        /* \"#utility.yul\":1956:1975   */\n      mstore\n        /* \"#utility.yul\":2008:2012   */\n      0x20\n        /* \"#utility.yul\":2003:2006   */\n      dup3\n        /* \"#utility.yul\":1999:2013   */\n      add\n        /* \"#utility.yul\":1984:2013   */\n      swap1\n      pop\n        /* \"#utility.yul\":1860:2019   */\n      swap3\n      swap2\n      pop\n      pop\n      jump\t// out\n        /* \"#utility.yul\":2025:2382   */\n    tag_206:\n        /* \"#utility.yul\":2103:2106   */\n      0x00\n        /* \"#utility.yul\":2131:2170   */\n      tag_296\n        /* \"#utility.yul\":2164:2169   */\n      dup3\n        /* \"#utility.yul\":2131:2170   */\n      tag_197\n      jump\t// in\n    tag_296:\n        /* \"#utility.yul\":2186:2247   */\n      tag_297\n        /* \"#utility.yul\":2240:2246   */\n      dup2\n        /* \"#utility.yul\":2235:2238   */\n      dup6\n        /* \"#utility.yul\":2186:2247   */\n      tag_205\n      jump\t// in\n    tag_297:\n        /* \"#utility.yul\":2179:2247   */\n      swap4\n      pop\n        /* \"#utility.yul\":2256:2321   */\n      tag_298\n        /* \"#utility.yul\":2314:2320   */\n      dup2\n        /* \"#utility.yul\":2309:2312   */\n      dup6\n        /* \"#utility.yul\":2302:2306   */\n      0x20\n        /* \"#utility.yul\":2295:2300   */\n      dup7\n        /* \"#utility.yul\":2291:2307   */\n      add\n        /* \"#utility.yul\":2256:2321   */\n      tag_199\n      jump\t// in\n    tag_298:\n        /* \"#utility.yul\":2346:2375   */\n      tag_299\n        /* \"#utility.yul\":2368:2374   */\n      dup2\n        /* \"#utility.yul\":2346:2375   */\n      tag_200\n      jump\t// in\n    tag_299:\n        /* \"#utility.yul\":2341:2344   */\n      dup5\n        /* \"#utility.yul\":2337:2376   */\n      add\n        /* \"#utility.yul\":2330:2376   */\n      swap2\n      pop\n        /* \"#utility.yul\":2107:2382   */\n      pop\n        /* \"#utility.yul\":2025:2382   */\n      swap3\n      swap2\n      pop\n      pop\n      jump\t// out\n        /* \"#utility.yul\":2388:2465   */\n    tag_207:\n        /* \"#utility.yul\":2425:2432   */\n      0x00\n        /* \"#utility.yul\":2454:2459   */\n      dup2\n        /* \"#utility.yul\":2443:2459   */\n      swap1\n      pop\n        /* \"#utility.yul\":2388:2465   */\n      swap2\n      swap1\n      pop\n      jump\t// out\n        /* \"#utility.yul\":2471:2579   */\n    tag_208:\n        /* \"#utility.yul\":2548:2572   */\n      tag_302\n        /* \"#utility.yul\":2566:2571   */\n      dup2\n        /* \"#utility.yul\":2548:2572   */\n      tag_207\n      jump\t// in\n    tag_302:\n        /* \"#utility.yul\":2543:2546   */\n      dup3\n        /* \"#utility.yul\":2536:2573   */\n      mstore\n        /* \"#utility.yul\":2471:2579   */\n      pop\n      pop\n      jump\t// out\n        /* \"#utility.yul\":2585:2711   */\n    tag_209:\n        /* \"#utility.yul\":2622:2629   */\n      0x00\n        /* \"#utility.yul\":2662:2704   */\n      0xffffffffffffffffffffffffffffffffffffffff\n        /* \"#utility.yul\":2655:2660   */\n      dup3\n        /* \"#utility.yul\":2651:2705   */\n      and\n        /* \"#utility.yul\":2640:2705   */\n      swap1\n      pop\n        /* \"#utility.yul\":2585:2711   */\n      swap2\n      swap1\n      pop\n      jump\t// out\n        /* \"#utility.yul\":2717:2813   */\n    tag_210:\n        /* \"#utility.yul\":2754:2761   */\n      0x00\n        /* \"#utility.yul\":2783:2807   */\n      tag_305\n        /* \"#utility.yul\":2801:2806   */\n      dup3\n        /* \"#utility.yul\":2783:2807   */\n      tag_209\n      jump\t// in\n    tag_305:\n        /* \"#utility.yul\":2772:2807   */\n      swap1\n      pop\n        /* \"#utility.yul\":2717:2813   */\n      swap2\n      swap1\n      pop\n      jump\t// out\n        /* \"#utility.yul\":2819:2927   */\n    tag_211:\n        /* \"#utility.yul\":2896:2920   */\n      tag_307\n        /* \"#utility.yul\":2914:2919   */\n      dup2\n        /* \"#utility.yul\":2896:2920   */\n      tag_210\n      jump\t// in\n    tag_307:\n        /* \"#utility.yul\":2891:2894   */\n      dup3\n        /* \"#utility.yul\":2884:2921   */\n      mstore\n        /* \"#utility.yul\":2819:2927   */\n      pop\n      pop\n      jump\t// out\n        /* \"#utility.yul\":2979:4357   */\n    tag_212:\n        /* \"#utility.yul\":3080:3083   */\n      0x00\n        /* \"#utility.yul\":3116:3120   */\n      0xc0\n        /* \"#utility.yul\":3111:3114   */\n      dup4\n        /* \"#utility.yul\":3107:3121   */\n      add\n        /* \"#utility.yul\":3203:3207   */\n      0x00\n        /* \"#utility.yul\":3196:3201   */\n      dup4\n        /* \"#utility.yul\":3192:3208   */\n      add\n        /* \"#utility.yul\":3186:3209   */\n      mload\n        /* \"#utility.yul\":3256:3259   */\n      dup5\n        /* \"#utility.yul\":3250:3254   */\n      dup3\n        /* \"#utility.yul\":3246:3260   */\n      sub\n        /* \"#utility.yul\":3239:3243   */\n      0x00\n        /* \"#utility.yul\":3234:3237   */\n      dup7\n        /* \"#utility.yul\":3230:3244   */\n      add\n        /* \"#utility.yul\":3223:3261   */\n      mstore\n        /* \"#utility.yul\":3282:3355   */\n      tag_309\n        /* \"#utility.yul\":3350:3354   */\n      dup3\n        /* \"#utility.yul\":3336:3348   */\n      dup3\n        /* \"#utility.yul\":3282:3355   */\n      tag_206\n      jump\t// in\n    tag_309:\n        /* \"#utility.yul\":3274:3355   */\n      swap2\n      pop\n        /* \"#utility.yul\":3131:3366   */\n      pop\n        /* \"#utility.yul\":3447:3451   */\n      0x20\n        /* \"#utility.yul\":3440:3445   */\n      dup4\n        /* \"#utility.yul\":3436:3452   */\n      add\n        /* \"#utility.yul\":3430:3453   */\n      mload\n        /* \"#utility.yul\":3466:3529   */\n      tag_310\n        /* \"#utility.yul\":3523:3527   */\n      0x20\n        /* \"#utility.yul\":3518:3521   */\n      dup7\n        /* \"#utility.yul\":3514:3528   */\n      add\n        /* \"#utility.yul\":3500:3512   */\n      dup3\n        /* \"#utility.yul\":3466:3529   */\n      tag_208\n      jump\t// in\n    tag_310:\n        /* \"#utility.yul\":3376:3539   */\n      pop\n        /* \"#utility.yul\":3624:3628   */\n      0x40\n        /* \"#utility.yul\":3617:3622   */\n      dup4\n        /* \"#utility.yul\":3613:3629   */\n      add\n        /* \"#utility.yul\":3607:3630   */\n      mload\n        /* \"#utility.yul\":3643:3706   */\n      tag_311\n        /* \"#utility.yul\":3700:3704   */\n      0x40\n        /* \"#utility.yul\":3695:3698   */\n      dup7\n        /* \"#utility.yul\":3691:3705   */\n      add\n        /* \"#utility.yul\":3677:3689   */\n      dup3\n        /* \"#utility.yul\":3643:3706   */\n      tag_208\n      jump\t// in\n    tag_311:\n        /* \"#utility.yul\":3549:3716   */\n      pop\n        /* \"#utility.yul\":3800:3804   */\n      0x60\n        /* \"#utility.yul\":3793:3798   */\n      dup4\n        /* \"#utility.yul\":3789:3805   */\n      add\n        /* \"#utility.yul\":3783:3806   */\n      mload\n        /* \"#utility.yul\":3853:3856   */\n      dup5\n        /* \"#utility.yul\":3847:3851   */\n      dup3\n        /* \"#utility.yul\":3843:3857   */\n      sub\n        /* \"#utility.yul\":3836:3840   */\n      0x60\n        /* \"#utility.yul\":3831:3834   */\n      dup7\n        /* \"#utility.yul\":3827:3841   */\n      add\n        /* \"#utility.yul\":3820:3858   */\n      mstore\n        /* \"#utility.yul\":3879:3952   */\n      tag_312\n        /* \"#utility.yul\":3947:3951   */\n      dup3\n        /* \"#utility.yul\":3933:3945   */\n      dup3\n        /* \"#utility.yul\":3879:3952   */\n      tag_206\n      jump\t// in\n    tag_312:\n        /* \"#utility.yul\":3871:3952   */\n      swap2\n      pop\n        /* \"#utility.yul\":3726:3963   */\n      pop\n        /* \"#utility.yul\":4056:4060   */\n      0x80\n        /* \"#utility.yul\":4049:4054   */\n      dup4\n        /* \"#utility.yul\":4045:4061   */\n      add\n        /* \"#utility.yul\":4039:4062   */\n      mload\n        /* \"#utility.yul\":4075:4138   */\n      tag_313\n        /* \"#utility.yul\":4132:4136   */\n      0x80\n        /* \"#utility.yul\":4127:4130   */\n      dup7\n        /* \"#utility.yul\":4123:4137   */\n      add\n        /* \"#utility.yul\":4109:4121   */\n      dup3\n        /* \"#utility.yul\":4075:4138   */\n      tag_208\n      jump\t// in\n    tag_313:\n        /* \"#utility.yul\":3973:4148   */\n      pop\n        /* \"#utility.yul\":4238:4242   */\n      0xa0\n        /* \"#utility.yul\":4231:4236   */\n      dup4\n        /* \"#utility.yul\":4227:4243   */\n      add\n        /* \"#utility.yul\":4221:4244   */\n      mload\n        /* \"#utility.yul\":4257:4320   */\n      tag_314\n        /* \"#utility.yul\":4314:4318   */\n      0xa0\n        /* \"#utility.yul\":4309:4312   */\n      dup7\n        /* \"#utility.yul\":4305:4319   */\n      add\n        /* \"#utility.yul\":4291:4303   */\n      dup3\n        /* \"#utility.yul\":4257:4320   */\n      tag_211\n      jump\t// in\n    tag_314:\n        /* \"#utility.yul\":4158:4330   */\n      pop\n        /* \"#utility.yul\":4347:4351   */\n      dup1\n        /* \"#utility.yul\":4340:4351   */\n      swap2\n      pop\n        /* \"#utility.yul\":3085:4357   */\n      pop\n        /* \"#utility.yul\":2979:4357   */\n      swap3\n      swap2\n      pop\n      pop\n      jump\t// out\n        /* \"#utility.yul\":4363:4603   */\n    tag_213:\n        /* \"#utility.yul\":4474:4484   */\n      0x00\n        /* \"#utility.yul\":4509:4597   */\n      tag_316\n        /* \"#utility.yul\":4593:4596   */\n      dup4\n        /* \"#utility.yul\":4585:4591   */\n      dup4\n        /* \"#utility.yul\":4509:4597   */\n      tag_212\n      jump\t// in\n    tag_316:\n        /* \"#utility.yul\":4495:4597   */\n      swap1\n      pop\n        /* \"#utility.yul\":4363:4603   */\n      swap3\n      swap2\n      pop\n      pop\n      jump\t// out\n        /* \"#utility.yul\":4609:4743   */\n    tag_214:\n        /* \"#utility.yul\":4700:4704   */\n      0x00\n        /* \"#utility.yul\":4732:4736   */\n      0x20\n        /* \"#utility.yul\":4727:4730   */\n      dup3\n        /* \"#utility.yul\":4723:4737   */\n      add\n        /* \"#utility.yul\":4715:4737   */\n      swap1\n      pop\n        /* \"#utility.yul\":4609:4743   */\n      swap2\n      swap1\n      pop\n      jump\t// out\n        /* \"#utility.yul\":4799:5878   */\n    tag_215:\n        /* \"#utility.yul\":4960:4963   */\n      0x00\n        /* \"#utility.yul\":4989:5064   */\n      tag_319\n        /* \"#utility.yul\":5058:5063   */\n      dup3\n        /* \"#utility.yul\":4989:5064   */\n      tag_202\n      jump\t// in\n    tag_319:\n        /* \"#utility.yul\":5080:5187   */\n      tag_320\n        /* \"#utility.yul\":5180:5186   */\n      dup2\n        /* \"#utility.yul\":5175:5178   */\n      dup6\n        /* \"#utility.yul\":5080:5187   */\n      tag_203\n      jump\t// in\n    tag_320:\n        /* \"#utility.yul\":5073:5187   */\n      swap4\n      pop\n        /* \"#utility.yul\":5213:5216   */\n      dup4\n        /* \"#utility.yul\":5258:5262   */\n      0x20\n        /* \"#utility.yul\":5250:5256   */\n      dup3\n        /* \"#utility.yul\":5246:5263   */\n      mul\n        /* \"#utility.yul\":5241:5244   */\n      dup6\n        /* \"#utility.yul\":5237:5264   */\n      add\n        /* \"#utility.yul\":5288:5365   */\n      tag_321\n        /* \"#utility.yul\":5359:5364   */\n      dup6\n        /* \"#utility.yul\":5288:5365   */\n      tag_204\n      jump\t// in\n    tag_321:\n        /* \"#utility.yul\":5388:5395   */\n      dup1\n        /* \"#utility.yul\":5419:5420   */\n      0x00\n        /* \"#utility.yul\":5404:5833   */\n    tag_322:\n        /* \"#utility.yul\":5429:5435   */\n      dup6\n        /* \"#utility.yul\":5426:5427   */\n      dup2\n        /* \"#utility.yul\":5423:5436   */\n      lt\n        /* \"#utility.yul\":5404:5833   */\n      iszero\n      tag_324\n      jumpi\n        /* \"#utility.yul\":5500:5509   */\n      dup5\n        /* \"#utility.yul\":5494:5498   */\n      dup5\n        /* \"#utility.yul\":5490:5510   */\n      sub\n        /* \"#utility.yul\":5485:5488   */\n      dup10\n        /* \"#utility.yul\":5478:5511   */\n      mstore\n        /* \"#utility.yul\":5551:5557   */\n      dup2\n        /* \"#utility.yul\":5545:5558   */\n      mload\n        /* \"#utility.yul\":5579:5685   */\n      tag_325\n        /* \"#utility.yul\":5680:5684   */\n      dup6\n        /* \"#utility.yul\":5665:5678   */\n      dup3\n        /* \"#utility.yul\":5579:5685   */\n      tag_213\n      jump\t// in\n    tag_325:\n        /* \"#utility.yul\":5571:5685   */\n      swap5\n      pop\n        /* \"#utility.yul\":5708:5789   */\n      tag_326\n        /* \"#utility.yul\":5782:5788   */\n      dup4\n        /* \"#utility.yul\":5708:5789   */\n      tag_214\n      jump\t// in\n    tag_326:\n        /* \"#utility.yul\":5698:5789   */\n      swap3\n      pop\n        /* \"#utility.yul\":5818:5822   */\n      0x20\n        /* \"#utility.yul\":5813:5816   */\n      dup11\n        /* \"#utility.yul\":5809:5823   */\n      add\n        /* \"#utility.yul\":5802:5823   */\n      swap10\n      pop\n        /* \"#utility.yul\":5464:5833   */\n      pop\n        /* \"#utility.yul\":5451:5452   */\n      0x01\n        /* \"#utility.yul\":5448:5449   */\n      dup2\n        /* \"#utility.yul\":5444:5453   */\n      add\n        /* \"#utility.yul\":5439:5453   */\n      swap1\n      pop\n        /* \"#utility.yul\":5404:5833   */\n      jump(tag_322)\n    tag_324:\n        /* \"#utility.yul\":5408:5422   */\n      pop\n        /* \"#utility.yul\":5849:5853   */\n      dup3\n        /* \"#utility.yul\":5842:5853   */\n      swap8\n      pop\n        /* \"#utility.yul\":5869:5872   */\n      dup8\n        /* \"#utility.yul\":5862:5872   */\n      swap6\n      pop\n        /* \"#utility.yul\":4965:5878   */\n      pop\n      pop\n      pop\n      pop\n      pop\n        /* \"#utility.yul\":4799:5878   */\n      swap3\n      swap2\n      pop\n      pop\n      jump\t// out\n        /* \"#utility.yul\":5884:6341   */\n    tag_21:\n        /* \"#utility.yul\":6069:6073   */\n      0x00\n        /* \"#utility.yul\":6107:6109   */\n      0x20\n        /* \"#utility.yul\":6096:6105   */\n      dup3\n        /* \"#utility.yul\":6092:6110   */\n      add\n        /* \"#utility.yul\":6084:6110   */\n      swap1\n      pop\n        /* \"#utility.yul\":6156:6165   */\n      dup2\n        /* \"#utility.yul\":6150:6154   */\n      dup2\n        /* \"#utility.yul\":6146:6166   */\n      sub\n        /* \"#utility.yul\":6142:6143   */\n      0x00\n        /* \"#utility.yul\":6131:6140   */\n      dup4\n        /* \"#utility.yul\":6127:6144   */\n      add\n        /* \"#utility.yul\":6120:6167   */\n      mstore\n        /* \"#utility.yul\":6184:6334   */\n      tag_328\n        /* \"#utility.yul\":6329:6333   */\n      dup2\n        /* \"#utility.yul\":6320:6326   */\n      dup5\n        /* \"#utility.yul\":6184:6334   */\n      tag_215\n      jump\t// in\n    tag_328:\n        /* \"#utility.yul\":6176:6334   */\n      swap1\n      pop\n        /* \"#utility.yul\":5884:6341   */\n      swap3\n      swap2\n      pop\n      pop\n      jump\t// out\n        /* \"#utility.yul\":6347:6486   */\n    tag_216:\n        /* \"#utility.yul\":6439:6445   */\n      0x00\n        /* \"#utility.yul\":6473:6478   */\n      dup2\n        /* \"#utility.yul\":6467:6479   */\n      mload\n        /* \"#utility.yul\":6457:6479   */\n      swap1\n      pop\n        /* \"#utility.yul\":6347:6486   */\n      swap2\n      swap1\n      pop\n      jump\t// out\n        /* \"#utility.yul\":6492:6701   */\n    tag_217:\n        /* \"#utility.yul\":6616:6627   */\n      0x00\n        /* \"#utility.yul\":6650:6656   */\n      dup3\n        /* \"#utility.yul\":6645:6648   */\n      dup3\n        /* \"#utility.yul\":6638:6657   */\n      mstore\n        /* \"#utility.yul\":6690:6694   */\n      0x20\n        /* \"#utility.yul\":6685:6688   */\n      dup3\n        /* \"#utility.yul\":6681:6695   */\n      add\n        /* \"#utility.yul\":6666:6695   */\n      swap1\n      pop\n        /* \"#utility.yul\":6492:6701   */\n      swap3\n      swap2\n      pop\n      pop\n      jump\t// out\n        /* \"#utility.yul\":6707:6864   */\n    tag_218:\n        /* \"#utility.yul\":6799:6803   */\n      0x00\n        /* \"#utility.yul\":6822:6825   */\n      dup2\n        /* \"#utility.yul\":6814:6825   */\n      swap1\n      pop\n        /* \"#utility.yul\":6852:6856   */\n      0x20\n        /* \"#utility.yul\":6847:6850   */\n      dup3\n        /* \"#utility.yul\":6843:6857   */\n      add\n        /* \"#utility.yul\":6835:6857   */\n      swap1\n      pop\n        /* \"#utility.yul\":6707:6864   */\n      swap2\n      swap1\n      pop\n      jump\t// out\n        /* \"#utility.yul\":6924:8554   */\n    tag_219:\n        /* \"#utility.yul\":7033:7036   */\n      0x00\n        /* \"#utility.yul\":7069:7073   */\n      0xe0\n        /* \"#utility.yul\":7064:7067   */\n      dup4\n        /* \"#utility.yul\":7060:7074   */\n      add\n        /* \"#utility.yul\":7156:7160   */\n      0x00\n        /* \"#utility.yul\":7149:7154   */\n      dup4\n        /* \"#utility.yul\":7145:7161   */\n      add\n        /* \"#utility.yul\":7139:7162   */\n      mload\n        /* \"#utility.yul\":7209:7212   */\n      dup5\n        /* \"#utility.yul\":7203:7207   */\n      dup3\n        /* \"#utility.yul\":7199:7213   */\n      sub\n        /* \"#utility.yul\":7192:7196   */\n      0x00\n        /* \"#utility.yul\":7187:7190   */\n      dup7\n        /* \"#utility.yul\":7183:7197   */\n      add\n        /* \"#utility.yul\":7176:7214   */\n      mstore\n        /* \"#utility.yul\":7235:7308   */\n      tag_333\n        /* \"#utility.yul\":7303:7307   */\n      dup3\n        /* \"#utility.yul\":7289:7301   */\n      dup3\n        /* \"#utility.yul\":7235:7308   */\n      tag_206\n      jump\t// in\n    tag_333:\n        /* \"#utility.yul\":7227:7308   */\n      swap2\n      pop\n        /* \"#utility.yul\":7084:7319   */\n      pop\n        /* \"#utility.yul\":7402:7406   */\n      0x20\n        /* \"#utility.yul\":7395:7400   */\n      dup4\n        /* \"#utility.yul\":7391:7407   */\n      add\n        /* \"#utility.yul\":7385:7408   */\n      mload\n        /* \"#utility.yul\":7455:7458   */\n      dup5\n        /* \"#utility.yul\":7449:7453   */\n      dup3\n        /* \"#utility.yul\":7445:7459   */\n      sub\n        /* \"#utility.yul\":7438:7442   */\n      0x20\n        /* \"#utility.yul\":7433:7436   */\n      dup7\n        /* \"#utility.yul\":7429:7443   */\n      add\n        /* \"#utility.yul\":7422:7460   */\n      mstore\n        /* \"#utility.yul\":7481:7554   */\n      tag_334\n        /* \"#utility.yul\":7549:7553   */\n      dup3\n        /* \"#utility.yul\":7535:7547   */\n      dup3\n        /* \"#utility.yul\":7481:7554   */\n      tag_206\n      jump\t// in\n    tag_334:\n        /* \"#utility.yul\":7473:7554   */\n      swap2\n      pop\n        /* \"#utility.yul\":7329:7565   */\n      pop\n        /* \"#utility.yul\":7646:7650   */\n      0x40\n        /* \"#utility.yul\":7639:7644   */\n      dup4\n        /* \"#utility.yul\":7635:7651   */\n      add\n        /* \"#utility.yul\":7629:7652   */\n      mload\n        /* \"#utility.yul\":7665:7728   */\n      tag_335\n        /* \"#utility.yul\":7722:7726   */\n      0x40\n        /* \"#utility.yul\":7717:7720   */\n      dup7\n        /* \"#utility.yul\":7713:7727   */\n      add\n        /* \"#utility.yul\":7699:7711   */\n      dup3\n        /* \"#utility.yul\":7665:7728   */\n      tag_208\n      jump\t// in\n    tag_335:\n        /* \"#utility.yul\":7575:7738   */\n      pop\n        /* \"#utility.yul\":7822:7826   */\n      0x60\n        /* \"#utility.yul\":7815:7820   */\n      dup4\n        /* \"#utility.yul\":7811:7827   */\n      add\n        /* \"#utility.yul\":7805:7828   */\n      mload\n        /* \"#utility.yul\":7875:7878   */\n      dup5\n        /* \"#utility.yul\":7869:7873   */\n      dup3\n        /* \"#utility.yul\":7865:7879   */\n      sub\n        /* \"#utility.yul\":7858:7862   */\n      0x60\n        /* \"#utility.yul\":7853:7856   */\n      dup7\n        /* \"#utility.yul\":7849:7863   */\n      add\n        /* \"#utility.yul\":7842:7880   */\n      mstore\n        /* \"#utility.yul\":7901:7974   */\n      tag_336\n        /* \"#utility.yul\":7969:7973   */\n      dup3\n        /* \"#utility.yul\":7955:7967   */\n      dup3\n        /* \"#utility.yul\":7901:7974   */\n      tag_206\n      jump\t// in\n    tag_336:\n        /* \"#utility.yul\":7893:7974   */\n      swap2\n      pop\n        /* \"#utility.yul\":7748:7985   */\n      pop\n        /* \"#utility.yul\":8074:8078   */\n      0x80\n        /* \"#utility.yul\":8067:8072   */\n      dup4\n        /* \"#utility.yul\":8063:8079   */\n      add\n        /* \"#utility.yul\":8057:8080   */\n      mload\n        /* \"#utility.yul\":8093:8156   */\n      tag_337\n        /* \"#utility.yul\":8150:8154   */\n      0x80\n        /* \"#utility.yul\":8145:8148   */\n      dup7\n        /* \"#utility.yul\":8141:8155   */\n      add\n        /* \"#utility.yul\":8127:8139   */\n      dup3\n        /* \"#utility.yul\":8093:8156   */\n      tag_208\n      jump\t// in\n    tag_337:\n        /* \"#utility.yul\":7995:8166   */\n      pop\n        /* \"#utility.yul\":8260:8264   */\n      0xa0\n        /* \"#utility.yul\":8253:8258   */\n      dup4\n        /* \"#utility.yul\":8249:8265   */\n      add\n        /* \"#utility.yul\":8243:8266   */\n      mload\n        /* \"#utility.yul\":8279:8342   */\n      tag_338\n        /* \"#utility.yul\":8336:8340   */\n      0xa0\n        /* \"#utility.yul\":8331:8334   */\n      dup7\n        /* \"#utility.yul\":8327:8341   */\n      add\n        /* \"#utility.yul\":8313:8325   */\n      dup3\n        /* \"#utility.yul\":8279:8342   */\n      tag_211\n      jump\t// in\n    tag_338:\n        /* \"#utility.yul\":8176:8352   */\n      pop\n        /* \"#utility.yul\":8435:8439   */\n      0xc0\n        /* \"#utility.yul\":8428:8433   */\n      dup4\n        /* \"#utility.yul\":8424:8440   */\n      add\n        /* \"#utility.yul\":8418:8441   */\n      mload\n        /* \"#utility.yul\":8454:8517   */\n      tag_339\n        /* \"#utility.yul\":8511:8515   */\n      0xc0\n        /* \"#utility.yul\":8506:8509   */\n      dup7\n        /* \"#utility.yul\":8502:8516   */\n      add\n        /* \"#utility.yul\":8488:8500   */\n      dup3\n        /* \"#utility.yul\":8454:8517   */\n      tag_208\n      jump\t// in\n    tag_339:\n        /* \"#utility.yul\":8362:8527   */\n      pop\n        /* \"#utility.yul\":8544:8548   */\n      dup1\n        /* \"#utility.yul\":8537:8548   */\n      swap2\n      pop\n        /* \"#utility.yul\":7038:8554   */\n      pop\n        /* \"#utility.yul\":6924:8554   */\n      swap3\n      swap2\n      pop\n      pop\n      jump\t// out\n        /* \"#utility.yul\":8560:8816   */\n    tag_220:\n        /* \"#utility.yul\":8679:8689   */\n      0x00\n        /* \"#utility.yul\":8714:8810   */\n      tag_341\n        /* \"#utility.yul\":8806:8809   */\n      dup4\n        /* \"#utility.yul\":8798:8804   */\n      dup4\n        /* \"#utility.yul\":8714:8810   */\n      tag_219\n      jump\t// in\n    tag_341:\n        /* \"#utility.yul\":8700:8810   */\n      swap1\n      pop\n        /* \"#utility.yul\":8560:8816   */\n      swap3\n      swap2\n      pop\n      pop\n      jump\t// out\n        /* \"#utility.yul\":8822:8960   */\n    tag_221:\n        /* \"#utility.yul\":8917:8921   */\n      0x00\n        /* \"#utility.yul\":8949:8953   */\n      0x20\n        /* \"#utility.yul\":8944:8947   */\n      dup3\n        /* \"#utility.yul\":8940:8954   */\n      add\n        /* \"#utility.yul\":8932:8954   */\n      swap1\n      pop\n        /* \"#utility.yul\":8822:8960   */\n      swap2\n      swap1\n      pop\n      jump\t// out\n        /* \"#utility.yul\":9024:10135   */\n    tag_222:\n        /* \"#utility.yul\":9193:9196   */\n      0x00\n        /* \"#utility.yul\":9222:9301   */\n      tag_344\n        /* \"#utility.yul\":9295:9300   */\n      dup3\n        /* \"#utility.yul\":9222:9301   */\n      tag_216\n      jump\t// in\n    tag_344:\n        /* \"#utility.yul\":9317:9428   */\n      tag_345\n        /* \"#utility.yul\":9421:9427   */\n      dup2\n        /* \"#utility.yul\":9416:9419   */\n      dup6\n        /* \"#utility.yul\":9317:9428   */\n      tag_217\n      jump\t// in\n    tag_345:\n        /* \"#utility.yul\":9310:9428   */\n      swap4\n      pop\n        /* \"#utility.yul\":9454:9457   */\n      dup4\n        /* \"#utility.yul\":9499:9503   */\n      0x20\n        /* \"#utility.yul\":9491:9497   */\n      dup3\n        /* \"#utility.yul\":9487:9504   */\n      mul\n        /* \"#utility.yul\":9482:9485   */\n      dup6\n        /* \"#utility.yul\":9478:9505   */\n      add\n        /* \"#utility.yul\":9529:9610   */\n      tag_346\n        /* \"#utility.yul\":9604:9609   */\n      dup6\n        /* \"#utility.yul\":9529:9610   */\n      tag_218\n      jump\t// in\n    tag_346:\n        /* \"#utility.yul\":9633:9640   */\n      dup1\n        /* \"#utility.yul\":9664:9665   */\n      0x00\n        /* \"#utility.yul\":9649:10090   */\n    tag_347:\n        /* \"#utility.yul\":9674:9680   */\n      dup6\n        /* \"#utility.yul\":9671:9672   */\n      dup2\n        /* \"#utility.yul\":9668:9681   */\n      lt\n        /* \"#utility.yul\":9649:10090   */\n      iszero\n      tag_349\n      jumpi\n        /* \"#utility.yul\":9745:9754   */\n      dup5\n        /* \"#utility.yul\":9739:9743   */\n      dup5\n        /* \"#utility.yul\":9735:9755   */\n      sub\n        /* \"#utility.yul\":9730:9733   */\n      dup10\n        /* \"#utility.yul\":9723:9756   */\n      mstore\n        /* \"#utility.yul\":9796:9802   */\n      dup2\n        /* \"#utility.yul\":9790:9803   */\n      mload\n        /* \"#utility.yul\":9824:9938   */\n      tag_350\n        /* \"#utility.yul\":9933:9937   */\n      dup6\n        /* \"#utility.yul\":9918:9931   */\n      dup3\n        /* \"#utility.yul\":9824:9938   */\n      tag_220\n      jump\t// in\n    tag_350:\n        /* \"#utility.yul\":9816:9938   */\n      swap5\n      pop\n        /* \"#utility.yul\":9961:10046   */\n      tag_351\n        /* \"#utility.yul\":10039:10045   */\n      dup4\n        /* \"#utility.yul\":9961:10046   */\n      tag_221\n      jump\t// in\n    tag_351:\n        /* \"#utility.yul\":9951:10046   */\n      swap3\n      pop\n        /* \"#utility.yul\":10075:10079   */\n      0x20\n        /* \"#utility.yul\":10070:10073   */\n      dup11\n        /* \"#utility.yul\":10066:10080   */\n      add\n        /* \"#utility.yul\":10059:10080   */\n      swap10\n      pop\n        /* \"#utility.yul\":9709:10090   */\n      pop\n        /* \"#utility.yul\":9696:9697   */\n      0x01\n        /* \"#utility.yul\":9693:9694   */\n      dup2\n        /* \"#utility.yul\":9689:9698   */\n      add\n        /* \"#utility.yul\":9684:9698   */\n      swap1\n      pop\n        /* \"#utility.yul\":9649:10090   */\n      jump(tag_347)\n    tag_349:\n        /* \"#utility.yul\":9653:9667   */\n      pop\n        /* \"#utility.yul\":10106:10110   */\n      dup3\n        /* \"#utility.yul\":10099:10110   */\n      swap8\n      pop\n        /* \"#utility.yul\":10126:10129   */\n      dup8\n        /* \"#utility.yul\":10119:10129   */\n      swap6\n      pop\n        /* \"#utility.yul\":9198:10135   */\n      pop\n      pop\n      pop\n      pop\n      pop\n        /* \"#utility.yul\":9024:10135   */\n      swap3\n      swap2\n      pop\n      pop\n      jump\t// out\n        /* \"#utility.yul\":10141:10614   */\n    tag_25:\n        /* \"#utility.yul\":10334:10338   */\n      0x00\n        /* \"#utility.yul\":10372:10374   */\n      0x20\n        /* \"#utility.yul\":10361:10370   */\n      dup3\n        /* \"#utility.yul\":10357:10375   */\n      add\n        /* \"#utility.yul\":10349:10375   */\n      swap1\n      pop\n        /* \"#utility.yul\":10421:10430   */\n      dup2\n        /* \"#utility.yul\":10415:10419   */\n      dup2\n        /* \"#utility.yul\":10411:10431   */\n      sub\n        /* \"#utility.yul\":10407:10408   */\n      0x00\n        /* \"#utility.yul\":10396:10405   */\n      dup4\n        /* \"#utility.yul\":10392:10409   */\n      add\n        /* \"#utility.yul\":10385:10432   */\n      mstore\n        /* \"#utility.yul\":10449:10607   */\n      tag_353\n        /* \"#utility.yul\":10602:10606   */\n      dup2\n        /* \"#utility.yul\":10593:10599   */\n      dup5\n        /* \"#utility.yul\":10449:10607   */\n      tag_222\n      jump\t// in\n    tag_353:\n        /* \"#utility.yul\":10441:10607   */\n      swap1\n      pop\n        /* \"#utility.yul\":10141:10614   */\n      swap3\n      swap2\n      pop\n      pop\n      jump\t// out\n        /* \"#utility.yul\":10701:10818   */\n    tag_224:\n        /* \"#utility.yul\":10810:10811   */\n      0x00\n        /* \"#utility.yul\":10807:10808   */\n      dup1\n        /* \"#utility.yul\":10800:10812   */\n      revert\n        /* \"#utility.yul\":10824:10941   */\n    tag_225:\n        /* \"#utility.yul\":10933:10934   */\n      0x00\n        /* \"#utility.yul\":10930:10931   */\n      dup1\n        /* \"#utility.yul\":10923:10935   */\n      revert\n        /* \"#utility.yul\":10947:11069   */\n    tag_226:\n        /* \"#utility.yul\":11020:11044   */\n      tag_358\n        /* \"#utility.yul\":11038:11043   */\n      dup2\n        /* \"#utility.yul\":11020:11044   */\n      tag_207\n      jump\t// in\n    tag_358:\n        /* \"#utility.yul\":11013:11018   */\n      dup2\n        /* \"#utility.yul\":11010:11045   */\n      eq\n        /* \"#utility.yul\":11000:11063   */\n      tag_359\n      jumpi\n        /* \"#utility.yul\":11059:11060   */\n      0x00\n        /* \"#utility.yul\":11056:11057   */\n      dup1\n        /* \"#utility.yul\":11049:11061   */\n      revert\n        /* \"#utility.yul\":11000:11063   */\n    tag_359:\n        /* \"#utility.yul\":10947:11069   */\n      pop\n      jump\t// out\n        /* \"#utility.yul\":11075:11214   */\n    tag_227:\n        /* \"#utility.yul\":11121:11126   */\n      0x00\n        /* \"#utility.yul\":11159:11165   */\n      dup2\n        /* \"#utility.yul\":11146:11166   */\n      calldataload\n        /* \"#utility.yul\":11137:11166   */\n      swap1\n      pop\n        /* \"#utility.yul\":11175:11208   */\n      tag_361\n        /* \"#utility.yul\":11202:11207   */\n      dup2\n        /* \"#utility.yul\":11175:11208   */\n      tag_226\n      jump\t// in\n    tag_361:\n        /* \"#utility.yul\":11075:11214   */\n      swap3\n      swap2\n      pop\n      pop\n      jump\t// out\n        /* \"#utility.yul\":11220:11694   */\n    tag_30:\n        /* \"#utility.yul\":11288:11294   */\n      0x00\n        /* \"#utility.yul\":11296:11302   */\n      dup1\n        /* \"#utility.yul\":11345:11347   */\n      0x40\n        /* \"#utility.yul\":11333:11342   */\n      dup4\n        /* \"#utility.yul\":11324:11331   */\n      dup6\n        /* \"#utility.yul\":11320:11343   */\n      sub\n        /* \"#utility.yul\":11316:11348   */\n      slt\n        /* \"#utility.yul\":11313:11432   */\n      iszero\n      tag_363\n      jumpi\n        /* \"#utility.yul\":11351:11430   */\n      tag_364\n      tag_224\n      jump\t// in\n    tag_364:\n        /* \"#utility.yul\":11313:11432   */\n    tag_363:\n        /* \"#utility.yul\":11471:11472   */\n      0x00\n        /* \"#utility.yul\":11496:11549   */\n      tag_365\n        /* \"#utility.yul\":11541:11548   */\n      dup6\n        /* \"#utility.yul\":11532:11538   */\n      dup3\n        /* \"#utility.yul\":11521:11530   */\n      dup7\n        /* \"#utility.yul\":11517:11539   */\n      add\n        /* \"#utility.yul\":11496:11549   */\n      tag_227\n      jump\t// in\n    tag_365:\n        /* \"#utility.yul\":11486:11549   */\n      swap3\n      pop\n        /* \"#utility.yul\":11442:11559   */\n      pop\n        /* \"#utility.yul\":11598:11600   */\n      0x20\n        /* \"#utility.yul\":11624:11677   */\n      tag_366\n        /* \"#utility.yul\":11669:11676   */\n      dup6\n        /* \"#utility.yul\":11660:11666   */\n      dup3\n        /* \"#utility.yul\":11649:11658   */\n      dup7\n        /* \"#utility.yul\":11645:11667   */\n      add\n        /* \"#utility.yul\":11624:11677   */\n      tag_227\n      jump\t// in\n    tag_366:\n        /* \"#utility.yul\":11614:11677   */\n      swap2\n      pop\n        /* \"#utility.yul\":11569:11687   */\n      pop\n        /* \"#utility.yul\":11220:11694   */\n      swap3\n      pop\n      swap3\n      swap1\n      pop\n      jump\t// out\n        /* \"#utility.yul\":11700:11817   */\n    tag_228:\n        /* \"#utility.yul\":11809:11810   */\n      0x00\n        /* \"#utility.yul\":11806:11807   */\n      dup1\n        /* \"#utility.yul\":11799:11811   */\n      revert\n        /* \"#utility.yul\":11823:11940   */\n    tag_229:\n        /* \"#utility.yul\":11932:11933   */\n      0x00\n        /* \"#utility.yul\":11929:11930   */\n      dup1\n        /* \"#utility.yul\":11922:11934   */\n      revert\n        /* \"#utility.yul\":11946:12063   */\n    tag_230:\n        /* \"#utility.yul\":12055:12056   */\n      0x00\n        /* \"#utility.yul\":12052:12053   */\n      dup1\n        /* \"#utility.yul\":12045:12057   */\n      revert\n        /* \"#utility.yul\":12083:12636   */\n    tag_231:\n        /* \"#utility.yul\":12141:12149   */\n      0x00\n        /* \"#utility.yul\":12151:12157   */\n      dup1\n        /* \"#utility.yul\":12201:12204   */\n      dup4\n        /* \"#utility.yul\":12194:12198   */\n      0x1f\n        /* \"#utility.yul\":12186:12192   */\n      dup5\n        /* \"#utility.yul\":12182:12199   */\n      add\n        /* \"#utility.yul\":12178:12205   */\n      slt\n        /* \"#utility.yul\":12168:12290   */\n      tag_371\n      jumpi\n        /* \"#utility.yul\":12209:12288   */\n      tag_372\n      tag_228\n      jump\t// in\n    tag_372:\n        /* \"#utility.yul\":12168:12290   */\n    tag_371:\n        /* \"#utility.yul\":12322:12328   */\n      dup3\n        /* \"#utility.yul\":12309:12329   */\n      calldataload\n        /* \"#utility.yul\":12299:12329   */\n      swap1\n      pop\n        /* \"#utility.yul\":12352:12370   */\n      0xffffffffffffffff\n        /* \"#utility.yul\":12344:12350   */\n      dup2\n        /* \"#utility.yul\":12341:12371   */\n      gt\n        /* \"#utility.yul\":12338:12455   */\n      iszero\n      tag_373\n      jumpi\n        /* \"#utility.yul\":12374:12453   */\n      tag_374\n      tag_229\n      jump\t// in\n    tag_374:\n        /* \"#utility.yul\":12338:12455   */\n    tag_373:\n        /* \"#utility.yul\":12488:12492   */\n      0x20\n        /* \"#utility.yul\":12480:12486   */\n      dup4\n        /* \"#utility.yul\":12476:12493   */\n      add\n        /* \"#utility.yul\":12464:12493   */\n      swap2\n      pop\n        /* \"#utility.yul\":12542:12545   */\n      dup4\n        /* \"#utility.yul\":12534:12538   */\n      0x01\n        /* \"#utility.yul\":12526:12532   */\n      dup3\n        /* \"#utility.yul\":12522:12539   */\n      mul\n        /* \"#utility.yul\":12512:12520   */\n      dup4\n        /* \"#utility.yul\":12508:12540   */\n      add\n        /* \"#utility.yul\":12505:12546   */\n      gt\n        /* \"#utility.yul\":12502:12630   */\n      iszero\n      tag_375\n      jumpi\n        /* \"#utility.yul\":12549:12628   */\n      tag_376\n      tag_230\n      jump\t// in\n    tag_376:\n        /* \"#utility.yul\":12502:12630   */\n    tag_375:\n        /* \"#utility.yul\":12083:12636   */\n      swap3\n      pop\n      swap3\n      swap1\n      pop\n      jump\t// out\n        /* \"#utility.yul\":12642:13661   */\n    tag_34:\n        /* \"#utility.yul\":12743:12749   */\n      0x00\n        /* \"#utility.yul\":12751:12757   */\n      dup1\n        /* \"#utility.yul\":12759:12765   */\n      0x00\n        /* \"#utility.yul\":12767:12773   */\n      dup1\n        /* \"#utility.yul\":12775:12781   */\n      0x00\n        /* \"#utility.yul\":12824:12826   */\n      0x60\n        /* \"#utility.yul\":12812:12821   */\n      dup7\n        /* \"#utility.yul\":12803:12810   */\n      dup9\n        /* \"#utility.yul\":12799:12822   */\n      sub\n        /* \"#utility.yul\":12795:12827   */\n      slt\n        /* \"#utility.yul\":12792:12911   */\n      iszero\n      tag_378\n      jumpi\n        /* \"#utility.yul\":12830:12909   */\n      tag_379\n      tag_224\n      jump\t// in\n    tag_379:\n        /* \"#utility.yul\":12792:12911   */\n    tag_378:\n        /* \"#utility.yul\":12978:12979   */\n      0x00\n        /* \"#utility.yul\":12967:12976   */\n      dup7\n        /* \"#utility.yul\":12963:12980   */\n      add\n        /* \"#utility.yul\":12950:12981   */\n      calldataload\n        /* \"#utility.yul\":13008:13026   */\n      0xffffffffffffffff\n        /* \"#utility.yul\":13000:13006   */\n      dup2\n        /* \"#utility.yul\":12997:13027   */\n      gt\n        /* \"#utility.yul\":12994:13111   */\n      iszero\n      tag_380\n      jumpi\n        /* \"#utility.yul\":13030:13109   */\n      tag_381\n      tag_225\n      jump\t// in\n    tag_381:\n        /* \"#utility.yul\":12994:13111   */\n    tag_380:\n        /* \"#utility.yul\":13143:13208   */\n      tag_382\n        /* \"#utility.yul\":13200:13207   */\n      dup9\n        /* \"#utility.yul\":13191:13197   */\n      dup3\n        /* \"#utility.yul\":13180:13189   */\n      dup10\n        /* \"#utility.yul\":13176:13198   */\n      add\n        /* \"#utility.yul\":13143:13208   */\n      tag_231\n      jump\t// in\n    tag_382:\n        /* \"#utility.yul\":13125:13208   */\n      swap6\n      pop\n      swap6\n      pop\n        /* \"#utility.yul\":12921:13218   */\n      pop\n        /* \"#utility.yul\":13257:13259   */\n      0x20\n        /* \"#utility.yul\":13283:13336   */\n      tag_383\n        /* \"#utility.yul\":13328:13335   */\n      dup9\n        /* \"#utility.yul\":13319:13325   */\n      dup3\n        /* \"#utility.yul\":13308:13317   */\n      dup10\n        /* \"#utility.yul\":13304:13326   */\n      add\n        /* \"#utility.yul\":13283:13336   */\n      tag_227\n      jump\t// in\n    tag_383:\n        /* \"#utility.yul\":13273:13336   */\n      swap4\n      pop\n        /* \"#utility.yul\":13228:13346   */\n      pop\n        /* \"#utility.yul\":13413:13415   */\n      0x40\n        /* \"#utility.yul\":13402:13411   */\n      dup7\n        /* \"#utility.yul\":13398:13416   */\n      add\n        /* \"#utility.yul\":13385:13417   */\n      calldataload\n        /* \"#utility.yul\":13444:13462   */\n      0xffffffffffffffff\n        /* \"#utility.yul\":13436:13442   */\n      dup2\n        /* \"#utility.yul\":13433:13463   */\n      gt\n        /* \"#utility.yul\":13430:13547   */\n      iszero\n      tag_384\n      jumpi\n        /* \"#utility.yul\":13466:13545   */\n      tag_385\n      tag_225\n      jump\t// in\n    tag_385:\n        /* \"#utility.yul\":13430:13547   */\n    tag_384:\n        /* \"#utility.yul\":13579:13644   */\n      tag_386\n        /* \"#utility.yul\":13636:13643   */\n      dup9\n        /* \"#utility.yul\":13627:13633   */\n      dup3\n        /* \"#utility.yul\":13616:13625   */\n      dup10\n        /* \"#utility.yul\":13612:13634   */\n      add\n        /* \"#utility.yul\":13579:13644   */\n      tag_231\n      jump\t// in\n    tag_386:\n        /* \"#utility.yul\":13561:13644   */\n      swap3\n      pop\n      swap3\n      pop\n        /* \"#utility.yul\":13356:13654   */\n      pop\n        /* \"#utility.yul\":12642:13661   */\n      swap3\n      swap6\n      pop\n      swap3\n      swap6\n      swap1\n      swap4\n      pop\n      jump\t// out\n        /* \"#utility.yul\":13667:15032   */\n    tag_43:\n        /* \"#utility.yul\":13789:13795   */\n      0x00\n        /* \"#utility.yul\":13797:13803   */\n      dup1\n        /* \"#utility.yul\":13805:13811   */\n      0x00\n        /* \"#utility.yul\":13813:13819   */\n      dup1\n        /* \"#utility.yul\":13821:13827   */\n      0x00\n        /* \"#utility.yul\":13829:13835   */\n      dup1\n        /* \"#utility.yul\":13837:13843   */\n      0x00\n        /* \"#utility.yul\":13886:13889   */\n      0x80\n        /* \"#utility.yul\":13874:13883   */\n      dup9\n        /* \"#utility.yul\":13865:13872   */\n      dup11\n        /* \"#utility.yul\":13861:13884   */\n      sub\n        /* \"#utility.yul\":13857:13890   */\n      slt\n        /* \"#utility.yul\":13854:13974   */\n      iszero\n      tag_388\n      jumpi\n        /* \"#utility.yul\":13893:13972   */\n      tag_389\n      tag_224\n      jump\t// in\n    tag_389:\n        /* \"#utility.yul\":13854:13974   */\n    tag_388:\n        /* \"#utility.yul\":14041:14042   */\n      0x00\n        /* \"#utility.yul\":14030:14039   */\n      dup9\n        /* \"#utility.yul\":14026:14043   */\n      add\n        /* \"#utility.yul\":14013:14044   */\n      calldataload\n        /* \"#utility.yul\":14071:14089   */\n      0xffffffffffffffff\n        /* \"#utility.yul\":14063:14069   */\n      dup2\n        /* \"#utility.yul\":14060:14090   */\n      gt\n        /* \"#utility.yul\":14057:14174   */\n      iszero\n      tag_390\n      jumpi\n        /* \"#utility.yul\":14093:14172   */\n      tag_391\n      tag_225\n      jump\t// in\n    tag_391:\n        /* \"#utility.yul\":14057:14174   */\n    tag_390:\n        /* \"#utility.yul\":14206:14271   */\n      tag_392\n        /* \"#utility.yul\":14263:14270   */\n      dup11\n        /* \"#utility.yul\":14254:14260   */\n      dup3\n        /* \"#utility.yul\":14243:14252   */\n      dup12\n        /* \"#utility.yul\":14239:14261   */\n      add\n        /* \"#utility.yul\":14206:14271   */\n      tag_231\n      jump\t// in\n    tag_392:\n        /* \"#utility.yul\":14188:14271   */\n      swap8\n      pop\n      swap8\n      pop\n        /* \"#utility.yul\":13984:14281   */\n      pop\n        /* \"#utility.yul\":14348:14350   */\n      0x20\n        /* \"#utility.yul\":14337:14346   */\n      dup9\n        /* \"#utility.yul\":14333:14351   */\n      add\n        /* \"#utility.yul\":14320:14352   */\n      calldataload\n        /* \"#utility.yul\":14379:14397   */\n      0xffffffffffffffff\n        /* \"#utility.yul\":14371:14377   */\n      dup2\n        /* \"#utility.yul\":14368:14398   */\n      gt\n        /* \"#utility.yul\":14365:14482   */\n      iszero\n      tag_393\n      jumpi\n        /* \"#utility.yul\":14401:14480   */\n      tag_394\n      tag_225\n      jump\t// in\n    tag_394:\n        /* \"#utility.yul\":14365:14482   */\n    tag_393:\n        /* \"#utility.yul\":14514:14579   */\n      tag_395\n        /* \"#utility.yul\":14571:14578   */\n      dup11\n        /* \"#utility.yul\":14562:14568   */\n      dup3\n        /* \"#utility.yul\":14551:14560   */\n      dup12\n        /* \"#utility.yul\":14547:14569   */\n      add\n        /* \"#utility.yul\":14514:14579   */\n      tag_231\n      jump\t// in\n    tag_395:\n        /* \"#utility.yul\":14496:14579   */\n      swap6\n      pop\n      swap6\n      pop\n        /* \"#utility.yul\":14291:14589   */\n      pop\n        /* \"#utility.yul\":14628:14630   */\n      0x40\n        /* \"#utility.yul\":14654:14707   */\n      tag_396\n        /* \"#utility.yul\":14699:14706   */\n      dup11\n        /* \"#utility.yul\":14690:14696   */\n      dup3\n        /* \"#utility.yul\":14679:14688   */\n      dup12\n        /* \"#utility.yul\":14675:14697   */\n      add\n        /* \"#utility.yul\":14654:14707   */\n      tag_227\n      jump\t// in\n    tag_396:\n        /* \"#utility.yul\":14644:14707   */\n      swap4\n      pop\n        /* \"#utility.yul\":14599:14717   */\n      pop\n        /* \"#utility.yul\":14784:14786   */\n      0x60\n        /* \"#utility.yul\":14773:14782   */\n      dup9\n        /* \"#utility.yul\":14769:14787   */\n      add\n        /* \"#utility.yul\":14756:14788   */\n      calldataload\n        /* \"#utility.yul\":14815:14833   */\n      0xffffffffffffffff\n        /* \"#utility.yul\":14807:14813   */\n      dup2\n        /* \"#utility.yul\":14804:14834   */\n      gt\n        /* \"#utility.yul\":14801:14918   */\n      iszero\n      tag_397\n      jumpi\n        /* \"#utility.yul\":14837:14916   */\n      tag_398\n      tag_225\n      jump\t// in\n    tag_398:\n        /* \"#utility.yul\":14801:14918   */\n    tag_397:\n        /* \"#utility.yul\":14950:15015   */\n      tag_399\n        /* \"#utility.yul\":15007:15014   */\n      dup11\n        /* \"#utility.yul\":14998:15004   */\n      dup3\n        /* \"#utility.yul\":14987:14996   */\n      dup12\n        /* \"#utility.yul\":14983:15005   */\n      add\n        /* \"#utility.yul\":14950:15015   */\n      tag_231\n      jump\t// in\n    tag_399:\n        /* \"#utility.yul\":14932:15015   */\n      swap3\n      pop\n      swap3\n      pop\n        /* \"#utility.yul\":14727:15025   */\n      pop\n        /* \"#utility.yul\":13667:15032   */\n      swap3\n      swap6\n      swap9\n      swap2\n      swap5\n      swap8\n      pop\n      swap3\n      swap6\n      pop\n      jump\t// out\n        /* \"#utility.yul\":15038:15156   */\n    tag_232:\n        /* \"#utility.yul\":15125:15149   */\n      tag_401\n        /* \"#utility.yul\":15143:15148   */\n      dup2\n        /* \"#utility.yul\":15125:15149   */\n      tag_210\n      jump\t// in\n    tag_401:\n        /* \"#utility.yul\":15120:15123   */\n      dup3\n        /* \"#utility.yul\":15113:15150   */\n      mstore\n        /* \"#utility.yul\":15038:15156   */\n      pop\n      pop\n      jump\t// out\n        /* \"#utility.yul\":15162:15384   */\n    tag_48:\n        /* \"#utility.yul\":15255:15259   */\n      0x00\n        /* \"#utility.yul\":15293:15295   */\n      0x20\n        /* \"#utility.yul\":15282:15291   */\n      dup3\n        /* \"#utility.yul\":15278:15296   */\n      add\n        /* \"#utility.yul\":15270:15296   */\n      swap1\n      pop\n        /* \"#utility.yul\":15306:15377   */\n      tag_403\n        /* \"#utility.yul\":15374:15375   */\n      0x00\n        /* \"#utility.yul\":15363:15372   */\n      dup4\n        /* \"#utility.yul\":15359:15376   */\n      add\n        /* \"#utility.yul\":15350:15356   */\n      dup5\n        /* \"#utility.yul\":15306:15377   */\n      tag_232\n      jump\t// in\n    tag_403:\n        /* \"#utility.yul\":15162:15384   */\n      swap3\n      swap2\n      pop\n      pop\n      jump\t// out\n        /* \"#utility.yul\":15390:15570   */\n    tag_233:\n        /* \"#utility.yul\":15438:15515   */\n      0x4e487b7100000000000000000000000000000000000000000000000000000000\n        /* \"#utility.yul\":15435:15436   */\n      0x00\n        /* \"#utility.yul\":15428:15516   */\n      mstore\n        /* \"#utility.yul\":15535:15539   */\n      0x11\n        /* \"#utility.yul\":15532:15533   */\n      0x04\n        /* \"#utility.yul\":15525:15540   */\n      mstore\n        /* \"#utility.yul\":15559:15563   */\n      0x24\n        /* \"#utility.yul\":15556:15557   */\n      0x00\n        /* \"#utility.yul\":15549:15564   */\n      revert\n        /* \"#utility.yul\":15576:15770   */\n    tag_58:\n        /* \"#utility.yul\":15616:15620   */\n      0x00\n        /* \"#utility.yul\":15636:15656   */\n      tag_406\n        /* \"#utility.yul\":15654:15655   */\n      dup3\n        /* \"#utility.yul\":15636:15656   */\n      tag_207\n      jump\t// in\n    tag_406:\n        /* \"#utility.yul\":15631:15656   */\n      swap2\n      pop\n        /* \"#utility.yul\":15670:15690   */\n      tag_407\n        /* \"#utility.yul\":15688:15689   */\n      dup4\n        /* \"#utility.yul\":15670:15690   */\n      tag_207\n      jump\t// in\n    tag_407:\n        /* \"#utility.yul\":15665:15690   */\n      swap3\n      pop\n        /* \"#utility.yul\":15714:15715   */\n      dup3\n        /* \"#utility.yul\":15711:15712   */\n      dup3\n        /* \"#utility.yul\":15707:15716   */\n      sub\n        /* \"#utility.yul\":15699:15716   */\n      swap1\n      pop\n        /* \"#utility.yul\":15738:15739   */\n      dup2\n        /* \"#utility.yul\":15732:15736   */\n      dup2\n        /* \"#utility.yul\":15729:15740   */\n      gt\n        /* \"#utility.yul\":15726:15763   */\n      iszero\n      tag_408\n      jumpi\n        /* \"#utility.yul\":15743:15761   */\n      tag_409\n      tag_233\n      jump\t// in\n    tag_409:\n        /* \"#utility.yul\":15726:15763   */\n    tag_408:\n        /* \"#utility.yul\":15576:15770   */\n      swap3\n      swap2\n      pop\n      pop\n      jump\t// out\n        /* \"#utility.yul\":15776:15956   */\n    tag_61:\n        /* \"#utility.yul\":15824:15901   */\n      0x4e487b7100000000000000000000000000000000000000000000000000000000\n        /* \"#utility.yul\":15821:15822   */\n      0x00\n        /* \"#utility.yul\":15814:15902   */\n      mstore\n        /* \"#utility.yul\":15921:15925   */\n      0x41\n        /* \"#utility.yul\":15918:15919   */\n      0x04\n        /* \"#utility.yul\":15911:15926   */\n      mstore\n        /* \"#utility.yul\":15945:15949   */\n      0x24\n        /* \"#utility.yul\":15942:15943   */\n      0x00\n        /* \"#utility.yul\":15935:15950   */\n      revert\n        /* \"#utility.yul\":15962:16142   */\n    tag_234:\n        /* \"#utility.yul\":16010:16087   */\n      0x4e487b7100000000000000000000000000000000000000000000000000000000\n        /* \"#utility.yul\":16007:16008   */\n      0x00\n        /* \"#utility.yul\":16000:16088   */\n      mstore\n        /* \"#utility.yul\":16107:16111   */\n      0x22\n        /* \"#utility.yul\":16104:16105   */\n      0x04\n        /* \"#utility.yul\":16097:16112   */\n      mstore\n        /* \"#utility.yul\":16131:16135   */\n      0x24\n        /* \"#utility.yul\":16128:16129   */\n      0x00\n        /* \"#utility.yul\":16121:16136   */\n      revert\n        /* \"#utility.yul\":16148:16468   */\n    tag_70:\n        /* \"#utility.yul\":16192:16198   */\n      0x00\n        /* \"#utility.yul\":16229:16230   */\n      0x02\n        /* \"#utility.yul\":16223:16227   */\n      dup3\n        /* \"#utility.yul\":16219:16231   */\n      div\n        /* \"#utility.yul\":16209:16231   */\n      swap1\n      pop\n        /* \"#utility.yul\":16276:16277   */\n      0x01\n        /* \"#utility.yul\":16270:16274   */\n      dup3\n        /* \"#utility.yul\":16266:16278   */\n      and\n        /* \"#utility.yul\":16297:16315   */\n      dup1\n        /* \"#utility.yul\":16287:16368   */\n      tag_413\n      jumpi\n        /* \"#utility.yul\":16353:16357   */\n      0x7f\n        /* \"#utility.yul\":16345:16351   */\n      dup3\n        /* \"#utility.yul\":16341:16358   */\n      and\n        /* \"#utility.yul\":16331:16358   */\n      swap2\n      pop\n        /* \"#utility.yul\":16287:16368   */\n    tag_413:\n        /* \"#utility.yul\":16415:16417   */\n      0x20\n        /* \"#utility.yul\":16407:16413   */\n      dup3\n        /* \"#utility.yul\":16404:16418   */\n      lt\n        /* \"#utility.yul\":16384:16402   */\n      dup2\n        /* \"#utility.yul\":16381:16419   */\n      sub\n        /* \"#utility.yul\":16378:16462   */\n      tag_414\n      jumpi\n        /* \"#utility.yul\":16434:16452   */\n      tag_415\n      tag_234\n      jump\t// in\n    tag_415:\n        /* \"#utility.yul\":16378:16462   */\n    tag_414:\n        /* \"#utility.yul\":16199:16468   */\n      pop\n        /* \"#utility.yul\":16148:16468   */\n      swap2\n      swap1\n      pop\n      jump\t// out\n        /* \"#utility.yul\":16474:16654   */\n    tag_83:\n        /* \"#utility.yul\":16522:16599   */\n      0x4e487b7100000000000000000000000000000000000000000000000000000000\n        /* \"#utility.yul\":16519:16520   */\n      0x00\n        /* \"#utility.yul\":16512:16600   */\n      mstore\n        /* \"#utility.yul\":16619:16623   */\n      0x32\n        /* \"#utility.yul\":16616:16617   */\n      0x04\n        /* \"#utility.yul\":16609:16624   */\n      mstore\n        /* \"#utility.yul\":16643:16647   */\n      0x24\n        /* \"#utility.yul\":16640:16641   */\n      0x00\n        /* \"#utility.yul\":16633:16648   */\n      revert\n        /* \"#utility.yul\":16660:16838   */\n    tag_235:\n        /* \"#utility.yul\":16800:16830   */\n      0x4e6f742066726f6d20656c656374696f6e20636f6d6d697373696f6e00000000\n        /* \"#utility.yul\":16796:16797   */\n      0x00\n        /* \"#utility.yul\":16788:16794   */\n      dup3\n        /* \"#utility.yul\":16784:16798   */\n      add\n        /* \"#utility.yul\":16777:16831   */\n      mstore\n        /* \"#utility.yul\":16660:16838   */\n      pop\n      jump\t// out\n        /* \"#utility.yul\":16844:17210   */\n    tag_236:\n        /* \"#utility.yul\":16986:16989   */\n      0x00\n        /* \"#utility.yul\":17007:17074   */\n      tag_419\n        /* \"#utility.yul\":17071:17073   */\n      0x1c\n        /* \"#utility.yul\":17066:17069   */\n      dup4\n        /* \"#utility.yul\":17007:17074   */\n      tag_198\n      jump\t// in\n    tag_419:\n        /* \"#utility.yul\":17000:17074   */\n      swap2\n      pop\n        /* \"#utility.yul\":17083:17176   */\n      tag_420\n        /* \"#utility.yul\":17172:17175   */\n      dup3\n        /* \"#utility.yul\":17083:17176   */\n      tag_235\n      jump\t// in\n    tag_420:\n        /* \"#utility.yul\":17201:17203   */\n      0x20\n        /* \"#utility.yul\":17196:17199   */\n      dup3\n        /* \"#utility.yul\":17192:17204   */\n      add\n        /* \"#utility.yul\":17185:17204   */\n      swap1\n      pop\n        /* \"#utility.yul\":16844:17210   */\n      swap2\n      swap1\n      pop\n      jump\t// out\n        /* \"#utility.yul\":17216:17635   */\n    tag_116:\n        /* \"#utility.yul\":17382:17386   */\n      0x00\n        /* \"#utility.yul\":17420:17422   */\n      0x20\n        /* \"#utility.yul\":17409:17418   */\n      dup3\n        /* \"#utility.yul\":17405:17423   */\n      add\n        /* \"#utility.yul\":17397:17423   */\n      swap1\n      pop\n        /* \"#utility.yul\":17469:17478   */\n      dup2\n        /* \"#utility.yul\":17463:17467   */\n      dup2\n        /* \"#utility.yul\":17459:17479   */\n      sub\n        /* \"#utility.yul\":17455:17456   */\n      0x00\n        /* \"#utility.yul\":17444:17453   */\n      dup4\n        /* \"#utility.yul\":17440:17457   */\n      add\n        /* \"#utility.yul\":17433:17480   */\n      mstore\n        /* \"#utility.yul\":17497:17628   */\n      tag_422\n        /* \"#utility.yul\":17623:17627   */\n      dup2\n        /* \"#utility.yul\":17497:17628   */\n      tag_236\n      jump\t// in\n    tag_422:\n        /* \"#utility.yul\":17489:17628   */\n      swap1\n      pop\n        /* \"#utility.yul\":17216:17635   */\n      swap2\n      swap1\n      pop\n      jump\t// out\n        /* \"#utility.yul\":17641:17815   */\n    tag_237:\n        /* \"#utility.yul\":17781:17807   */\n      0x4e6f2063616e6469646174657320726567697374657265640000000000000000\n        /* \"#utility.yul\":17777:17778   */\n      0x00\n        /* \"#utility.yul\":17769:17775   */\n      dup3\n        /* \"#utility.yul\":17765:17779   */\n      add\n        /* \"#utility.yul\":17758:17808   */\n      mstore\n        /* \"#utility.yul\":17641:17815   */\n      pop\n      jump\t// out\n        /* \"#utility.yul\":17821:18187   */\n    tag_238:\n        /* \"#utility.yul\":17963:17966   */\n      0x00\n        /* \"#utility.yul\":17984:18051   */\n      tag_425\n        /* \"#utility.yul\":18048:18050   */\n      0x18\n        /* \"#utility.yul\":18043:18046   */\n      dup4\n        /* \"#utility.yul\":17984:18051   */\n      tag_198\n      jump\t// in\n    tag_425:\n        /* \"#utility.yul\":17977:18051   */\n      swap2\n      pop\n        /* \"#utility.yul\":18060:18153   */\n      tag_426\n        /* \"#utility.yul\":18149:18152   */\n      dup3\n        /* \"#utility.yul\":18060:18153   */\n      tag_237\n      jump\t// in\n    tag_426:\n        /* \"#utility.yul\":18178:18180   */\n      0x20\n        /* \"#utility.yul\":18173:18176   */\n      dup3\n        /* \"#utility.yul\":18169:18181   */\n      add\n        /* \"#utility.yul\":18162:18181   */\n      swap1\n      pop\n        /* \"#utility.yul\":17821:18187   */\n      swap2\n      swap1\n      pop\n      jump\t// out\n        /* \"#utility.yul\":18193:18612   */\n    tag_120:\n        /* \"#utility.yul\":18359:18363   */\n      0x00\n        /* \"#utility.yul\":18397:18399   */\n      0x20\n        /* \"#utility.yul\":18386:18395   */\n      dup3\n        /* \"#utility.yul\":18382:18400   */\n      add\n        /* \"#utility.yul\":18374:18400   */\n      swap1\n      pop\n        /* \"#utility.yul\":18446:18455   */\n      dup2\n        /* \"#utility.yul\":18440:18444   */\n      dup2\n        /* \"#utility.yul\":18436:18456   */\n      sub\n        /* \"#utility.yul\":18432:18433   */\n      0x00\n        /* \"#utility.yul\":18421:18430   */\n      dup4\n        /* \"#utility.yul\":18417:18434   */\n      add\n        /* \"#utility.yul\":18410:18457   */\n      mstore\n        /* \"#utility.yul\":18474:18605   */\n      tag_428\n        /* \"#utility.yul\":18600:18604   */\n      dup2\n        /* \"#utility.yul\":18474:18605   */\n      tag_238\n      jump\t// in\n    tag_428:\n        /* \"#utility.yul\":18466:18605   */\n      swap1\n      pop\n        /* \"#utility.yul\":18193:18612   */\n      swap2\n      swap1\n      pop\n      jump\t// out\n        /* \"#utility.yul\":18618:18809   */\n    tag_130:\n        /* \"#utility.yul\":18658:18661   */\n      0x00\n        /* \"#utility.yul\":18677:18697   */\n      tag_430\n        /* \"#utility.yul\":18695:18696   */\n      dup3\n        /* \"#utility.yul\":18677:18697   */\n      tag_207\n      jump\t// in\n    tag_430:\n        /* \"#utility.yul\":18672:18697   */\n      swap2\n      pop\n        /* \"#utility.yul\":18711:18731   */\n      tag_431\n        /* \"#utility.yul\":18729:18730   */\n      dup4\n        /* \"#utility.yul\":18711:18731   */\n      tag_207\n      jump\t// in\n    tag_431:\n        /* \"#utility.yul\":18706:18731   */\n      swap3\n      pop\n        /* \"#utility.yul\":18754:18755   */\n      dup3\n        /* \"#utility.yul\":18751:18752   */\n      dup3\n        /* \"#utility.yul\":18747:18756   */\n      add\n        /* \"#utility.yul\":18740:18756   */\n      swap1\n      pop\n        /* \"#utility.yul\":18775:18778   */\n      dup1\n        /* \"#utility.yul\":18772:18773   */\n      dup3\n        /* \"#utility.yul\":18769:18779   */\n      gt\n        /* \"#utility.yul\":18766:18802   */\n      iszero\n      tag_432\n      jumpi\n        /* \"#utility.yul\":18782:18800   */\n      tag_433\n      tag_233\n      jump\t// in\n    tag_433:\n        /* \"#utility.yul\":18766:18802   */\n    tag_432:\n        /* \"#utility.yul\":18618:18809   */\n      swap3\n      swap2\n      pop\n      pop\n      jump\t// out\n        /* \"#utility.yul\":18815:18989   */\n    tag_239:\n        /* \"#utility.yul\":18955:18981   */\n      0x566f74657220616c726561647920726567697374657265640000000000000000\n        /* \"#utility.yul\":18951:18952   */\n      0x00\n        /* \"#utility.yul\":18943:18949   */\n      dup3\n        /* \"#utility.yul\":18939:18953   */\n      add\n        /* \"#utility.yul\":18932:18982   */\n      mstore\n        /* \"#utility.yul\":18815:18989   */\n      pop\n      jump\t// out\n        /* \"#utility.yul\":18995:19361   */\n    tag_240:\n        /* \"#utility.yul\":19137:19140   */\n      0x00\n        /* \"#utility.yul\":19158:19225   */\n      tag_436\n        /* \"#utility.yul\":19222:19224   */\n      0x18\n        /* \"#utility.yul\":19217:19220   */\n      dup4\n        /* \"#utility.yul\":19158:19225   */\n      tag_198\n      jump\t// in\n    tag_436:\n        /* \"#utility.yul\":19151:19225   */\n      swap2\n      pop\n        /* \"#utility.yul\":19234:19327   */\n      tag_437\n        /* \"#utility.yul\":19323:19326   */\n      dup3\n        /* \"#utility.yul\":19234:19327   */\n      tag_239\n      jump\t// in\n    tag_437:\n        /* \"#utility.yul\":19352:19354   */\n      0x20\n        /* \"#utility.yul\":19347:19350   */\n      dup3\n        /* \"#utility.yul\":19343:19355   */\n      add\n        /* \"#utility.yul\":19336:19355   */\n      swap1\n      pop\n        /* \"#utility.yul\":18995:19361   */\n      swap2\n      swap1\n      pop\n      jump\t// out\n        /* \"#utility.yul\":19367:19786   */\n    tag_137:\n        /* \"#utility.yul\":19533:19537   */\n      0x00\n        /* \"#utility.yul\":19571:19573   */\n      0x20\n        /* \"#utility.yul\":19560:19569   */\n      dup3\n        /* \"#utility.yul\":19556:19574   */\n      add\n        /* \"#utility.yul\":19548:19574   */\n      swap1\n      pop\n        /* \"#utility.yul\":19620:19629   */\n      dup2\n        /* \"#utility.yul\":19614:19618   */\n      dup2\n        /* \"#utility.yul\":19610:19630   */\n      sub\n        /* \"#utility.yul\":19606:19607   */\n      0x00\n        /* \"#utility.yul\":19595:19604   */\n      dup4\n        /* \"#utility.yul\":19591:19608   */\n      add\n        /* \"#utility.yul\":19584:19631   */\n      mstore\n        /* \"#utility.yul\":19648:19779   */\n      tag_439\n        /* \"#utility.yul\":19774:19778   */\n      dup2\n        /* \"#utility.yul\":19648:19779   */\n      tag_240\n      jump\t// in\n    tag_439:\n        /* \"#utility.yul\":19640:19779   */\n      swap1\n      pop\n        /* \"#utility.yul\":19367:19786   */\n      swap2\n      swap1\n      pop\n      jump\t// out\n        /* \"#utility.yul\":19792:19962   */\n    tag_241:\n        /* \"#utility.yul\":19932:19954   */\n      0x796f7520617265206e6f7420656c696769626c65000000000000000000000000\n        /* \"#utility.yul\":19928:19929   */\n      0x00\n        /* \"#utility.yul\":19920:19926   */\n      dup3\n        /* \"#utility.yul\":19916:19930   */\n      add\n        /* \"#utility.yul\":19909:19955   */\n      mstore\n        /* \"#utility.yul\":19792:19962   */\n      pop\n      jump\t// out\n        /* \"#utility.yul\":19968:20334   */\n    tag_242:\n        /* \"#utility.yul\":20110:20113   */\n      0x00\n        /* \"#utility.yul\":20131:20198   */\n      tag_442\n        /* \"#utility.yul\":20195:20197   */\n      0x14\n        /* \"#utility.yul\":20190:20193   */\n      dup4\n        /* \"#utility.yul\":20131:20198   */\n      tag_198\n      jump\t// in\n    tag_442:\n        /* \"#utility.yul\":20124:20198   */\n      swap2\n      pop\n        /* \"#utility.yul\":20207:20300   */\n      tag_443\n        /* \"#utility.yul\":20296:20299   */\n      dup3\n        /* \"#utility.yul\":20207:20300   */\n      tag_241\n      jump\t// in\n    tag_443:\n        /* \"#utility.yul\":20325:20327   */\n      0x20\n        /* \"#utility.yul\":20320:20323   */\n      dup3\n        /* \"#utility.yul\":20316:20328   */\n      add\n        /* \"#utility.yul\":20309:20328   */\n      swap1\n      pop\n        /* \"#utility.yul\":19968:20334   */\n      swap2\n      swap1\n      pop\n      jump\t// out\n        /* \"#utility.yul\":20340:20759   */\n    tag_140:\n        /* \"#utility.yul\":20506:20510   */\n      0x00\n        /* \"#utility.yul\":20544:20546   */\n      0x20\n        /* \"#utility.yul\":20533:20542   */\n      dup3\n        /* \"#utility.yul\":20529:20547   */\n      add\n        /* \"#utility.yul\":20521:20547   */\n      swap1\n      pop\n        /* \"#utility.yul\":20593:20602   */\n      dup2\n        /* \"#utility.yul\":20587:20591   */\n      dup2\n        /* \"#utility.yul\":20583:20603   */\n      sub\n        /* \"#utility.yul\":20579:20580   */\n      0x00\n        /* \"#utility.yul\":20568:20577   */\n      dup4\n        /* \"#utility.yul\":20564:20581   */\n      add\n        /* \"#utility.yul\":20557:20604   */\n      mstore\n        /* \"#utility.yul\":20621:20752   */\n      tag_445\n        /* \"#utility.yul\":20747:20751   */\n      dup2\n        /* \"#utility.yul\":20621:20752   */\n      tag_242\n      jump\t// in\n    tag_445:\n        /* \"#utility.yul\":20613:20752   */\n      swap1\n      pop\n        /* \"#utility.yul\":20340:20759   */\n      swap2\n      swap1\n      pop\n      jump\t// out\n        /* \"#utility.yul\":20765:20906   */\n    tag_243:\n        /* \"#utility.yul\":20814:20818   */\n      0x00\n        /* \"#utility.yul\":20837:20840   */\n      dup2\n        /* \"#utility.yul\":20829:20840   */\n      swap1\n      pop\n        /* \"#utility.yul\":20860:20863   */\n      dup2\n        /* \"#utility.yul\":20857:20858   */\n      0x00\n        /* \"#utility.yul\":20850:20864   */\n      mstore\n        /* \"#utility.yul\":20894:20898   */\n      0x20\n        /* \"#utility.yul\":20891:20892   */\n      0x00\n        /* \"#utility.yul\":20881:20899   */\n      keccak256\n        /* \"#utility.yul\":20873:20899   */\n      swap1\n      pop\n        /* \"#utility.yul\":20765:20906   */\n      swap2\n      swap1\n      pop\n      jump\t// out\n        /* \"#utility.yul\":20912:21005   */\n    tag_244:\n        /* \"#utility.yul\":20949:20955   */\n      0x00\n        /* \"#utility.yul\":20996:20998   */\n      0x20\n        /* \"#utility.yul\":20991:20993   */\n      0x1f\n        /* \"#utility.yul\":20984:20989   */\n      dup4\n        /* \"#utility.yul\":20980:20994   */\n      add\n        /* \"#utility.yul\":20976:20999   */\n      div\n        /* \"#utility.yul\":20966:20999   */\n      swap1\n      pop\n        /* \"#utility.yul\":20912:21005   */\n      swap2\n      swap1\n      pop\n      jump\t// out\n        /* \"#utility.yul\":21011:21118   */\n    tag_245:\n        /* \"#utility.yul\":21055:21063   */\n      0x00\n        /* \"#utility.yul\":21105:21110   */\n      dup3\n        /* \"#utility.yul\":21099:21103   */\n      dup3\n        /* \"#utility.yul\":21095:21111   */\n      shl\n        /* \"#utility.yul\":21074:21111   */\n      swap1\n      pop\n        /* \"#utility.yul\":21011:21118   */\n      swap3\n      swap2\n      pop\n      pop\n      jump\t// out\n        /* \"#utility.yul\":21124:21517   */\n    tag_246:\n        /* \"#utility.yul\":21193:21199   */\n      0x00\n        /* \"#utility.yul\":21243:21244   */\n      0x08\n        /* \"#utility.yul\":21231:21241   */\n      dup4\n        /* \"#utility.yul\":21227:21245   */\n      mul\n        /* \"#utility.yul\":21266:21363   */\n      tag_450\n        /* \"#utility.yul\":21296:21362   */\n      0xffffffffffffffffffffffffffffffffffffffffffffffffffffffffffffffff\n        /* \"#utility.yul\":21285:21294   */\n      dup3\n        /* \"#utility.yul\":21266:21363   */\n      tag_245\n      jump\t// in\n    tag_450:\n        /* \"#utility.yul\":21384:21423   */\n      tag_451\n        /* \"#utility.yul\":21414:21422   */\n      dup7\n        /* \"#utility.yul\":21403:21412   */\n      dup4\n        /* \"#utility.yul\":21384:21423   */\n      tag_245\n      jump\t// in\n    tag_451:\n        /* \"#utility.yul\":21372:21423   */\n      swap6\n      pop\n        /* \"#utility.yul\":21456:21460   */\n      dup1\n        /* \"#utility.yul\":21452:21461   */\n      not\n        /* \"#utility.yul\":21445:21450   */\n      dup5\n        /* \"#utility.yul\":21441:21462   */\n      and\n        /* \"#utility.yul\":21432:21462   */\n      swap4\n      pop\n        /* \"#utility.yul\":21505:21509   */\n      dup1\n        /* \"#utility.yul\":21495:21503   */\n      dup7\n        /* \"#utility.yul\":21491:21510   */\n      and\n        /* \"#utility.yul\":21484:21489   */\n      dup5\n        /* \"#utility.yul\":21481:21511   */\n      or\n        /* \"#utility.yul\":21471:21511   */\n      swap3\n      pop\n        /* \"#utility.yul\":21200:21517   */\n      pop\n      pop\n        /* \"#utility.yul\":21124:21517   */\n      swap4\n      swap3\n      pop\n      pop\n      pop\n      jump\t// out\n        /* \"#utility.yul\":21523:21583   */\n    tag_247:\n        /* \"#utility.yul\":21551:21554   */\n      0x00\n        /* \"#utility.yul\":21572:21577   */\n      dup2\n        /* \"#utility.yul\":21565:21577   */\n      swap1\n      pop\n        /* \"#utility.yul\":21523:21583   */\n      swap2\n      swap1\n      pop\n      jump\t// out\n        /* \"#utility.yul\":21589:21731   */\n    tag_248:\n        /* \"#utility.yul\":21639:21648   */\n      0x00\n        /* \"#utility.yul\":21672:21725   */\n      tag_454\n        /* \"#utility.yul\":21690:21724   */\n      tag_455\n        /* \"#utility.yul\":21699:21723   */\n      tag_456\n        /* \"#utility.yul\":21717:21722   */\n      dup5\n        /* \"#utility.yul\":21699:21723   */\n      tag_207\n      jump\t// in\n    tag_456:\n        /* \"#utility.yul\":21690:21724   */\n      tag_247\n      jump\t// in\n    tag_455:\n        /* \"#utility.yul\":21672:21725   */\n      tag_207\n      jump\t// in\n    tag_454:\n        /* \"#utility.yul\":21659:21725   */\n      swap1\n      pop\n        /* \"#utility.yul\":21589:21731   */\n      swap2\n      swap1\n      pop\n      jump\t// out\n        /* \"#utility.yul\":21737:21812   */\n    tag_249:\n        /* \"#utility.yul\":21780:21783   */\n      0x00\n        /* \"#utility.yul\":21801:21806   */\n      dup2\n        /* \"#utility.yul\":21794:21806   */\n      swap1\n      pop\n        /* \"#utility.yul\":21737:21812   */\n      swap2\n      swap1\n      pop\n      jump\t// out\n        /* \"#utility.yul\":21818:22087   */\n    tag_250:\n        /* \"#utility.yul\":21928:21967   */\n      tag_459\n        /* \"#utility.yul\":21959:21966   */\n      dup4\n        /* \"#utility.yul\":21928:21967   */\n      tag_248\n      jump\t// in\n    tag_459:\n        /* \"#utility.yul\":21989:22080   */\n      tag_460\n        /* \"#utility.yul\":22038:22079   */\n      tag_461\n        /* \"#utility.yul\":22062:22078   */\n      dup3\n        /* \"#utility.yul\":22038:22079   */\n      tag_249\n      jump\t// in\n    tag_461:\n        /* \"#utility.yul\":22030:22036   */\n      dup5\n        /* \"#utility.yul\":22023:22027   */\n      dup5\n        /* \"#utility.yul\":22017:22028   */\n      sload\n        /* \"#utility.yul\":21989:22080   */\n      tag_246\n      jump\t// in\n    tag_460:\n        /* \"#utility.yul\":21983:21987   */\n      dup3\n        /* \"#utility.yul\":21976:22081   */\n      sstore\n        /* \"#utility.yul\":21894:22087   */\n      pop\n        /* \"#utility.yul\":21818:22087   */\n      pop\n      pop\n      pop\n      jump\t// out\n        /* \"#utility.yul\":22093:22166   */\n    tag_251:\n        /* \"#utility.yul\":22138:22141   */\n      0x00\n        /* \"#utility.yul\":22093:22166   */\n      swap1\n      jump\t// out\n        /* \"#utility.yul\":22172:22361   */\n    tag_252:\n        /* \"#utility.yul\":22249:22281   */\n      tag_464\n      tag_251\n      jump\t// in\n    tag_464:\n        /* \"#utility.yul\":22290:22355   */\n      tag_465\n        /* \"#utility.yul\":22348:22354   */\n      dup2\n        /* \"#utility.yul\":22340:22346   */\n      dup5\n        /* \"#utility.yul\":22334:22338   */\n      dup5\n        /* \"#utility.yul\":22290:22355   */\n      tag_250\n      jump\t// in\n    tag_465:\n        /* \"#utility.yul\":22225:22361   */\n      pop\n        /* \"#utility.yul\":22172:22361   */\n      pop\n      pop\n      jump\t// out\n        /* \"#utility.yul\":22367:22553   */\n    tag_253:\n        /* \"#utility.yul\":22427:22547   */\n    tag_467:\n        /* \"#utility.yul\":22444:22447   */\n      dup2\n        /* \"#utility.yul\":22437:22442   */\n      dup2\n        /* \"#utility.yul\":22434:22448   */\n      lt\n        /* \"#utility.yul\":22427:22547   */\n      iszero\n      tag_469\n      jumpi\n        /* \"#utility.yul\":22498:22537   */\n      tag_470\n        /* \"#utility.yul\":22535:22536   */\n      0x00\n        /* \"#utility.yul\":22528:22533   */\n      dup3\n        /* \"#utility.yul\":22498:22537   */\n      tag_252\n      jump\t// in\n    tag_470:\n        /* \"#utility.yul\":22471:22472   */\n      0x01\n        /* \"#utility.yul\":22464:22469   */\n      dup2\n        /* \"#utility.yul\":22460:22473   */\n      add\n        /* \"#utility.yul\":22451:22473   */\n      swap1\n      pop\n        /* \"#utility.yul\":22427:22547   */\n      jump(tag_467)\n    tag_469:\n        /* \"#utility.yul\":22367:22553   */\n      pop\n      pop\n      jump\t// out\n        /* \"#utility.yul\":22559:23102   */\n    tag_254:\n        /* \"#utility.yul\":22660:22662   */\n      0x1f\n        /* \"#utility.yul\":22655:22658   */\n      dup3\n        /* \"#utility.yul\":22652:22663   */\n      gt\n        /* \"#utility.yul\":22649:23095   */\n      iszero\n      tag_472\n      jumpi\n        /* \"#utility.yul\":22694:22732   */\n      tag_473\n        /* \"#utility.yul\":22726:22731   */\n      dup2\n        /* \"#utility.yul\":22694:22732   */\n      tag_243\n      jump\t// in\n    tag_473:\n        /* \"#utility.yul\":22778:22807   */\n      tag_474\n        /* \"#utility.yul\":22796:22806   */\n      dup5\n        /* \"#utility.yul\":22778:22807   */\n      tag_244\n      jump\t// in\n    tag_474:\n        /* \"#utility.yul\":22768:22776   */\n      dup2\n        /* \"#utility.yul\":22764:22808   */\n      add\n        /* \"#utility.yul\":22961:22963   */\n      0x20\n        /* \"#utility.yul\":22949:22959   */\n      dup6\n        /* \"#utility.yul\":22946:22964   */\n      lt\n        /* \"#utility.yul\":22943:22992   */\n      iszero\n      tag_475\n      jumpi\n        /* \"#utility.yul\":22982:22990   */\n      dup2\n        /* \"#utility.yul\":22967:22990   */\n      swap1\n      pop\n        /* \"#utility.yul\":22943:22992   */\n    tag_475:\n        /* \"#utility.yul\":23005:23085   */\n      tag_476\n        /* \"#utility.yul\":23061:23083   */\n      tag_477\n        /* \"#utility.yul\":23079:23082   */\n      dup6\n        /* \"#utility.yul\":23061:23083   */\n      tag_244\n      jump\t// in\n    tag_477:\n        /* \"#utility.yul\":23051:23059   */\n      dup4\n        /* \"#utility.yul\":23047:23084   */\n      add\n        /* \"#utility.yul\":23034:23045   */\n      dup3\n        /* \"#utility.yul\":23005:23085   */\n      tag_253\n      jump\t// in\n    tag_476:\n        /* \"#utility.yul\":22664:23095   */\n      pop\n      pop\n        /* \"#utility.yul\":22649:23095   */\n    tag_472:\n        /* \"#utility.yul\":22559:23102   */\n      pop\n      pop\n      pop\n      jump\t// out\n        /* \"#utility.yul\":23108:23225   */\n    tag_255:\n        /* \"#utility.yul\":23162:23170   */\n      0x00\n        /* \"#utility.yul\":23212:23217   */\n      dup3\n        /* \"#utility.yul\":23206:23210   */\n      dup3\n        /* \"#utility.yul\":23202:23218   */\n      shr\n        /* \"#utility.yul\":23181:23218   */\n      swap1\n      pop\n        /* \"#utility.yul\":23108:23225   */\n      swap3\n      swap2\n      pop\n      pop\n      jump\t// out\n        /* \"#utility.yul\":23231:23400   */\n    tag_256:\n        /* \"#utility.yul\":23275:23281   */\n      0x00\n        /* \"#utility.yul\":23308:23359   */\n      tag_480\n        /* \"#utility.yul\":23356:23357   */\n      0x00\n        /* \"#utility.yul\":23352:23358   */\n      not\n        /* \"#utility.yul\":23344:23349   */\n      dup5\n        /* \"#utility.yul\":23341:23342   */\n      0x08\n        /* \"#utility.yul\":23337:23350   */\n      mul\n        /* \"#utility.yul\":23308:23359   */\n      tag_255\n      jump\t// in\n    tag_480:\n        /* \"#utility.yul\":23304:23360   */\n      not\n        /* \"#utility.yul\":23389:23393   */\n      dup1\n        /* \"#utility.yul\":23383:23387   */\n      dup4\n        /* \"#utility.yul\":23379:23394   */\n      and\n        /* \"#utility.yul\":23369:23394   */\n      swap2\n      pop\n        /* \"#utility.yul\":23282:23400   */\n      pop\n        /* \"#utility.yul\":23231:23400   */\n      swap3\n      swap2\n      pop\n      pop\n      jump\t// out\n        /* \"#utility.yul\":23405:23700   */\n    tag_257:\n        /* \"#utility.yul\":23481:23485   */\n      0x00\n        /* \"#utility.yul\":23627:23656   */\n      tag_482\n        /* \"#utility.yul\":23652:23655   */\n      dup4\n        /* \"#utility.yul\":23646:23650   */\n      dup4\n        /* \"#utility.yul\":23627:23656   */\n      tag_256\n      jump\t// in\n    tag_482:\n        /* \"#utility.yul\":23619:23656   */\n      swap2\n      pop\n        /* \"#utility.yul\":23689:23692   */\n      dup3\n        /* \"#utility.yul\":23686:23687   */\n      0x02\n        /* \"#utility.yul\":23682:23693   */\n      mul\n        /* \"#utility.yul\":23676:23680   */\n      dup3\n        /* \"#utility.yul\":23673:23694   */\n      or\n        /* \"#utility.yul\":23665:23694   */\n      swap1\n      pop\n        /* \"#utility.yul\":23405:23700   */\n      swap3\n      swap2\n      pop\n      pop\n      jump\t// out\n        /* \"#utility.yul\":23705:25100   */\n    tag_142:\n        /* \"#utility.yul\":23822:23859   */\n      tag_484\n        /* \"#utility.yul\":23855:23858   */\n      dup3\n        /* \"#utility.yul\":23822:23859   */\n      tag_197\n      jump\t// in\n    tag_484:\n        /* \"#utility.yul\":23924:23942   */\n      0xffffffffffffffff\n        /* \"#utility.yul\":23916:23922   */\n      dup2\n        /* \"#utility.yul\":23913:23943   */\n      gt\n        /* \"#utility.yul\":23910:23966   */\n      iszero\n      tag_485\n      jumpi\n        /* \"#utility.yul\":23946:23964   */\n      tag_486\n      tag_61\n      jump\t// in\n    tag_486:\n        /* \"#utility.yul\":23910:23966   */\n    tag_485:\n        /* \"#utility.yul\":23990:24028   */\n      tag_487\n        /* \"#utility.yul\":24022:24026   */\n      dup3\n        /* \"#utility.yul\":24016:24027   */\n      sload\n        /* \"#utility.yul\":23990:24028   */\n      tag_70\n      jump\t// in\n    tag_487:\n        /* \"#utility.yul\":24075:24142   */\n      tag_488\n        /* \"#utility.yul\":24135:24141   */\n      dup3\n        /* \"#utility.yul\":24127:24133   */\n      dup3\n        /* \"#utility.yul\":24121:24125   */\n      dup6\n        /* \"#utility.yul\":24075:24142   */\n      tag_254\n      jump\t// in\n    tag_488:\n        /* \"#utility.yul\":24169:24170   */\n      0x00\n        /* \"#utility.yul\":24193:24197   */\n      0x20\n        /* \"#utility.yul\":24180:24197   */\n      swap1\n      pop\n        /* \"#utility.yul\":24225:24227   */\n      0x1f\n        /* \"#utility.yul\":24217:24223   */\n      dup4\n        /* \"#utility.yul\":24214:24228   */\n      gt\n        /* \"#utility.yul\":24242:24243   */\n      0x01\n        /* \"#utility.yul\":24237:24855   */\n      dup2\n      eq\n      tag_490\n      jumpi\n        /* \"#utility.yul\":24899:24900   */\n      0x00\n        /* \"#utility.yul\":24916:24922   */\n      dup5\n        /* \"#utility.yul\":24913:24990   */\n      iszero\n      tag_491\n      jumpi\n        /* \"#utility.yul\":24965:24974   */\n      dup3\n        /* \"#utility.yul\":24960:24963   */\n      dup8\n        /* \"#utility.yul\":24956:24975   */\n      add\n        /* \"#utility.yul\":24950:24976   */\n      mload\n        /* \"#utility.yul\":24941:24976   */\n      swap1\n      pop\n        /* \"#utility.yul\":24913:24990   */\n    tag_491:\n        /* \"#utility.yul\":25016:25083   */\n      tag_492\n        /* \"#utility.yul\":25076:25082   */\n      dup6\n        /* \"#utility.yul\":25069:25074   */\n      dup3\n        /* \"#utility.yul\":25016:25083   */\n      tag_257\n      jump\t// in\n    tag_492:\n        /* \"#utility.yul\":25010:25014   */\n      dup7\n        /* \"#utility.yul\":25003:25084   */\n      sstore\n        /* \"#utility.yul\":24872:25094   */\n      pop\n        /* \"#utility.yul\":24207:25094   */\n      jump(tag_489)\n        /* \"#utility.yul\":24237:24855   */\n    tag_490:\n        /* \"#utility.yul\":24289:24293   */\n      0x1f\n        /* \"#utility.yul\":24285:24294   */\n      not\n        /* \"#utility.yul\":24277:24283   */\n      dup5\n        /* \"#utility.yul\":24273:24295   */\n      and\n        /* \"#utility.yul\":24323:24360   */\n      tag_493\n        /* \"#utility.yul\":24355:24359   */\n      dup7\n        /* \"#utility.yul\":24323:24360   */\n      tag_243\n      jump\t// in\n    tag_493:\n        /* \"#utility.yul\":24382:24383   */\n      0x00\n        /* \"#utility.yul\":24396:24604   */\n    tag_494:\n        /* \"#utility.yul\":24410:24417   */\n      dup3\n        /* \"#utility.yul\":24407:24408   */\n      dup2\n        /* \"#utility.yul\":24404:24418   */\n      lt\n        /* \"#utility.yul\":24396:24604   */\n      iszero\n      tag_496\n      jumpi\n        /* \"#utility.yul\":24489:24498   */\n      dup5\n        /* \"#utility.yul\":24484:24487   */\n      dup10\n        /* \"#utility.yul\":24480:24499   */\n      add\n        /* \"#utility.yul\":24474:24500   */\n      mload\n        /* \"#utility.yul\":24466:24472   */\n      dup3\n        /* \"#utility.yul\":24459:24501   */\n      sstore\n        /* \"#utility.yul\":24540:24541   */\n      0x01\n        /* \"#utility.yul\":24532:24538   */\n      dup3\n        /* \"#utility.yul\":24528:24542   */\n      add\n        /* \"#utility.yul\":24518:24542   */\n      swap2\n      pop\n        /* \"#utility.yul\":24587:24589   */\n      0x20\n        /* \"#utility.yul\":24576:24585   */\n      dup6\n        /* \"#utility.yul\":24572:24590   */\n      add\n        /* \"#utility.yul\":24559:24590   */\n      swap5\n      pop\n        /* \"#utility.yul\":24433:24437   */\n      0x20\n        /* \"#utility.yul\":24430:24431   */\n      dup2\n        /* \"#utility.yul\":24426:24438   */\n      add\n        /* \"#utility.yul\":24421:24438   */\n      swap1\n      pop\n        /* \"#utility.yul\":24396:24604   */\n      jump(tag_494)\n    tag_496:\n        /* \"#utility.yul\":24632:24638   */\n      dup7\n        /* \"#utility.yul\":24623:24630   */\n      dup4\n        /* \"#utility.yul\":24620:24639   */\n      lt\n        /* \"#utility.yul\":24617:24796   */\n      iszero\n      tag_497\n      jumpi\n        /* \"#utility.yul\":24690:24699   */\n      dup5\n        /* \"#utility.yul\":24685:24688   */\n      dup10\n        /* \"#utility.yul\":24681:24700   */\n      add\n        /* \"#utility.yul\":24675:24701   */\n      mload\n        /* \"#utility.yul\":24733:24781   */\n      tag_498\n        /* \"#utility.yul\":24775:24779   */\n      0x1f\n        /* \"#utility.yul\":24767:24773   */\n      dup10\n        /* \"#utility.yul\":24763:24780   */\n      and\n        /* \"#utility.yul\":24752:24761   */\n      dup3\n        /* \"#utility.yul\":24733:24781   */\n      tag_256\n      jump\t// in\n    tag_498:\n        /* \"#utility.yul\":24725:24731   */\n      dup4\n        /* \"#utility.yul\":24718:24782   */\n      sstore\n        /* \"#utility.yul\":24640:24796   */\n      pop\n        /* \"#utility.yul\":24617:24796   */\n    tag_497:\n        /* \"#utility.yul\":24842:24843   */\n      0x01\n        /* \"#utility.yul\":24838:24839   */\n      0x02\n        /* \"#utility.yul\":24830:24836   */\n      dup9\n        /* \"#utility.yul\":24826:24840   */\n      mul\n        /* \"#utility.yul\":24822:24844   */\n      add\n        /* \"#utility.yul\":24816:24820   */\n      dup9\n        /* \"#utility.yul\":24809:24845   */\n      sstore\n        /* \"#utility.yul\":24244:24855   */\n      pop\n      pop\n      pop\n        /* \"#utility.yul\":24207:25094   */\n    tag_489:\n      pop\n        /* \"#utility.yul\":23797:25100   */\n      pop\n      pop\n      pop\n        /* \"#utility.yul\":23705:25100   */\n      pop\n      pop\n      jump\t// out\n        /* \"#utility.yul\":25106:25339   */\n    tag_145:\n        /* \"#utility.yul\":25145:25148   */\n      0x00\n        /* \"#utility.yul\":25168:25192   */\n      tag_500\n        /* \"#utility.yul\":25186:25191   */\n      dup3\n        /* \"#utility.yul\":25168:25192   */\n      tag_207\n      jump\t// in\n    tag_500:\n        /* \"#utility.yul\":25159:25192   */\n      swap2\n      pop\n        /* \"#utility.yul\":25214:25280   */\n      0xffffffffffffffffffffffffffffffffffffffffffffffffffffffffffffffff\n        /* \"#utility.yul\":25207:25212   */\n      dup3\n        /* \"#utility.yul\":25204:25281   */\n      sub\n        /* \"#utility.yul\":25201:25304   */\n      tag_501\n      jumpi\n        /* \"#utility.yul\":25284:25302   */\n      tag_502\n      tag_233\n      jump\t// in\n    tag_502:\n        /* \"#utility.yul\":25201:25304   */\n    tag_501:\n        /* \"#utility.yul\":25331:25332   */\n      0x01\n        /* \"#utility.yul\":25324:25329   */\n      dup3\n        /* \"#utility.yul\":25320:25333   */\n      add\n        /* \"#utility.yul\":25313:25333   */\n      swap1\n      pop\n        /* \"#utility.yul\":25106:25339   */\n      swap2\n      swap1\n      pop\n      jump\t// out\n        /* \"#utility.yul\":25345:25508   */\n    tag_258:\n        /* \"#utility.yul\":25485:25500   */\n      0x416c726561647920766f74656400000000000000000000000000000000000000\n        /* \"#utility.yul\":25481:25482   */\n      0x00\n        /* \"#utility.yul\":25473:25479   */\n      dup3\n        /* \"#utility.yul\":25469:25483   */\n      add\n        /* \"#utility.yul\":25462:25501   */\n      mstore\n        /* \"#utility.yul\":25345:25508   */\n      pop\n      jump\t// out\n        /* \"#utility.yul\":25514:25880   */\n    tag_259:\n        /* \"#utility.yul\":25656:25659   */\n      0x00\n        /* \"#utility.yul\":25677:25744   */\n      tag_505\n        /* \"#utility.yul\":25741:25743   */\n      0x0d\n        /* \"#utility.yul\":25736:25739   */\n      dup4\n        /* \"#utility.yul\":25677:25744   */\n      tag_198\n      jump\t// in\n    tag_505:\n        /* \"#utility.yul\":25670:25744   */\n      swap2\n      pop\n        /* \"#utility.yul\":25753:25846   */\n      tag_506\n        /* \"#utility.yul\":25842:25845   */\n      dup3\n        /* \"#utility.yul\":25753:25846   */\n      tag_258\n      jump\t// in\n    tag_506:\n        /* \"#utility.yul\":25871:25873   */\n      0x20\n        /* \"#utility.yul\":25866:25869   */\n      dup3\n        /* \"#utility.yul\":25862:25874   */\n      add\n        /* \"#utility.yul\":25855:25874   */\n      swap1\n      pop\n        /* \"#utility.yul\":25514:25880   */\n      swap2\n      swap1\n      pop\n      jump\t// out\n        /* \"#utility.yul\":25886:26305   */\n    tag_149:\n        /* \"#utility.yul\":26052:26056   */\n      0x00\n        /* \"#utility.yul\":26090:26092   */\n      0x20\n        /* \"#utility.yul\":26079:26088   */\n      dup3\n        /* \"#utility.yul\":26075:26093   */\n      add\n        /* \"#utility.yul\":26067:26093   */\n      swap1\n      pop\n        /* \"#utility.yul\":26139:26148   */\n      dup2\n        /* \"#utility.yul\":26133:26137   */\n      dup2\n        /* \"#utility.yul\":26129:26149   */\n      sub\n        /* \"#utility.yul\":26125:26126   */\n      0x00\n        /* \"#utility.yul\":26114:26123   */\n      dup4\n        /* \"#utility.yul\":26110:26127   */\n      add\n        /* \"#utility.yul\":26103:26150   */\n      mstore\n        /* \"#utility.yul\":26167:26298   */\n      tag_508\n        /* \"#utility.yul\":26293:26297   */\n      dup2\n        /* \"#utility.yul\":26167:26298   */\n      tag_259\n      jump\t// in\n    tag_508:\n        /* \"#utility.yul\":26159:26298   */\n      swap1\n      pop\n        /* \"#utility.yul\":25886:26305   */\n      swap2\n      swap1\n      pop\n      jump\t// out\n        /* \"#utility.yul\":26311:26480   */\n    tag_260:\n        /* \"#utility.yul\":26451:26472   */\n      0x796f7520617265206e6f74206120766f74657200000000000000000000000000\n        /* \"#utility.yul\":26447:26448   */\n      0x00\n        /* \"#utility.yul\":26439:26445   */\n      dup3\n        /* \"#utility.yul\":26435:26449   */\n      add\n        /* \"#utility.yul\":26428:26473   */\n      mstore\n        /* \"#utility.yul\":26311:26480   */\n      pop\n      jump\t// out\n        /* \"#utility.yul\":26486:26852   */\n    tag_261:\n        /* \"#utility.yul\":26628:26631   */\n      0x00\n        /* \"#utility.yul\":26649:26716   */\n      tag_511\n        /* \"#utility.yul\":26713:26715   */\n      0x13\n        /* \"#utility.yul\":26708:26711   */\n      dup4\n        /* \"#utility.yul\":26649:26716   */\n      tag_198\n      jump\t// in\n    tag_511:\n        /* \"#utility.yul\":26642:26716   */\n      swap2\n      pop\n        /* \"#utility.yul\":26725:26818   */\n      tag_512\n        /* \"#utility.yul\":26814:26817   */\n      dup3\n        /* \"#utility.yul\":26725:26818   */\n      tag_260\n      jump\t// in\n    tag_512:\n        /* \"#utility.yul\":26843:26845   */\n      0x20\n        /* \"#utility.yul\":26838:26841   */\n      dup3\n        /* \"#utility.yul\":26834:26846   */\n      add\n        /* \"#utility.yul\":26827:26846   */\n      swap1\n      pop\n        /* \"#utility.yul\":26486:26852   */\n      swap2\n      swap1\n      pop\n      jump\t// out\n        /* \"#utility.yul\":26858:27277   */\n    tag_152:\n        /* \"#utility.yul\":27024:27028   */\n      0x00\n        /* \"#utility.yul\":27062:27064   */\n      0x20\n        /* \"#utility.yul\":27051:27060   */\n      dup3\n        /* \"#utility.yul\":27047:27065   */\n      add\n        /* \"#utility.yul\":27039:27065   */\n      swap1\n      pop\n        /* \"#utility.yul\":27111:27120   */\n      dup2\n        /* \"#utility.yul\":27105:27109   */\n      dup2\n        /* \"#utility.yul\":27101:27121   */\n      sub\n        /* \"#utility.yul\":27097:27098   */\n      0x00\n        /* \"#utility.yul\":27086:27095   */\n      dup4\n        /* \"#utility.yul\":27082:27099   */\n      add\n        /* \"#utility.yul\":27075:27122   */\n      mstore\n        /* \"#utility.yul\":27139:27270   */\n      tag_514\n        /* \"#utility.yul\":27265:27269   */\n      dup2\n        /* \"#utility.yul\":27139:27270   */\n      tag_261\n      jump\t// in\n    tag_514:\n        /* \"#utility.yul\":27131:27270   */\n      swap1\n      pop\n        /* \"#utility.yul\":26858:27277   */\n      swap2\n      swap1\n      pop\n      jump\t// out\n        /* \"#utility.yul\":27283:27451   */\n    tag_262:\n        /* \"#utility.yul\":27423:27443   */\n      0x566f74696e67206e6f7420737461727465640000000000000000000000000000\n        /* \"#utility.yul\":27419:27420   */\n      0x00\n        /* \"#utility.yul\":27411:27417   */\n      dup3\n        /* \"#utility.yul\":27407:27421   */\n      add\n        /* \"#utility.yul\":27400:27444   */\n      mstore\n        /* \"#utility.yul\":27283:27451   */\n      pop\n      jump\t// out\n        /* \"#utility.yul\":27457:27823   */\n    tag_263:\n        /* \"#utility.yul\":27599:27602   */\n      0x00\n        /* \"#utility.yul\":27620:27687   */\n      tag_517\n        /* \"#utility.yul\":27684:27686   */\n      0x12\n        /* \"#utility.yul\":27679:27682   */\n      dup4\n        /* \"#utility.yul\":27620:27687   */\n      tag_198\n      jump\t// in\n    tag_517:\n        /* \"#utility.yul\":27613:27687   */\n      swap2\n      pop\n        /* \"#utility.yul\":27696:27789   */\n      tag_518\n        /* \"#utility.yul\":27785:27788   */\n      dup3\n        /* \"#utility.yul\":27696:27789   */\n      tag_262\n      jump\t// in\n    tag_518:\n        /* \"#utility.yul\":27814:27816   */\n      0x20\n        /* \"#utility.yul\":27809:27812   */\n      dup3\n        /* \"#utility.yul\":27805:27817   */\n      add\n        /* \"#utility.yul\":27798:27817   */\n      swap1\n      pop\n        /* \"#utility.yul\":27457:27823   */\n      swap2\n      swap1\n      pop\n      jump\t// out\n        /* \"#utility.yul\":27829:28248   */\n    tag_155:\n        /* \"#utility.yul\":27995:27999   */\n      0x00\n        /* \"#utility.yul\":28033:28035   */\n      0x20\n        /* \"#utility.yul\":28022:28031   */\n      dup3\n        /* \"#utility.yul\":28018:28036   */\n      add\n        /* \"#utility.yul\":28010:28036   */\n      swap1\n      pop\n        /* \"#utility.yul\":28082:28091   */\n      dup2\n        /* \"#utility.yul\":28076:28080   */\n      dup2\n        /* \"#utility.yul\":28072:28092   */\n      sub\n        /* \"#utility.yul\":28068:28069   */\n      0x00\n        /* \"#utility.yul\":28057:28066   */\n      dup4\n        /* \"#utility.yul\":28053:28070   */\n      add\n        /* \"#utility.yul\":28046:28093   */\n      mstore\n        /* \"#utility.yul\":28110:28241   */\n      tag_520\n        /* \"#utility.yul\":28236:28240   */\n      dup2\n        /* \"#utility.yul\":28110:28241   */\n      tag_263\n      jump\t// in\n    tag_520:\n        /* \"#utility.yul\":28102:28241   */\n      swap1\n      pop\n        /* \"#utility.yul\":27829:28248   */\n      swap2\n      swap1\n      pop\n      jump\t// out\n        /* \"#utility.yul\":28254:28476   */\n    tag_264:\n        /* \"#utility.yul\":28394:28428   */\n      0x43616e64696461746520726567697374726174696f6e206e6f7420646f6e6520\n        /* \"#utility.yul\":28390:28391   */\n      0x00\n        /* \"#utility.yul\":28382:28388   */\n      dup3\n        /* \"#utility.yul\":28378:28392   */\n      add\n        /* \"#utility.yul\":28371:28429   */\n      mstore\n        /* \"#utility.yul\":28463:28468   */\n      0x7965740000000000000000000000000000000000000000000000000000000000\n        /* \"#utility.yul\":28458:28460   */\n      0x20\n        /* \"#utility.yul\":28450:28456   */\n      dup3\n        /* \"#utility.yul\":28446:28461   */\n      add\n        /* \"#utility.yul\":28439:28469   */\n      mstore\n        /* \"#utility.yul\":28254:28476   */\n      pop\n      jump\t// out\n        /* \"#utility.yul\":28482:28848   */\n    tag_265:\n        /* \"#utility.yul\":28624:28627   */\n      0x00\n        /* \"#utility.yul\":28645:28712   */\n      tag_523\n        /* \"#utility.yul\":28709:28711   */\n      0x23\n        /* \"#utility.yul\":28704:28707   */\n      dup4\n        /* \"#utility.yul\":28645:28712   */\n      tag_198\n      jump\t// in\n    tag_523:\n        /* \"#utility.yul\":28638:28712   */\n      swap2\n      pop\n        /* \"#utility.yul\":28721:28814   */\n      tag_524\n        /* \"#utility.yul\":28810:28813   */\n      dup3\n        /* \"#utility.yul\":28721:28814   */\n      tag_264\n      jump\t// in\n    tag_524:\n        /* \"#utility.yul\":28839:28841   */\n      0x40\n        /* \"#utility.yul\":28834:28837   */\n      dup3\n        /* \"#utility.yul\":28830:28842   */\n      add\n        /* \"#utility.yul\":28823:28842   */\n      swap1\n      pop\n        /* \"#utility.yul\":28482:28848   */\n      swap2\n      swap1\n      pop\n      jump\t// out\n        /* \"#utility.yul\":28854:29273   */\n    tag_158:\n        /* \"#utility.yul\":29020:29024   */\n      0x00\n        /* \"#utility.yul\":29058:29060   */\n      0x20\n        /* \"#utility.yul\":29047:29056   */\n      dup3\n        /* \"#utility.yul\":29043:29061   */\n      add\n        /* \"#utility.yul\":29035:29061   */\n      swap1\n      pop\n        /* \"#utility.yul\":29107:29116   */\n      dup2\n        /* \"#utility.yul\":29101:29105   */\n      dup2\n        /* \"#utility.yul\":29097:29117   */\n      sub\n        /* \"#utility.yul\":29093:29094   */\n      0x00\n        /* \"#utility.yul\":29082:29091   */\n      dup4\n        /* \"#utility.yul\":29078:29095   */\n      add\n        /* \"#utility.yul\":29071:29118   */\n      mstore\n        /* \"#utility.yul\":29135:29266   */\n      tag_526\n        /* \"#utility.yul\":29261:29265   */\n      dup2\n        /* \"#utility.yul\":29135:29266   */\n      tag_265\n      jump\t// in\n    tag_526:\n        /* \"#utility.yul\":29127:29266   */\n      swap1\n      pop\n        /* \"#utility.yul\":28854:29273   */\n      swap2\n      swap1\n      pop\n      jump\t// out\n        /* \"#utility.yul\":29279:29449   */\n    tag_266:\n        /* \"#utility.yul\":29419:29441   */\n      0x696e76616c69642043616e646964617465204964000000000000000000000000\n        /* \"#utility.yul\":29415:29416   */\n      0x00\n        /* \"#utility.yul\":29407:29413   */\n      dup3\n        /* \"#utility.yul\":29403:29417   */\n      add\n        /* \"#utility.yul\":29396:29442   */\n      mstore\n        /* \"#utility.yul\":29279:29449   */\n      pop\n      jump\t// out\n        /* \"#utility.yul\":29455:29821   */\n    tag_267:\n        /* \"#utility.yul\":29597:29600   */\n      0x00\n        /* \"#utility.yul\":29618:29685   */\n      tag_529\n        /* \"#utility.yul\":29682:29684   */\n      0x14\n        /* \"#utility.yul\":29677:29680   */\n      dup4\n        /* \"#utility.yul\":29618:29685   */\n      tag_198\n      jump\t// in\n    tag_529:\n        /* \"#utility.yul\":29611:29685   */\n      swap2\n      pop\n        /* \"#utility.yul\":29694:29787   */\n      tag_530\n        /* \"#utility.yul\":29783:29786   */\n      dup3\n        /* \"#utility.yul\":29694:29787   */\n      tag_266\n      jump\t// in\n    tag_530:\n        /* \"#utility.yul\":29812:29814   */\n      0x20\n        /* \"#utility.yul\":29807:29810   */\n      dup3\n        /* \"#utility.yul\":29803:29815   */\n      add\n        /* \"#utility.yul\":29796:29815   */\n      swap1\n      pop\n        /* \"#utility.yul\":29455:29821   */\n      swap2\n      swap1\n      pop\n      jump\t// out\n        /* \"#utility.yul\":29827:30246   */\n    tag_162:\n        /* \"#utility.yul\":29993:29997   */\n      0x00\n        /* \"#utility.yul\":30031:30033   */\n      0x20\n        /* \"#utility.yul\":30020:30029   */\n      dup3\n        /* \"#utility.yul\":30016:30034   */\n      add\n        /* \"#utility.yul\":30008:30034   */\n      swap1\n      pop\n        /* \"#utility.yul\":30080:30089   */\n      dup2\n        /* \"#utility.yul\":30074:30078   */\n      dup2\n        /* \"#utility.yul\":30070:30090   */\n      sub\n        /* \"#utility.yul\":30066:30067   */\n      0x00\n        /* \"#utility.yul\":30055:30064   */\n      dup4\n        /* \"#utility.yul\":30051:30068   */\n      add\n        /* \"#utility.yul\":30044:30091   */\n      mstore\n        /* \"#utility.yul\":30108:30239   */\n      tag_532\n        /* \"#utility.yul\":30234:30238   */\n      dup2\n        /* \"#utility.yul\":30108:30239   */\n      tag_267\n      jump\t// in\n    tag_532:\n        /* \"#utility.yul\":30100:30239   */\n      swap1\n      pop\n        /* \"#utility.yul\":29827:30246   */\n      swap2\n      swap1\n      pop\n      jump\t// out\n        /* \"#utility.yul\":30252:30433   */\n    tag_268:\n        /* \"#utility.yul\":30392:30425   */\n      0x596f75206172652066726f6d20656c656374696f6e20636f6d6d6973696f6e00\n        /* \"#utility.yul\":30388:30389   */\n      0x00\n        /* \"#utility.yul\":30380:30386   */\n      dup3\n        /* \"#utility.yul\":30376:30390   */\n      add\n        /* \"#utility.yul\":30369:30426   */\n      mstore\n        /* \"#utility.yul\":30252:30433   */\n      pop\n      jump\t// out\n        /* \"#utility.yul\":30439:30805   */\n    tag_269:\n        /* \"#utility.yul\":30581:30584   */\n      0x00\n        /* \"#utility.yul\":30602:30669   */\n      tag_535\n        /* \"#utility.yul\":30666:30668   */\n      0x1f\n        /* \"#utility.yul\":30661:30664   */\n      dup4\n        /* \"#utility.yul\":30602:30669   */\n      tag_198\n      jump\t// in\n    tag_535:\n        /* \"#utility.yul\":30595:30669   */\n      swap2\n      pop\n        /* \"#utility.yul\":30678:30771   */\n      tag_536\n        /* \"#utility.yul\":30767:30770   */\n      dup3\n        /* \"#utility.yul\":30678:30771   */\n      tag_268\n      jump\t// in\n    tag_536:\n        /* \"#utility.yul\":30796:30798   */\n      0x20\n        /* \"#utility.yul\":30791:30794   */\n      dup3\n        /* \"#utility.yul\":30787:30799   */\n      add\n        /* \"#utility.yul\":30780:30799   */\n      swap1\n      pop\n        /* \"#utility.yul\":30439:30805   */\n      swap2\n      swap1\n      pop\n      jump\t// out\n        /* \"#utility.yul\":30811:31230   */\n    tag_171:\n        /* \"#utility.yul\":30977:30981   */\n      0x00\n        /* \"#utility.yul\":31015:31017   */\n      0x20\n        /* \"#utility.yul\":31004:31013   */\n      dup3\n        /* \"#utility.yul\":31000:31018   */\n      add\n        /* \"#utility.yul\":30992:31018   */\n      swap1\n      pop\n        /* \"#utility.yul\":31064:31073   */\n      dup2\n        /* \"#utility.yul\":31058:31062   */\n      dup2\n        /* \"#utility.yul\":31054:31074   */\n      sub\n        /* \"#utility.yul\":31050:31051   */\n      0x00\n        /* \"#utility.yul\":31039:31048   */\n      dup4\n        /* \"#utility.yul\":31035:31052   */\n      add\n        /* \"#utility.yul\":31028:31075   */\n      mstore\n        /* \"#utility.yul\":31092:31223   */\n      tag_538\n        /* \"#utility.yul\":31218:31222   */\n      dup2\n        /* \"#utility.yul\":31092:31223   */\n      tag_269\n      jump\t// in\n    tag_538:\n        /* \"#utility.yul\":31084:31223   */\n      swap1\n      pop\n        /* \"#utility.yul\":30811:31230   */\n      swap2\n      swap1\n      pop\n      jump\t// out\n        /* \"#utility.yul\":31236:31414   */\n    tag_270:\n        /* \"#utility.yul\":31376:31406   */\n      0x43616e64696461746520616c7265616479207265676973746572656400000000\n        /* \"#utility.yul\":31372:31373   */\n      0x00\n        /* \"#utility.yul\":31364:31370   */\n      dup3\n        /* \"#utility.yul\":31360:31374   */\n      add\n        /* \"#utility.yul\":31353:31407   */\n      mstore\n        /* \"#utility.yul\":31236:31414   */\n      pop\n      jump\t// out\n        /* \"#utility.yul\":31420:31786   */\n    tag_271:\n        /* \"#utility.yul\":31562:31565   */\n      0x00\n        /* \"#utility.yul\":31583:31650   */\n      tag_541\n        /* \"#utility.yul\":31647:31649   */\n      0x1c\n        /* \"#utility.yul\":31642:31645   */\n      dup4\n        /* \"#utility.yul\":31583:31650   */\n      tag_198\n      jump\t// in\n    tag_541:\n        /* \"#utility.yul\":31576:31650   */\n      swap2\n      pop\n        /* \"#utility.yul\":31659:31752   */\n      tag_542\n        /* \"#utility.yul\":31748:31751   */\n      dup3\n        /* \"#utility.yul\":31659:31752   */\n      tag_270\n      jump\t// in\n    tag_542:\n        /* \"#utility.yul\":31777:31779   */\n      0x20\n        /* \"#utility.yul\":31772:31775   */\n      dup3\n        /* \"#utility.yul\":31768:31780   */\n      add\n        /* \"#utility.yul\":31761:31780   */\n      swap1\n      pop\n        /* \"#utility.yul\":31420:31786   */\n      swap2\n      swap1\n      pop\n      jump\t// out\n        /* \"#utility.yul\":31792:32211   */\n    tag_176:\n        /* \"#utility.yul\":31958:31962   */\n      0x00\n        /* \"#utility.yul\":31996:31998   */\n      0x20\n        /* \"#utility.yul\":31985:31994   */\n      dup3\n        /* \"#utility.yul\":31981:31999   */\n      add\n        /* \"#utility.yul\":31973:31999   */\n      swap1\n      pop\n        /* \"#utility.yul\":32045:32054   */\n      dup2\n        /* \"#utility.yul\":32039:32043   */\n      dup2\n        /* \"#utility.yul\":32035:32055   */\n      sub\n        /* \"#utility.yul\":32031:32032   */\n      0x00\n        /* \"#utility.yul\":32020:32029   */\n      dup4\n        /* \"#utility.yul\":32016:32033   */\n      add\n        /* \"#utility.yul\":32009:32056   */\n      mstore\n        /* \"#utility.yul\":32073:32204   */\n      tag_544\n        /* \"#utility.yul\":32199:32203   */\n      dup2\n        /* \"#utility.yul\":32073:32204   */\n      tag_271\n      jump\t// in\n    tag_544:\n        /* \"#utility.yul\":32065:32204   */\n      swap1\n      pop\n        /* \"#utility.yul\":31792:32211   */\n      swap2\n      swap1\n      pop\n      jump\t// out\n        /* \"#utility.yul\":32217:32387   */\n    tag_272:\n        /* \"#utility.yul\":32357:32379   */\n      0x596f7520617265206e6f7420656c696769626c65000000000000000000000000\n        /* \"#utility.yul\":32353:32354   */\n      0x00\n        /* \"#utility.yul\":32345:32351   */\n      dup3\n        /* \"#utility.yul\":32341:32355   */\n      add\n        /* \"#utility.yul\":32334:32380   */\n      mstore\n        /* \"#utility.yul\":32217:32387   */\n      pop\n      jump\t// out\n        /* \"#utility.yul\":32393:32759   */\n    tag_273:\n        /* \"#utility.yul\":32535:32538   */\n      0x00\n        /* \"#utility.yul\":32556:32623   */\n      tag_547\n        /* \"#utility.yul\":32620:32622   */\n      0x14\n        /* \"#utility.yul\":32615:32618   */\n      dup4\n        /* \"#utility.yul\":32556:32623   */\n      tag_198\n      jump\t// in\n    tag_547:\n        /* \"#utility.yul\":32549:32623   */\n      swap2\n      pop\n        /* \"#utility.yul\":32632:32725   */\n      tag_548\n        /* \"#utility.yul\":32721:32724   */\n      dup3\n        /* \"#utility.yul\":32632:32725   */\n      tag_272\n      jump\t// in\n    tag_548:\n        /* \"#utility.yul\":32750:32752   */\n      0x20\n        /* \"#utility.yul\":32745:32748   */\n      dup3\n        /* \"#utility.yul\":32741:32753   */\n      add\n        /* \"#utility.yul\":32734:32753   */\n      swap1\n      pop\n        /* \"#utility.yul\":32393:32759   */\n      swap2\n      swap1\n      pop\n      jump\t// out\n        /* \"#utility.yul\":32765:33184   */\n    tag_179:\n        /* \"#utility.yul\":32931:32935   */\n      0x00\n        /* \"#utility.yul\":32969:32971   */\n      0x20\n        /* \"#utility.yul\":32958:32967   */\n      dup3\n        /* \"#utility.yul\":32954:32972   */\n      add\n        /* \"#utility.yul\":32946:32972   */\n      swap1\n      pop\n        /* \"#utility.yul\":33018:33027   */\n      dup2\n        /* \"#utility.yul\":33012:33016   */\n      dup2\n        /* \"#utility.yul\":33008:33028   */\n      sub\n        /* \"#utility.yul\":33004:33005   */\n      0x00\n        /* \"#utility.yul\":32993:33002   */\n      dup4\n        /* \"#utility.yul\":32989:33006   */\n      add\n        /* \"#utility.yul\":32982:33029   */\n      mstore\n        /* \"#utility.yul\":33046:33177   */\n      tag_550\n        /* \"#utility.yul\":33172:33176   */\n      dup2\n        /* \"#utility.yul\":33046:33177   */\n      tag_273\n      jump\t// in\n    tag_550:\n        /* \"#utility.yul\":33038:33177   */\n      swap1\n      pop\n        /* \"#utility.yul\":32765:33184   */\n      swap2\n      swap1\n      pop\n      jump\t// out\n        /* \"#utility.yul\":33190:33370   */\n    tag_274:\n        /* \"#utility.yul\":33330:33362   */\n      0x43616e64696461746520526567697374726174696f6e2069732066756c6c0000\n        /* \"#utility.yul\":33326:33327   */\n      0x00\n        /* \"#utility.yul\":33318:33324   */\n      dup3\n        /* \"#utility.yul\":33314:33328   */\n      add\n        /* \"#utility.yul\":33307:33363   */\n      mstore\n        /* \"#utility.yul\":33190:33370   */\n      pop\n      jump\t// out\n        /* \"#utility.yul\":33376:33742   */\n    tag_275:\n        /* \"#utility.yul\":33518:33521   */\n      0x00\n        /* \"#utility.yul\":33539:33606   */\n      tag_553\n        /* \"#utility.yul\":33603:33605   */\n      0x1e\n        /* \"#utility.yul\":33598:33601   */\n      dup4\n        /* \"#utility.yul\":33539:33606   */\n      tag_198\n      jump\t// in\n    tag_553:\n        /* \"#utility.yul\":33532:33606   */\n      swap2\n      pop\n        /* \"#utility.yul\":33615:33708   */\n      tag_554\n        /* \"#utility.yul\":33704:33707   */\n      dup3\n        /* \"#utility.yul\":33615:33708   */\n      tag_274\n      jump\t// in\n    tag_554:\n        /* \"#utility.yul\":33733:33735   */\n      0x20\n        /* \"#utility.yul\":33728:33731   */\n      dup3\n        /* \"#utility.yul\":33724:33736   */\n      add\n        /* \"#utility.yul\":33717:33736   */\n      swap1\n      pop\n        /* \"#utility.yul\":33376:33742   */\n      swap2\n      swap1\n      pop\n      jump\t// out\n        /* \"#utility.yul\":33748:34167   */\n    tag_182:\n        /* \"#utility.yul\":33914:33918   */\n      0x00\n        /* \"#utility.yul\":33952:33954   */\n      0x20\n        /* \"#utility.yul\":33941:33950   */\n      dup3\n        /* \"#utility.yul\":33937:33955   */\n      add\n        /* \"#utility.yul\":33929:33955   */\n      swap1\n      pop\n        /* \"#utility.yul\":34001:34010   */\n      dup2\n        /* \"#utility.yul\":33995:33999   */\n      dup2\n        /* \"#utility.yul\":33991:34011   */\n      sub\n        /* \"#utility.yul\":33987:33988   */\n      0x00\n        /* \"#utility.yul\":33976:33985   */\n      dup4\n        /* \"#utility.yul\":33972:33989   */\n      add\n        /* \"#utility.yul\":33965:34012   */\n      mstore\n        /* \"#utility.yul\":34029:34160   */\n      tag_556\n        /* \"#utility.yul\":34155:34159   */\n      dup2\n        /* \"#utility.yul\":34029:34160   */\n      tag_275\n      jump\t// in\n    tag_556:\n        /* \"#utility.yul\":34021:34160   */\n      swap1\n      pop\n        /* \"#utility.yul\":33748:34167   */\n      swap2\n      swap1\n      pop\n      jump\t// out\n\n    auxdata: 0xa26469706673582212205d3ca11d3aa1dcf5e2bb57c8152f7364feb5f29430daabb2d3ed0ea8a1470e2364736f6c63430008170033\n}\n",
				"bytecode": {
					"linkReferences": {},
					"object": "608060405260016002556001600355348015610019575f80fd5b50335f806101000a81548173ffffffffffffffffffffffffffffffffffffffff021916908373ffffffffffffffffffffffffffffffffffffffff16021790555061247d806100665f395ff3fe608060405234801561000f575f80fd5b506004361061009c575f3560e01c806393e5fed21161006457806393e5fed214610120578063b384abef1461013c578063caa6fea414610158578063cf5ce2e714610162578063dfbf53ae1461017e5761009c565b806319f41a40146100a057806324089918146100be578063498ea441146100dc57806365372147146100fa57806365ca2be314610104575b5f80fd5b6100a861019c565b6040516100b591906114e5565b60405180910390f35b6100c6610292565b6040516100d391906116ec565b60405180910390f35b6100e46104f6565b6040516100f1919061186e565b60405180910390f35b6101026107ea565b005b61011e600480360381019061011991906118c0565b61098a565b005b61013a6004803603810190610135919061195f565b610a41565b005b610156600480360381019061015191906118c0565b610c61565b005b610160610e74565b005b61017c600480360381019061017791906119f0565b610f1d565b005b61018661126f565b6040516101939190611ac3565b60405180910390f35b60605f600454036101e4576040518060400160405280601681526020017f566f74696e6720686173206e6f74207374617274656400000000000000000000815250905061028f565b5f600454141580156101f7575042600554115b801561021457505f151560085f9054906101000a900460ff161515145b15610256576040518060400160405280600b81526020017f496e2070726f6772657373000000000000000000000000000000000000000000815250905061028f565b6040518060400160405280600581526020017f456e64656400000000000000000000000000000000000000000000000000000081525090505b90565b60605f60016002546102a49190611b09565b67ffffffffffffffff8111156102bd576102bc611b3c565b5b6040519080825280602002602001820160405280156102f657816020015b6102e36113c4565b8152602001906001900390816102db5790505b5090505f600190505b6002548110156104ee5760065f8281526020019081526020015f206040518060c00160405290815f8201805461033490611b96565b80601f016020809104026020016040519081016040528092919081815260200182805461036090611b96565b80156103ab5780601f10610382576101008083540402835291602001916103ab565b820191905f5260205f20905b81548152906001019060200180831161038e57829003601f168201915b5050505050815260200160018201548152602001600282015481526020016003820180546103d890611b96565b80601f016020809104026020016040519081016040528092919081815260200182805461040490611b96565b801561044f5780601f106104265761010080835404028352916020019161044f565b820191905f5260205f20905b81548152906001019060200180831161043257829003601f168201915b5050505050815260200160048201548152602001600582015f9054906101000a900473ffffffffffffffffffffffffffffffffffffffff1673ffffffffffffffffffffffffffffffffffffffff1673ffffffffffffffffffffffffffffffffffffffff1681525050826001836104c59190611b09565b815181106104d6576104d5611bc6565b5b602002602001018190525080806001019150506102ff565b508091505090565b60605f60016003546105089190611b09565b67ffffffffffffffff81111561052157610520611b3c565b5b60405190808252806020026020018201604052801561055a57816020015b61054761140c565b81526020019060019003908161053f5790505b5090505f600190505b6003548110156107e25760075f8281526020019081526020015f206040518060e00160405290815f8201805461059890611b96565b80601f01602080910402602001604051908101604052809291908181526020018280546105c490611b96565b801561060f5780601f106105e65761010080835404028352916020019161060f565b820191905f5260205f20905b8154815290600101906020018083116105f257829003601f168201915b5050505050815260200160018201805461062890611b96565b80601f016020809104026020016040519081016040528092919081815260200182805461065490611b96565b801561069f5780601f106106765761010080835404028352916020019161069f565b820191905f5260205f20905b81548152906001019060200180831161068257829003601f168201915b50505050508152602001600282015481526020016003820180546106c290611b96565b80601f01602080910402602001604051908101604052809291908181526020018280546106ee90611b96565b80156107395780601f1061071057610100808354040283529160200191610739565b820191905f5260205f20905b81548152906001019060200180831161071c57829003601f168201915b5050505050815260200160048201548152602001600582015f9054906101000a900473ffffffffffffffffffffffffffffffffffffffff1673ffffffffffffffffffffffffffffffffffffffff1673ffffffffffffffffffffffffffffffffffffffff168152602001600682015481525050826001836107b99190611b09565b815181106107ca576107c9611bc6565b5b60200260200101819052508080600101915050610563565b508091505090565b3373ffffffffffffffffffffffffffffffffffffffff165f8054906101000a900473ffffffffffffffffffffffffffffffffffffffff1673ffffffffffffffffffffffffffffffffffffffff1614610877576040517f08c379a000000000000000000000000000000000000000000000000000000000815260040161086e90611c3d565b60405180910390fd5b6001600354116108bc576040517f08c379a00000000000000000000000000000000000000000000000000000000081526004016108b390611ca5565b60405180910390fd5b5f8080600190505b600354811015610945578260075f8381526020019081526020015f206006015411156109385760075f8281526020019081526020015f2060060154925060075f8281526020019081526020015f206005015f9054906101000a900473ffffffffffffffffffffffffffffffffffffffff1691505b80806001019150506108c4565b508060015f6101000a81548173ffffffffffffffffffffffffffffffffffffffff021916908373ffffffffffffffffffffffffffffffffffffffff1602179055505050565b3373ffffffffffffffffffffffffffffffffffffffff165f8054906101000a900473ffffffffffffffffffffffffffffffffffffffff1673ffffffffffffffffffffffffffffffffffffffff1614610a17576040517f08c379a0000000000000000000000000000000000000000000000000000000008152600401610a0e90611c3d565b60405180910390fd5b8142610a239190611cc3565b60048190555080600454610a379190611cc3565b6005819055505050565b60011515610a4e33611294565b151514610a90576040517f08c379a0000000000000000000000000000000000000000000000000000000008152600401610a8790611d40565b60405180910390fd5b6012831015610ad4576040517f08c379a0000000000000000000000000000000000000000000000000000000008152600401610acb90611da8565b60405180910390fd5b6040518060c0016040528086868080601f0160208091040260200160405190810160405280939291908181526020018383808284375f81840152601f19601f820116905080830192505050505050508152602001848152602001600254815260200183838080601f0160208091040260200160405190810160405280939291908181526020018383808284375f81840152601f19601f8201169050808301925050505050505081526020015f81526020013373ffffffffffffffffffffffffffffffffffffffff1681525060065f60025481526020019081526020015f205f820151815f019081610bc59190611f63565b5060208201518160010155604082015181600201556060820151816003019081610bef9190611f63565b506080820151816004015560a0820151816005015f6101000a81548173ffffffffffffffffffffffffffffffffffffffff021916908373ffffffffffffffffffffffffffffffffffffffff16021790555090505060025f815480929190610c5590612032565b91905055505050505050565b5f60065f8481526020019081526020015f206004015414610cb7576040517f08c379a0000000000000000000000000000000000000000000000000000000008152600401610cae906120c3565b60405180910390fd5b3373ffffffffffffffffffffffffffffffffffffffff1660065f8481526020019081526020015f206005015f9054906101000a900473ffffffffffffffffffffffffffffffffffffffff1673ffffffffffffffffffffffffffffffffffffffff1614610d58576040517f08c379a0000000000000000000000000000000000000000000000000000000008152600401610d4f9061212b565b60405180910390fd5b5f60045403610d9c576040517f08c379a0000000000000000000000000000000000000000000000000000000008152600401610d9390612193565b60405180910390fd5b6003805414610de0576040517f08c379a0000000000000000000000000000000000000000000000000000000008152600401610dd790612221565b60405180910390fd5b5f81118015610def5750600381105b610e2e576040517f08c379a0000000000000000000000000000000000000000000000000000000008152600401610e2590612289565b60405180910390fd5b8060065f8481526020019081526020015f206004018190555060075f8281526020019081526020015f206006015f815480929190610e6b90612032565b91905055505050565b3373ffffffffffffffffffffffffffffffffffffffff165f8054906101000a900473ffffffffffffffffffffffffffffffffffffffff1673ffffffffffffffffffffffffffffffffffffffff1614610f01576040517f08c379a0000000000000000000000000000000000000000000000000000000008152600401610ef890611c3d565b60405180910390fd5b600160085f6101000a81548160ff021916908315150217905550565b5f8054906101000a900473ffffffffffffffffffffffffffffffffffffffff1673ffffffffffffffffffffffffffffffffffffffff163373ffffffffffffffffffffffffffffffffffffffff1603610faa576040517f08c379a0000000000000000000000000000000000000000000000000000000008152600401610fa1906122f1565b60405180910390fd5b60011515610fb73361132c565b151514610ff9576040517f08c379a0000000000000000000000000000000000000000000000000000000008152600401610ff090612359565b60405180910390fd5b601283101561103d576040517f08c379a0000000000000000000000000000000000000000000000000000000008152600401611034906123c1565b60405180910390fd5b6003805410611081576040517f08c379a000000000000000000000000000000000000000000000000000000000815260040161107890612429565b60405180910390fd5b6040518060e0016040528088888080601f0160208091040260200160405190810160405280939291908181526020018383808284375f81840152601f19601f82011690508083019250505050505050815260200186868080601f0160208091040260200160405190810160405280939291908181526020018383808284375f81840152601f19601f82011690508083019250505050505050815260200184815260200183838080601f0160208091040260200160405190810160405280939291908181526020018383808284375f81840152601f19601f82011690508083019250505050505050815260200160035481526020013373ffffffffffffffffffffffffffffffffffffffff1681526020015f81525060075f60035481526020019081526020015f205f820151815f0190816111bb9190611f63565b5060208201518160010190816111d19190611f63565b506040820151816002015560608201518160030190816111f19190611f63565b506080820151816004015560a0820151816005015f6101000a81548173ffffffffffffffffffffffffffffffffffffffff021916908373ffffffffffffffffffffffffffffffffffffffff16021790555060c0820151816006015590505060035f81548092919061126190612032565b919050555050505050505050565b60015f9054906101000a900473ffffffffffffffffffffffffffffffffffffffff1681565b5f80600190505b600254811015611321578273ffffffffffffffffffffffffffffffffffffffff1660065f8381526020019081526020015f206005015f9054906101000a900473ffffffffffffffffffffffffffffffffffffffff1673ffffffffffffffffffffffffffffffffffffffff1603611314575f915050611327565b808060010191505061129b565b50600190505b919050565b5f80600190505b6003548110156113b9578273ffffffffffffffffffffffffffffffffffffffff1660075f8381526020019081526020015f206005015f9054906101000a900473ffffffffffffffffffffffffffffffffffffffff1673ffffffffffffffffffffffffffffffffffffffff16036113ac575f9150506113bf565b8080600101915050611333565b50600190505b919050565b6040518060c00160405280606081526020015f81526020015f8152602001606081526020015f81526020015f73ffffffffffffffffffffffffffffffffffffffff1681525090565b6040518060e0016040528060608152602001606081526020015f8152602001606081526020015f81526020015f73ffffffffffffffffffffffffffffffffffffffff1681526020015f81525090565b5f81519050919050565b5f82825260208201905092915050565b5f5b83811015611492578082015181840152602081019050611477565b5f8484015250505050565b5f601f19601f8301169050919050565b5f6114b78261145b565b6114c18185611465565b93506114d1818560208601611475565b6114da8161149d565b840191505092915050565b5f6020820190508181035f8301526114fd81846114ad565b905092915050565b5f81519050919050565b5f82825260208201905092915050565b5f819050602082019050919050565b5f82825260208201905092915050565b5f6115488261145b565b611552818561152e565b9350611562818560208601611475565b61156b8161149d565b840191505092915050565b5f819050919050565b61158881611576565b82525050565b5f73ffffffffffffffffffffffffffffffffffffffff82169050919050565b5f6115b78261158e565b9050919050565b6115c7816115ad565b82525050565b5f60c083015f8301518482035f8601526115e7828261153e565b91505060208301516115fc602086018261157f565b50604083015161160f604086018261157f565b5060608301518482036060860152611627828261153e565b915050608083015161163c608086018261157f565b5060a083015161164f60a08601826115be565b508091505092915050565b5f61166583836115cd565b905092915050565b5f602082019050919050565b5f61168382611505565b61168d818561150f565b93508360208202850161169f8561151f565b805f5b858110156116da57848403895281516116bb858261165a565b94506116c68361166d565b925060208a019950506001810190506116a2565b50829750879550505050505092915050565b5f6020820190508181035f8301526117048184611679565b905092915050565b5f81519050919050565b5f82825260208201905092915050565b5f819050602082019050919050565b5f60e083015f8301518482035f86015261174f828261153e565b91505060208301518482036020860152611769828261153e565b915050604083015161177e604086018261157f565b5060608301518482036060860152611796828261153e565b91505060808301516117ab608086018261157f565b5060a08301516117be60a08601826115be565b5060c08301516117d160c086018261157f565b508091505092915050565b5f6117e78383611735565b905092915050565b5f602082019050919050565b5f6118058261170c565b61180f8185611716565b93508360208202850161182185611726565b805f5b8581101561185c578484038952815161183d85826117dc565b9450611848836117ef565b925060208a01995050600181019050611824565b50829750879550505050505092915050565b5f6020820190508181035f83015261188681846117fb565b905092915050565b5f80fd5b5f80fd5b61189f81611576565b81146118a9575f80fd5b50565b5f813590506118ba81611896565b92915050565b5f80604083850312156118d6576118d561188e565b5b5f6118e3858286016118ac565b92505060206118f4858286016118ac565b9150509250929050565b5f80fd5b5f80fd5b5f80fd5b5f8083601f84011261191f5761191e6118fe565b5b8235905067ffffffffffffffff81111561193c5761193b611902565b5b60208301915083600182028301111561195857611957611906565b5b9250929050565b5f805f805f606086880312156119785761197761188e565b5b5f86013567ffffffffffffffff81111561199557611994611892565b5b6119a18882890161190a565b955095505060206119b4888289016118ac565b935050604086013567ffffffffffffffff8111156119d5576119d4611892565b5b6119e18882890161190a565b92509250509295509295909350565b5f805f805f805f6080888a031215611a0b57611a0a61188e565b5b5f88013567ffffffffffffffff811115611a2857611a27611892565b5b611a348a828b0161190a565b9750975050602088013567ffffffffffffffff811115611a5757611a56611892565b5b611a638a828b0161190a565b95509550506040611a768a828b016118ac565b935050606088013567ffffffffffffffff811115611a9757611a96611892565b5b611aa38a828b0161190a565b925092505092959891949750929550565b611abd816115ad565b82525050565b5f602082019050611ad65f830184611ab4565b92915050565b7f4e487b71000000000000000000000000000000000000000000000000000000005f52601160045260245ffd5b5f611b1382611576565b9150611b1e83611576565b9250828203905081811115611b3657611b35611adc565b5b92915050565b7f4e487b71000000000000000000000000000000000000000000000000000000005f52604160045260245ffd5b7f4e487b71000000000000000000000000000000000000000000000000000000005f52602260045260245ffd5b5f6002820490506001821680611bad57607f821691505b602082108103611bc057611bbf611b69565b5b50919050565b7f4e487b71000000000000000000000000000000000000000000000000000000005f52603260045260245ffd5b7f4e6f742066726f6d20656c656374696f6e20636f6d6d697373696f6e000000005f82015250565b5f611c27601c83611465565b9150611c3282611bf3565b602082019050919050565b5f6020820190508181035f830152611c5481611c1b565b9050919050565b7f4e6f2063616e64696461746573207265676973746572656400000000000000005f82015250565b5f611c8f601883611465565b9150611c9a82611c5b565b602082019050919050565b5f6020820190508181035f830152611cbc81611c83565b9050919050565b5f611ccd82611576565b9150611cd883611576565b9250828201905080821115611cf057611cef611adc565b5b92915050565b7f566f74657220616c7265616479207265676973746572656400000000000000005f82015250565b5f611d2a601883611465565b9150611d3582611cf6565b602082019050919050565b5f6020820190508181035f830152611d5781611d1e565b9050919050565b7f796f7520617265206e6f7420656c696769626c650000000000000000000000005f82015250565b5f611d92601483611465565b9150611d9d82611d5e565b602082019050919050565b5f6020820190508181035f830152611dbf81611d86565b9050919050565b5f819050815f5260205f209050919050565b5f6020601f8301049050919050565b5f82821b905092915050565b5f60088302611e227fffffffffffffffffffffffffffffffffffffffffffffffffffffffffffffffff82611de7565b611e2c8683611de7565b95508019841693508086168417925050509392505050565b5f819050919050565b5f611e67611e62611e5d84611576565b611e44565b611576565b9050919050565b5f819050919050565b611e8083611e4d565b611e94611e8c82611e6e565b848454611df3565b825550505050565b5f90565b611ea8611e9c565b611eb3818484611e77565b505050565b5b81811015611ed657611ecb5f82611ea0565b600181019050611eb9565b5050565b601f821115611f1b57611eec81611dc6565b611ef584611dd8565b81016020851015611f04578190505b611f18611f1085611dd8565b830182611eb8565b50505b505050565b5f82821c905092915050565b5f611f3b5f1984600802611f20565b1980831691505092915050565b5f611f538383611f2c565b9150826002028217905092915050565b611f6c8261145b565b67ffffffffffffffff811115611f8557611f84611b3c565b5b611f8f8254611b96565b611f9a828285611eda565b5f60209050601f831160018114611fcb575f8415611fb9578287015190505b611fc38582611f48565b86555061202a565b601f198416611fd986611dc6565b5f5b8281101561200057848901518255600182019150602085019450602081019050611fdb565b8683101561201d5784890151612019601f891682611f2c565b8355505b6001600288020188555050505b505050505050565b5f61203c82611576565b91507fffffffffffffffffffffffffffffffffffffffffffffffffffffffffffffffff820361206e5761206d611adc565b5b600182019050919050565b7f416c726561647920766f746564000000000000000000000000000000000000005f82015250565b5f6120ad600d83611465565b91506120b882612079565b602082019050919050565b5f6020820190508181035f8301526120da816120a1565b9050919050565b7f796f7520617265206e6f74206120766f746572000000000000000000000000005f82015250565b5f612115601383611465565b9150612120826120e1565b602082019050919050565b5f6020820190508181035f83015261214281612109565b9050919050565b7f566f74696e67206e6f74207374617274656400000000000000000000000000005f82015250565b5f61217d601283611465565b915061218882612149565b602082019050919050565b5f6020820190508181035f8301526121aa81612171565b9050919050565b7f43616e64696461746520726567697374726174696f6e206e6f7420646f6e65205f8201527f7965740000000000000000000000000000000000000000000000000000000000602082015250565b5f61220b602383611465565b9150612216826121b1565b604082019050919050565b5f6020820190508181035f830152612238816121ff565b9050919050565b7f696e76616c69642043616e6469646174652049640000000000000000000000005f82015250565b5f612273601483611465565b915061227e8261223f565b602082019050919050565b5f6020820190508181035f8301526122a081612267565b9050919050565b7f596f75206172652066726f6d20656c656374696f6e20636f6d6d6973696f6e005f82015250565b5f6122db601f83611465565b91506122e6826122a7565b602082019050919050565b5f6020820190508181035f830152612308816122cf565b9050919050565b7f43616e64696461746520616c72656164792072656769737465726564000000005f82015250565b5f612343601c83611465565b915061234e8261230f565b602082019050919050565b5f6020820190508181035f83015261237081612337565b9050919050565b7f596f7520617265206e6f7420656c696769626c650000000000000000000000005f82015250565b5f6123ab601483611465565b91506123b682612377565b602082019050919050565b5f6020820190508181035f8301526123d88161239f565b9050919050565b7f43616e64696461746520526567697374726174696f6e2069732066756c6c00005f82015250565b5f612413601e83611465565b915061241e826123df565b602082019050919050565b5f6020820190508181035f83015261244081612407565b905091905056fea26469706673582212205d3ca11d3aa1dcf5e2bb57c8152f7364feb5f29430daabb2d3ed0ea8a1470e2364736f6c63430008170033",
					"opcodes": "PUSH1 0x80 PUSH1 0x40 MSTORE PUSH1 0x1 PUSH1 0x2 SSTORE PUSH1 0x1 PUSH1 0x3 SSTORE CALLVALUE DUP1 ISZERO PUSH2 0x19 JUMPI PUSH0 DUP1 REVERT JUMPDEST POP CALLER PUSH0 DUP1 PUSH2 0x100 EXP DUP2 SLOAD DUP2 PUSH20 0xFFFFFFFFFFFFFFFFFFFFFFFFFFFFFFFFFFFFFFFF MUL NOT AND SWAP1 DUP4 PUSH20 0xFFFFFFFFFFFFFFFFFFFFFFFFFFFFFFFFFFFFFFFF AND MUL OR SWAP1 SSTORE POP PUSH2 0x247D DUP1 PUSH2 0x66 PUSH0 CODECOPY PUSH0 RETURN INVALID PUSH1 0x80 PUSH1 0x40 MSTORE CALLVALUE DUP1 ISZERO PUSH2 0xF JUMPI PUSH0 DUP1 REVERT JUMPDEST POP PUSH1 0x4 CALLDATASIZE LT PUSH2 0x9C JUMPI PUSH0 CALLDATALOAD PUSH1 0xE0 SHR DUP1 PUSH4 0x93E5FED2 GT PUSH2 0x64 JUMPI DUP1 PUSH4 0x93E5FED2 EQ PUSH2 0x120 JUMPI DUP1 PUSH4 0xB384ABEF EQ PUSH2 0x13C JUMPI DUP1 PUSH4 0xCAA6FEA4 EQ PUSH2 0x158 JUMPI DUP1 PUSH4 0xCF5CE2E7 EQ PUSH2 0x162 JUMPI DUP1 PUSH4 0xDFBF53AE EQ PUSH2 0x17E JUMPI PUSH2 0x9C JUMP JUMPDEST DUP1 PUSH4 0x19F41A40 EQ PUSH2 0xA0 JUMPI DUP1 PUSH4 0x24089918 EQ PUSH2 0xBE JUMPI DUP1 PUSH4 0x498EA441 EQ PUSH2 0xDC JUMPI DUP1 PUSH4 0x65372147 EQ PUSH2 0xFA JUMPI DUP1 PUSH4 0x65CA2BE3 EQ PUSH2 0x104 JUMPI JUMPDEST PUSH0 DUP1 REVERT JUMPDEST PUSH2 0xA8 PUSH2 0x19C JUMP JUMPDEST PUSH1 0x40 MLOAD PUSH2 0xB5 SWAP2 SWAP1 PUSH2 0x14E5 JUMP JUMPDEST PUSH1 0x40 MLOAD DUP1 SWAP2 SUB SWAP1 RETURN JUMPDEST PUSH2 0xC6 PUSH2 0x292 JUMP JUMPDEST PUSH1 0x40 MLOAD PUSH2 0xD3 SWAP2 SWAP1 PUSH2 0x16EC JUMP JUMPDEST PUSH1 0x40 MLOAD DUP1 SWAP2 SUB SWAP1 RETURN JUMPDEST PUSH2 0xE4 PUSH2 0x4F6 JUMP JUMPDEST PUSH1 0x40 MLOAD PUSH2 0xF1 SWAP2 SWAP1 PUSH2 0x186E JUMP JUMPDEST PUSH1 0x40 MLOAD DUP1 SWAP2 SUB SWAP1 RETURN JUMPDEST PUSH2 0x102 PUSH2 0x7EA JUMP JUMPDEST STOP JUMPDEST PUSH2 0x11E PUSH1 0x4 DUP1 CALLDATASIZE SUB DUP2 ADD SWAP1 PUSH2 0x119 SWAP2 SWAP1 PUSH2 0x18C0 JUMP JUMPDEST PUSH2 0x98A JUMP JUMPDEST STOP JUMPDEST PUSH2 0x13A PUSH1 0x4 DUP1 CALLDATASIZE SUB DUP2 ADD SWAP1 PUSH2 0x135 SWAP2 SWAP1 PUSH2 0x195F JUMP JUMPDEST PUSH2 0xA41 JUMP JUMPDEST STOP JUMPDEST PUSH2 0x156 PUSH1 0x4 DUP1 CALLDATASIZE SUB DUP2 ADD SWAP1 PUSH2 0x151 SWAP2 SWAP1 PUSH2 0x18C0 JUMP JUMPDEST PUSH2 0xC61 JUMP JUMPDEST STOP JUMPDEST PUSH2 0x160 PUSH2 0xE74 JUMP JUMPDEST STOP JUMPDEST PUSH2 0x17C PUSH1 0x4 DUP1 CALLDATASIZE SUB DUP2 ADD SWAP1 PUSH2 0x177 SWAP2 SWAP1 PUSH2 0x19F0 JUMP JUMPDEST PUSH2 0xF1D JUMP JUMPDEST STOP JUMPDEST PUSH2 0x186 PUSH2 0x126F JUMP JUMPDEST PUSH1 0x40 MLOAD PUSH2 0x193 SWAP2 SWAP1 PUSH2 0x1AC3 JUMP JUMPDEST PUSH1 0x40 MLOAD DUP1 SWAP2 SUB SWAP1 RETURN JUMPDEST PUSH1 0x60 PUSH0 PUSH1 0x4 SLOAD SUB PUSH2 0x1E4 JUMPI PUSH1 0x40 MLOAD DUP1 PUSH1 0x40 ADD PUSH1 0x40 MSTORE DUP1 PUSH1 0x16 DUP2 MSTORE PUSH1 0x20 ADD PUSH32 0x566F74696E6720686173206E6F74207374617274656400000000000000000000 DUP2 MSTORE POP SWAP1 POP PUSH2 0x28F JUMP JUMPDEST PUSH0 PUSH1 0x4 SLOAD EQ ISZERO DUP1 ISZERO PUSH2 0x1F7 JUMPI POP TIMESTAMP PUSH1 0x5 SLOAD GT JUMPDEST DUP1 ISZERO PUSH2 0x214 JUMPI POP PUSH0 ISZERO ISZERO PUSH1 0x8 PUSH0 SWAP1 SLOAD SWAP1 PUSH2 0x100 EXP SWAP1 DIV PUSH1 0xFF AND ISZERO ISZERO EQ JUMPDEST ISZERO PUSH2 0x256 JUMPI PUSH1 0x40 MLOAD DUP1 PUSH1 0x40 ADD PUSH1 0x40 MSTORE DUP1 PUSH1 0xB DUP2 MSTORE PUSH1 0x20 ADD PUSH32 0x496E2070726F6772657373000000000000000000000000000000000000000000 DUP2 MSTORE POP SWAP1 POP PUSH2 0x28F JUMP JUMPDEST PUSH1 0x40 MLOAD DUP1 PUSH1 0x40 ADD PUSH1 0x40 MSTORE DUP1 PUSH1 0x5 DUP2 MSTORE PUSH1 0x20 ADD PUSH32 0x456E646564000000000000000000000000000000000000000000000000000000 DUP2 MSTORE POP SWAP1 POP JUMPDEST SWAP1 JUMP JUMPDEST PUSH1 0x60 PUSH0 PUSH1 0x1 PUSH1 0x2 SLOAD PUSH2 0x2A4 SWAP2 SWAP1 PUSH2 0x1B09 JUMP JUMPDEST PUSH8 0xFFFFFFFFFFFFFFFF DUP2 GT ISZERO PUSH2 0x2BD JUMPI PUSH2 0x2BC PUSH2 0x1B3C JUMP JUMPDEST JUMPDEST PUSH1 0x40 MLOAD SWAP1 DUP1 DUP3 MSTORE DUP1 PUSH1 0x20 MUL PUSH1 0x20 ADD DUP3 ADD PUSH1 0x40 MSTORE DUP1 ISZERO PUSH2 0x2F6 JUMPI DUP2 PUSH1 0x20 ADD JUMPDEST PUSH2 0x2E3 PUSH2 0x13C4 JUMP JUMPDEST DUP2 MSTORE PUSH1 0x20 ADD SWAP1 PUSH1 0x1 SWAP1 SUB SWAP1 DUP2 PUSH2 0x2DB JUMPI SWAP1 POP JUMPDEST POP SWAP1 POP PUSH0 PUSH1 0x1 SWAP1 POP JUMPDEST PUSH1 0x2 SLOAD DUP2 LT ISZERO PUSH2 0x4EE JUMPI PUSH1 0x6 PUSH0 DUP3 DUP2 MSTORE PUSH1 0x20 ADD SWAP1 DUP2 MSTORE PUSH1 0x20 ADD PUSH0 KECCAK256 PUSH1 0x40 MLOAD DUP1 PUSH1 0xC0 ADD PUSH1 0x40 MSTORE SWAP1 DUP2 PUSH0 DUP3 ADD DUP1 SLOAD PUSH2 0x334 SWAP1 PUSH2 0x1B96 JUMP JUMPDEST DUP1 PUSH1 0x1F ADD PUSH1 0x20 DUP1 SWAP2 DIV MUL PUSH1 0x20 ADD PUSH1 0x40 MLOAD SWAP1 DUP2 ADD PUSH1 0x40 MSTORE DUP1 SWAP3 SWAP2 SWAP1 DUP2 DUP2 MSTORE PUSH1 0x20 ADD DUP3 DUP1 SLOAD PUSH2 0x360 SWAP1 PUSH2 0x1B96 JUMP JUMPDEST DUP1 ISZERO PUSH2 0x3AB JUMPI DUP1 PUSH1 0x1F LT PUSH2 0x382 JUMPI PUSH2 0x100 DUP1 DUP4 SLOAD DIV MUL DUP4 MSTORE SWAP2 PUSH1 0x20 ADD SWAP2 PUSH2 0x3AB JUMP JUMPDEST DUP3 ADD SWAP2 SWAP1 PUSH0 MSTORE PUSH1 0x20 PUSH0 KECCAK256 SWAP1 JUMPDEST DUP2 SLOAD DUP2 MSTORE SWAP1 PUSH1 0x1 ADD SWAP1 PUSH1 0x20 ADD DUP1 DUP4 GT PUSH2 0x38E JUMPI DUP3 SWAP1 SUB PUSH1 0x1F AND DUP3 ADD SWAP2 JUMPDEST POP POP POP POP POP DUP2 MSTORE PUSH1 0x20 ADD PUSH1 0x1 DUP3 ADD SLOAD DUP2 MSTORE PUSH1 0x20 ADD PUSH1 0x2 DUP3 ADD SLOAD DUP2 MSTORE PUSH1 0x20 ADD PUSH1 0x3 DUP3 ADD DUP1 SLOAD PUSH2 0x3D8 SWAP1 PUSH2 0x1B96 JUMP JUMPDEST DUP1 PUSH1 0x1F ADD PUSH1 0x20 DUP1 SWAP2 DIV MUL PUSH1 0x20 ADD PUSH1 0x40 MLOAD SWAP1 DUP2 ADD PUSH1 0x40 MSTORE DUP1 SWAP3 SWAP2 SWAP1 DUP2 DUP2 MSTORE PUSH1 0x20 ADD DUP3 DUP1 SLOAD PUSH2 0x404 SWAP1 PUSH2 0x1B96 JUMP JUMPDEST DUP1 ISZERO PUSH2 0x44F JUMPI DUP1 PUSH1 0x1F LT PUSH2 0x426 JUMPI PUSH2 0x100 DUP1 DUP4 SLOAD DIV MUL DUP4 MSTORE SWAP2 PUSH1 0x20 ADD SWAP2 PUSH2 0x44F JUMP JUMPDEST DUP3 ADD SWAP2 SWAP1 PUSH0 MSTORE PUSH1 0x20 PUSH0 KECCAK256 SWAP1 JUMPDEST DUP2 SLOAD DUP2 MSTORE SWAP1 PUSH1 0x1 ADD SWAP1 PUSH1 0x20 ADD DUP1 DUP4 GT PUSH2 0x432 JUMPI DUP3 SWAP1 SUB PUSH1 0x1F AND DUP3 ADD SWAP2 JUMPDEST POP POP POP POP POP DUP2 MSTORE PUSH1 0x20 ADD PUSH1 0x4 DUP3 ADD SLOAD DUP2 MSTORE PUSH1 0x20 ADD PUSH1 0x5 DUP3 ADD PUSH0 SWAP1 SLOAD SWAP1 PUSH2 0x100 EXP SWAP1 DIV PUSH20 0xFFFFFFFFFFFFFFFFFFFFFFFFFFFFFFFFFFFFFFFF AND PUSH20 0xFFFFFFFFFFFFFFFFFFFFFFFFFFFFFFFFFFFFFFFF AND PUSH20 0xFFFFFFFFFFFFFFFFFFFFFFFFFFFFFFFFFFFFFFFF AND DUP2 MSTORE POP POP DUP3 PUSH1 0x1 DUP4 PUSH2 0x4C5 SWAP2 SWAP1 PUSH2 0x1B09 JUMP JUMPDEST DUP2 MLOAD DUP2 LT PUSH2 0x4D6 JUMPI PUSH2 0x4D5 PUSH2 0x1BC6 JUMP JUMPDEST JUMPDEST PUSH1 0x20 MUL PUSH1 0x20 ADD ADD DUP2 SWAP1 MSTORE POP DUP1 DUP1 PUSH1 0x1 ADD SWAP2 POP POP PUSH2 0x2FF JUMP JUMPDEST POP DUP1 SWAP2 POP POP SWAP1 JUMP JUMPDEST PUSH1 0x60 PUSH0 PUSH1 0x1 PUSH1 0x3 SLOAD PUSH2 0x508 SWAP2 SWAP1 PUSH2 0x1B09 JUMP JUMPDEST PUSH8 0xFFFFFFFFFFFFFFFF DUP2 GT ISZERO PUSH2 0x521 JUMPI PUSH2 0x520 PUSH2 0x1B3C JUMP JUMPDEST JUMPDEST PUSH1 0x40 MLOAD SWAP1 DUP1 DUP3 MSTORE DUP1 PUSH1 0x20 MUL PUSH1 0x20 ADD DUP3 ADD PUSH1 0x40 MSTORE DUP1 ISZERO PUSH2 0x55A JUMPI DUP2 PUSH1 0x20 ADD JUMPDEST PUSH2 0x547 PUSH2 0x140C JUMP JUMPDEST DUP2 MSTORE PUSH1 0x20 ADD SWAP1 PUSH1 0x1 SWAP1 SUB SWAP1 DUP2 PUSH2 0x53F JUMPI SWAP1 POP JUMPDEST POP SWAP1 POP PUSH0 PUSH1 0x1 SWAP1 POP JUMPDEST PUSH1 0x3 SLOAD DUP2 LT ISZERO PUSH2 0x7E2 JUMPI PUSH1 0x7 PUSH0 DUP3 DUP2 MSTORE PUSH1 0x20 ADD SWAP1 DUP2 MSTORE PUSH1 0x20 ADD PUSH0 KECCAK256 PUSH1 0x40 MLOAD DUP1 PUSH1 0xE0 ADD PUSH1 0x40 MSTORE SWAP1 DUP2 PUSH0 DUP3 ADD DUP1 SLOAD PUSH2 0x598 SWAP1 PUSH2 0x1B96 JUMP JUMPDEST DUP1 PUSH1 0x1F ADD PUSH1 0x20 DUP1 SWAP2 DIV MUL PUSH1 0x20 ADD PUSH1 0x40 MLOAD SWAP1 DUP2 ADD PUSH1 0x40 MSTORE DUP1 SWAP3 SWAP2 SWAP1 DUP2 DUP2 MSTORE PUSH1 0x20 ADD DUP3 DUP1 SLOAD PUSH2 0x5C4 SWAP1 PUSH2 0x1B96 JUMP JUMPDEST DUP1 ISZERO PUSH2 0x60F JUMPI DUP1 PUSH1 0x1F LT PUSH2 0x5E6 JUMPI PUSH2 0x100 DUP1 DUP4 SLOAD DIV MUL DUP4 MSTORE SWAP2 PUSH1 0x20 ADD SWAP2 PUSH2 0x60F JUMP JUMPDEST DUP3 ADD SWAP2 SWAP1 PUSH0 MSTORE PUSH1 0x20 PUSH0 KECCAK256 SWAP1 JUMPDEST DUP2 SLOAD DUP2 MSTORE SWAP1 PUSH1 0x1 ADD SWAP1 PUSH1 0x20 ADD DUP1 DUP4 GT PUSH2 0x5F2 JUMPI DUP3 SWAP1 SUB PUSH1 0x1F AND DUP3 ADD SWAP2 JUMPDEST POP POP POP POP POP DUP2 MSTORE PUSH1 0x20 ADD PUSH1 0x1 DUP3 ADD DUP1 SLOAD PUSH2 0x628 SWAP1 PUSH2 0x1B96 JUMP JUMPDEST DUP1 PUSH1 0x1F ADD PUSH1 0x20 DUP1 SWAP2 DIV MUL PUSH1 0x20 ADD PUSH1 0x40 MLOAD SWAP1 DUP2 ADD PUSH1 0x40 MSTORE DUP1 SWAP3 SWAP2 SWAP1 DUP2 DUP2 MSTORE PUSH1 0x20 ADD DUP3 DUP1 SLOAD PUSH2 0x654 SWAP1 PUSH2 0x1B96 JUMP JUMPDEST DUP1 ISZERO PUSH2 0x69F JUMPI DUP1 PUSH1 0x1F LT PUSH2 0x676 JUMPI PUSH2 0x100 DUP1 DUP4 SLOAD DIV MUL DUP4 MSTORE SWAP2 PUSH1 0x20 ADD SWAP2 PUSH2 0x69F JUMP JUMPDEST DUP3 ADD SWAP2 SWAP1 PUSH0 MSTORE PUSH1 0x20 PUSH0 KECCAK256 SWAP1 JUMPDEST DUP2 SLOAD DUP2 MSTORE SWAP1 PUSH1 0x1 ADD SWAP1 PUSH1 0x20 ADD DUP1 DUP4 GT PUSH2 0x682 JUMPI DUP3 SWAP1 SUB PUSH1 0x1F AND DUP3 ADD SWAP2 JUMPDEST POP POP POP POP POP DUP2 MSTORE PUSH1 0x20 ADD PUSH1 0x2 DUP3 ADD SLOAD DUP2 MSTORE PUSH1 0x20 ADD PUSH1 0x3 DUP3 ADD DUP1 SLOAD PUSH2 0x6C2 SWAP1 PUSH2 0x1B96 JUMP JUMPDEST DUP1 PUSH1 0x1F ADD PUSH1 0x20 DUP1 SWAP2 DIV MUL PUSH1 0x20 ADD PUSH1 0x40 MLOAD SWAP1 DUP2 ADD PUSH1 0x40 MSTORE DUP1 SWAP3 SWAP2 SWAP1 DUP2 DUP2 MSTORE PUSH1 0x20 ADD DUP3 DUP1 SLOAD PUSH2 0x6EE SWAP1 PUSH2 0x1B96 JUMP JUMPDEST DUP1 ISZERO PUSH2 0x739 JUMPI DUP1 PUSH1 0x1F LT PUSH2 0x710 JUMPI PUSH2 0x100 DUP1 DUP4 SLOAD DIV MUL DUP4 MSTORE SWAP2 PUSH1 0x20 ADD SWAP2 PUSH2 0x739 JUMP JUMPDEST DUP3 ADD SWAP2 SWAP1 PUSH0 MSTORE PUSH1 0x20 PUSH0 KECCAK256 SWAP1 JUMPDEST DUP2 SLOAD DUP2 MSTORE SWAP1 PUSH1 0x1 ADD SWAP1 PUSH1 0x20 ADD DUP1 DUP4 GT PUSH2 0x71C JUMPI DUP3 SWAP1 SUB PUSH1 0x1F AND DUP3 ADD SWAP2 JUMPDEST POP POP POP POP POP DUP2 MSTORE PUSH1 0x20 ADD PUSH1 0x4 DUP3 ADD SLOAD DUP2 MSTORE PUSH1 0x20 ADD PUSH1 0x5 DUP3 ADD PUSH0 SWAP1 SLOAD SWAP1 PUSH2 0x100 EXP SWAP1 DIV PUSH20 0xFFFFFFFFFFFFFFFFFFFFFFFFFFFFFFFFFFFFFFFF AND PUSH20 0xFFFFFFFFFFFFFFFFFFFFFFFFFFFFFFFFFFFFFFFF AND PUSH20 0xFFFFFFFFFFFFFFFFFFFFFFFFFFFFFFFFFFFFFFFF AND DUP2 MSTORE PUSH1 0x20 ADD PUSH1 0x6 DUP3 ADD SLOAD DUP2 MSTORE POP POP DUP3 PUSH1 0x1 DUP4 PUSH2 0x7B9 SWAP2 SWAP1 PUSH2 0x1B09 JUMP JUMPDEST DUP2 MLOAD DUP2 LT PUSH2 0x7CA JUMPI PUSH2 0x7C9 PUSH2 0x1BC6 JUMP JUMPDEST JUMPDEST PUSH1 0x20 MUL PUSH1 0x20 ADD ADD DUP2 SWAP1 MSTORE POP DUP1 DUP1 PUSH1 0x1 ADD SWAP2 POP POP PUSH2 0x563 JUMP JUMPDEST POP DUP1 SWAP2 POP POP SWAP1 JUMP JUMPDEST CALLER PUSH20 0xFFFFFFFFFFFFFFFFFFFFFFFFFFFFFFFFFFFFFFFF AND PUSH0 DUP1 SLOAD SWAP1 PUSH2 0x100 EXP SWAP1 DIV PUSH20 0xFFFFFFFFFFFFFFFFFFFFFFFFFFFFFFFFFFFFFFFF AND PUSH20 0xFFFFFFFFFFFFFFFFFFFFFFFFFFFFFFFFFFFFFFFF AND EQ PUSH2 0x877 JUMPI PUSH1 0x40 MLOAD PUSH32 0x8C379A000000000000000000000000000000000000000000000000000000000 DUP2 MSTORE PUSH1 0x4 ADD PUSH2 0x86E SWAP1 PUSH2 0x1C3D JUMP JUMPDEST PUSH1 0x40 MLOAD DUP1 SWAP2 SUB SWAP1 REVERT JUMPDEST PUSH1 0x1 PUSH1 0x3 SLOAD GT PUSH2 0x8BC JUMPI PUSH1 0x40 MLOAD PUSH32 0x8C379A000000000000000000000000000000000000000000000000000000000 DUP2 MSTORE PUSH1 0x4 ADD PUSH2 0x8B3 SWAP1 PUSH2 0x1CA5 JUMP JUMPDEST PUSH1 0x40 MLOAD DUP1 SWAP2 SUB SWAP1 REVERT JUMPDEST PUSH0 DUP1 DUP1 PUSH1 0x1 SWAP1 POP JUMPDEST PUSH1 0x3 SLOAD DUP2 LT ISZERO PUSH2 0x945 JUMPI DUP3 PUSH1 0x7 PUSH0 DUP4 DUP2 MSTORE PUSH1 0x20 ADD SWAP1 DUP2 MSTORE PUSH1 0x20 ADD PUSH0 KECCAK256 PUSH1 0x6 ADD SLOAD GT ISZERO PUSH2 0x938 JUMPI PUSH1 0x7 PUSH0 DUP3 DUP2 MSTORE PUSH1 0x20 ADD SWAP1 DUP2 MSTORE PUSH1 0x20 ADD PUSH0 KECCAK256 PUSH1 0x6 ADD SLOAD SWAP3 POP PUSH1 0x7 PUSH0 DUP3 DUP2 MSTORE PUSH1 0x20 ADD SWAP1 DUP2 MSTORE PUSH1 0x20 ADD PUSH0 KECCAK256 PUSH1 0x5 ADD PUSH0 SWAP1 SLOAD SWAP1 PUSH2 0x100 EXP SWAP1 DIV PUSH20 0xFFFFFFFFFFFFFFFFFFFFFFFFFFFFFFFFFFFFFFFF AND SWAP2 POP JUMPDEST DUP1 DUP1 PUSH1 0x1 ADD SWAP2 POP POP PUSH2 0x8C4 JUMP JUMPDEST POP DUP1 PUSH1 0x1 PUSH0 PUSH2 0x100 EXP DUP2 SLOAD DUP2 PUSH20 0xFFFFFFFFFFFFFFFFFFFFFFFFFFFFFFFFFFFFFFFF MUL NOT AND SWAP1 DUP4 PUSH20 0xFFFFFFFFFFFFFFFFFFFFFFFFFFFFFFFFFFFFFFFF AND MUL OR SWAP1 SSTORE POP POP POP JUMP JUMPDEST CALLER PUSH20 0xFFFFFFFFFFFFFFFFFFFFFFFFFFFFFFFFFFFFFFFF AND PUSH0 DUP1 SLOAD SWAP1 PUSH2 0x100 EXP SWAP1 DIV PUSH20 0xFFFFFFFFFFFFFFFFFFFFFFFFFFFFFFFFFFFFFFFF AND PUSH20 0xFFFFFFFFFFFFFFFFFFFFFFFFFFFFFFFFFFFFFFFF AND EQ PUSH2 0xA17 JUMPI PUSH1 0x40 MLOAD PUSH32 0x8C379A000000000000000000000000000000000000000000000000000000000 DUP2 MSTORE PUSH1 0x4 ADD PUSH2 0xA0E SWAP1 PUSH2 0x1C3D JUMP JUMPDEST PUSH1 0x40 MLOAD DUP1 SWAP2 SUB SWAP1 REVERT JUMPDEST DUP2 TIMESTAMP PUSH2 0xA23 SWAP2 SWAP1 PUSH2 0x1CC3 JUMP JUMPDEST PUSH1 0x4 DUP2 SWAP1 SSTORE POP DUP1 PUSH1 0x4 SLOAD PUSH2 0xA37 SWAP2 SWAP1 PUSH2 0x1CC3 JUMP JUMPDEST PUSH1 0x5 DUP2 SWAP1 SSTORE POP POP POP JUMP JUMPDEST PUSH1 0x1 ISZERO ISZERO PUSH2 0xA4E CALLER PUSH2 0x1294 JUMP JUMPDEST ISZERO ISZERO EQ PUSH2 0xA90 JUMPI PUSH1 0x40 MLOAD PUSH32 0x8C379A000000000000000000000000000000000000000000000000000000000 DUP2 MSTORE PUSH1 0x4 ADD PUSH2 0xA87 SWAP1 PUSH2 0x1D40 JUMP JUMPDEST PUSH1 0x40 MLOAD DUP1 SWAP2 SUB SWAP1 REVERT JUMPDEST PUSH1 0x12 DUP4 LT ISZERO PUSH2 0xAD4 JUMPI PUSH1 0x40 MLOAD PUSH32 0x8C379A000000000000000000000000000000000000000000000000000000000 DUP2 MSTORE PUSH1 0x4 ADD PUSH2 0xACB SWAP1 PUSH2 0x1DA8 JUMP JUMPDEST PUSH1 0x40 MLOAD DUP1 SWAP2 SUB SWAP1 REVERT JUMPDEST PUSH1 0x40 MLOAD DUP1 PUSH1 0xC0 ADD PUSH1 0x40 MSTORE DUP1 DUP7 DUP7 DUP1 DUP1 PUSH1 0x1F ADD PUSH1 0x20 DUP1 SWAP2 DIV MUL PUSH1 0x20 ADD PUSH1 0x40 MLOAD SWAP1 DUP2 ADD PUSH1 0x40 MSTORE DUP1 SWAP4 SWAP3 SWAP2 SWAP1 DUP2 DUP2 MSTORE PUSH1 0x20 ADD DUP4 DUP4 DUP1 DUP3 DUP5 CALLDATACOPY PUSH0 DUP2 DUP5 ADD MSTORE PUSH1 0x1F NOT PUSH1 0x1F DUP3 ADD AND SWAP1 POP DUP1 DUP4 ADD SWAP3 POP POP POP POP POP POP POP DUP2 MSTORE PUSH1 0x20 ADD DUP5 DUP2 MSTORE PUSH1 0x20 ADD PUSH1 0x2 SLOAD DUP2 MSTORE PUSH1 0x20 ADD DUP4 DUP4 DUP1 DUP1 PUSH1 0x1F ADD PUSH1 0x20 DUP1 SWAP2 DIV MUL PUSH1 0x20 ADD PUSH1 0x40 MLOAD SWAP1 DUP2 ADD PUSH1 0x40 MSTORE DUP1 SWAP4 SWAP3 SWAP2 SWAP1 DUP2 DUP2 MSTORE PUSH1 0x20 ADD DUP4 DUP4 DUP1 DUP3 DUP5 CALLDATACOPY PUSH0 DUP2 DUP5 ADD MSTORE PUSH1 0x1F NOT PUSH1 0x1F DUP3 ADD AND SWAP1 POP DUP1 DUP4 ADD SWAP3 POP POP POP POP POP POP POP DUP2 MSTORE PUSH1 0x20 ADD PUSH0 DUP2 MSTORE PUSH1 0x20 ADD CALLER PUSH20 0xFFFFFFFFFFFFFFFFFFFFFFFFFFFFFFFFFFFFFFFF AND DUP2 MSTORE POP PUSH1 0x6 PUSH0 PUSH1 0x2 SLOAD DUP2 MSTORE PUSH1 0x20 ADD SWAP1 DUP2 MSTORE PUSH1 0x20 ADD PUSH0 KECCAK256 PUSH0 DUP3 ADD MLOAD DUP2 PUSH0 ADD SWAP1 DUP2 PUSH2 0xBC5 SWAP2 SWAP1 PUSH2 0x1F63 JUMP JUMPDEST POP PUSH1 0x20 DUP3 ADD MLOAD DUP2 PUSH1 0x1 ADD SSTORE PUSH1 0x40 DUP3 ADD MLOAD DUP2 PUSH1 0x2 ADD SSTORE PUSH1 0x60 DUP3 ADD MLOAD DUP2 PUSH1 0x3 ADD SWAP1 DUP2 PUSH2 0xBEF SWAP2 SWAP1 PUSH2 0x1F63 JUMP JUMPDEST POP PUSH1 0x80 DUP3 ADD MLOAD DUP2 PUSH1 0x4 ADD SSTORE PUSH1 0xA0 DUP3 ADD MLOAD DUP2 PUSH1 0x5 ADD PUSH0 PUSH2 0x100 EXP DUP2 SLOAD DUP2 PUSH20 0xFFFFFFFFFFFFFFFFFFFFFFFFFFFFFFFFFFFFFFFF MUL NOT AND SWAP1 DUP4 PUSH20 0xFFFFFFFFFFFFFFFFFFFFFFFFFFFFFFFFFFFFFFFF AND MUL OR SWAP1 SSTORE POP SWAP1 POP POP PUSH1 0x2 PUSH0 DUP2 SLOAD DUP1 SWAP3 SWAP2 SWAP1 PUSH2 0xC55 SWAP1 PUSH2 0x2032 JUMP JUMPDEST SWAP2 SWAP1 POP SSTORE POP POP POP POP POP POP JUMP JUMPDEST PUSH0 PUSH1 0x6 PUSH0 DUP5 DUP2 MSTORE PUSH1 0x20 ADD SWAP1 DUP2 MSTORE PUSH1 0x20 ADD PUSH0 KECCAK256 PUSH1 0x4 ADD SLOAD EQ PUSH2 0xCB7 JUMPI PUSH1 0x40 MLOAD PUSH32 0x8C379A000000000000000000000000000000000000000000000000000000000 DUP2 MSTORE PUSH1 0x4 ADD PUSH2 0xCAE SWAP1 PUSH2 0x20C3 JUMP JUMPDEST PUSH1 0x40 MLOAD DUP1 SWAP2 SUB SWAP1 REVERT JUMPDEST CALLER PUSH20 0xFFFFFFFFFFFFFFFFFFFFFFFFFFFFFFFFFFFFFFFF AND PUSH1 0x6 PUSH0 DUP5 DUP2 MSTORE PUSH1 0x20 ADD SWAP1 DUP2 MSTORE PUSH1 0x20 ADD PUSH0 KECCAK256 PUSH1 0x5 ADD PUSH0 SWAP1 SLOAD SWAP1 PUSH2 0x100 EXP SWAP1 DIV PUSH20 0xFFFFFFFFFFFFFFFFFFFFFFFFFFFFFFFFFFFFFFFF AND PUSH20 0xFFFFFFFFFFFFFFFFFFFFFFFFFFFFFFFFFFFFFFFF AND EQ PUSH2 0xD58 JUMPI PUSH1 0x40 MLOAD PUSH32 0x8C379A000000000000000000000000000000000000000000000000000000000 DUP2 MSTORE PUSH1 0x4 ADD PUSH2 0xD4F SWAP1 PUSH2 0x212B JUMP JUMPDEST PUSH1 0x40 MLOAD DUP1 SWAP2 SUB SWAP1 REVERT JUMPDEST PUSH0 PUSH1 0x4 SLOAD SUB PUSH2 0xD9C JUMPI PUSH1 0x40 MLOAD PUSH32 0x8C379A000000000000000000000000000000000000000000000000000000000 DUP2 MSTORE PUSH1 0x4 ADD PUSH2 0xD93 SWAP1 PUSH2 0x2193 JUMP JUMPDEST PUSH1 0x40 MLOAD DUP1 SWAP2 SUB SWAP1 REVERT JUMPDEST PUSH1 0x3 DUP1 SLOAD EQ PUSH2 0xDE0 JUMPI PUSH1 0x40 MLOAD PUSH32 0x8C379A000000000000000000000000000000000000000000000000000000000 DUP2 MSTORE PUSH1 0x4 ADD PUSH2 0xDD7 SWAP1 PUSH2 0x2221 JUMP JUMPDEST PUSH1 0x40 MLOAD DUP1 SWAP2 SUB SWAP1 REVERT JUMPDEST PUSH0 DUP2 GT DUP1 ISZERO PUSH2 0xDEF JUMPI POP PUSH1 0x3 DUP2 LT JUMPDEST PUSH2 0xE2E JUMPI PUSH1 0x40 MLOAD PUSH32 0x8C379A000000000000000000000000000000000000000000000000000000000 DUP2 MSTORE PUSH1 0x4 ADD PUSH2 0xE25 SWAP1 PUSH2 0x2289 JUMP JUMPDEST PUSH1 0x40 MLOAD DUP1 SWAP2 SUB SWAP1 REVERT JUMPDEST DUP1 PUSH1 0x6 PUSH0 DUP5 DUP2 MSTORE PUSH1 0x20 ADD SWAP1 DUP2 MSTORE PUSH1 0x20 ADD PUSH0 KECCAK256 PUSH1 0x4 ADD DUP2 SWAP1 SSTORE POP PUSH1 0x7 PUSH0 DUP3 DUP2 MSTORE PUSH1 0x20 ADD SWAP1 DUP2 MSTORE PUSH1 0x20 ADD PUSH0 KECCAK256 PUSH1 0x6 ADD PUSH0 DUP2 SLOAD DUP1 SWAP3 SWAP2 SWAP1 PUSH2 0xE6B SWAP1 PUSH2 0x2032 JUMP JUMPDEST SWAP2 SWAP1 POP SSTORE POP POP POP JUMP JUMPDEST CALLER PUSH20 0xFFFFFFFFFFFFFFFFFFFFFFFFFFFFFFFFFFFFFFFF AND PUSH0 DUP1 SLOAD SWAP1 PUSH2 0x100 EXP SWAP1 DIV PUSH20 0xFFFFFFFFFFFFFFFFFFFFFFFFFFFFFFFFFFFFFFFF AND PUSH20 0xFFFFFFFFFFFFFFFFFFFFFFFFFFFFFFFFFFFFFFFF AND EQ PUSH2 0xF01 JUMPI PUSH1 0x40 MLOAD PUSH32 0x8C379A000000000000000000000000000000000000000000000000000000000 DUP2 MSTORE PUSH1 0x4 ADD PUSH2 0xEF8 SWAP1 PUSH2 0x1C3D JUMP JUMPDEST PUSH1 0x40 MLOAD DUP1 SWAP2 SUB SWAP1 REVERT JUMPDEST PUSH1 0x1 PUSH1 0x8 PUSH0 PUSH2 0x100 EXP DUP2 SLOAD DUP2 PUSH1 0xFF MUL NOT AND SWAP1 DUP4 ISZERO ISZERO MUL OR SWAP1 SSTORE POP JUMP JUMPDEST PUSH0 DUP1 SLOAD SWAP1 PUSH2 0x100 EXP SWAP1 DIV PUSH20 0xFFFFFFFFFFFFFFFFFFFFFFFFFFFFFFFFFFFFFFFF AND PUSH20 0xFFFFFFFFFFFFFFFFFFFFFFFFFFFFFFFFFFFFFFFF AND CALLER PUSH20 0xFFFFFFFFFFFFFFFFFFFFFFFFFFFFFFFFFFFFFFFF AND SUB PUSH2 0xFAA JUMPI PUSH1 0x40 MLOAD PUSH32 0x8C379A000000000000000000000000000000000000000000000000000000000 DUP2 MSTORE PUSH1 0x4 ADD PUSH2 0xFA1 SWAP1 PUSH2 0x22F1 JUMP JUMPDEST PUSH1 0x40 MLOAD DUP1 SWAP2 SUB SWAP1 REVERT JUMPDEST PUSH1 0x1 ISZERO ISZERO PUSH2 0xFB7 CALLER PUSH2 0x132C JUMP JUMPDEST ISZERO ISZERO EQ PUSH2 0xFF9 JUMPI PUSH1 0x40 MLOAD PUSH32 0x8C379A000000000000000000000000000000000000000000000000000000000 DUP2 MSTORE PUSH1 0x4 ADD PUSH2 0xFF0 SWAP1 PUSH2 0x2359 JUMP JUMPDEST PUSH1 0x40 MLOAD DUP1 SWAP2 SUB SWAP1 REVERT JUMPDEST PUSH1 0x12 DUP4 LT ISZERO PUSH2 0x103D JUMPI PUSH1 0x40 MLOAD PUSH32 0x8C379A000000000000000000000000000000000000000000000000000000000 DUP2 MSTORE PUSH1 0x4 ADD PUSH2 0x1034 SWAP1 PUSH2 0x23C1 JUMP JUMPDEST PUSH1 0x40 MLOAD DUP1 SWAP2 SUB SWAP1 REVERT JUMPDEST PUSH1 0x3 DUP1 SLOAD LT PUSH2 0x1081 JUMPI PUSH1 0x40 MLOAD PUSH32 0x8C379A000000000000000000000000000000000000000000000000000000000 DUP2 MSTORE PUSH1 0x4 ADD PUSH2 0x1078 SWAP1 PUSH2 0x2429 JUMP JUMPDEST PUSH1 0x40 MLOAD DUP1 SWAP2 SUB SWAP1 REVERT JUMPDEST PUSH1 0x40 MLOAD DUP1 PUSH1 0xE0 ADD PUSH1 0x40 MSTORE DUP1 DUP9 DUP9 DUP1 DUP1 PUSH1 0x1F ADD PUSH1 0x20 DUP1 SWAP2 DIV MUL PUSH1 0x20 ADD PUSH1 0x40 MLOAD SWAP1 DUP2 ADD PUSH1 0x40 MSTORE DUP1 SWAP4 SWAP3 SWAP2 SWAP1 DUP2 DUP2 MSTORE PUSH1 0x20 ADD DUP4 DUP4 DUP1 DUP3 DUP5 CALLDATACOPY PUSH0 DUP2 DUP5 ADD MSTORE PUSH1 0x1F NOT PUSH1 0x1F DUP3 ADD AND SWAP1 POP DUP1 DUP4 ADD SWAP3 POP POP POP POP POP POP POP DUP2 MSTORE PUSH1 0x20 ADD DUP7 DUP7 DUP1 DUP1 PUSH1 0x1F ADD PUSH1 0x20 DUP1 SWAP2 DIV MUL PUSH1 0x20 ADD PUSH1 0x40 MLOAD SWAP1 DUP2 ADD PUSH1 0x40 MSTORE DUP1 SWAP4 SWAP3 SWAP2 SWAP1 DUP2 DUP2 MSTORE PUSH1 0x20 ADD DUP4 DUP4 DUP1 DUP3 DUP5 CALLDATACOPY PUSH0 DUP2 DUP5 ADD MSTORE PUSH1 0x1F NOT PUSH1 0x1F DUP3 ADD AND SWAP1 POP DUP1 DUP4 ADD SWAP3 POP POP POP POP POP POP POP DUP2 MSTORE PUSH1 0x20 ADD DUP5 DUP2 MSTORE PUSH1 0x20 ADD DUP4 DUP4 DUP1 DUP1 PUSH1 0x1F ADD PUSH1 0x20 DUP1 SWAP2 DIV MUL PUSH1 0x20 ADD PUSH1 0x40 MLOAD SWAP1 DUP2 ADD PUSH1 0x40 MSTORE DUP1 SWAP4 SWAP3 SWAP2 SWAP1 DUP2 DUP2 MSTORE PUSH1 0x20 ADD DUP4 DUP4 DUP1 DUP3 DUP5 CALLDATACOPY PUSH0 DUP2 DUP5 ADD MSTORE PUSH1 0x1F NOT PUSH1 0x1F DUP3 ADD AND SWAP1 POP DUP1 DUP4 ADD SWAP3 POP POP POP POP POP POP POP DUP2 MSTORE PUSH1 0x20 ADD PUSH1 0x3 SLOAD DUP2 MSTORE PUSH1 0x20 ADD CALLER PUSH20 0xFFFFFFFFFFFFFFFFFFFFFFFFFFFFFFFFFFFFFFFF AND DUP2 MSTORE PUSH1 0x20 ADD PUSH0 DUP2 MSTORE POP PUSH1 0x7 PUSH0 PUSH1 0x3 SLOAD DUP2 MSTORE PUSH1 0x20 ADD SWAP1 DUP2 MSTORE PUSH1 0x20 ADD PUSH0 KECCAK256 PUSH0 DUP3 ADD MLOAD DUP2 PUSH0 ADD SWAP1 DUP2 PUSH2 0x11BB SWAP2 SWAP1 PUSH2 0x1F63 JUMP JUMPDEST POP PUSH1 0x20 DUP3 ADD MLOAD DUP2 PUSH1 0x1 ADD SWAP1 DUP2 PUSH2 0x11D1 SWAP2 SWAP1 PUSH2 0x1F63 JUMP JUMPDEST POP PUSH1 0x40 DUP3 ADD MLOAD DUP2 PUSH1 0x2 ADD SSTORE PUSH1 0x60 DUP3 ADD MLOAD DUP2 PUSH1 0x3 ADD SWAP1 DUP2 PUSH2 0x11F1 SWAP2 SWAP1 PUSH2 0x1F63 JUMP JUMPDEST POP PUSH1 0x80 DUP3 ADD MLOAD DUP2 PUSH1 0x4 ADD SSTORE PUSH1 0xA0 DUP3 ADD MLOAD DUP2 PUSH1 0x5 ADD PUSH0 PUSH2 0x100 EXP DUP2 SLOAD DUP2 PUSH20 0xFFFFFFFFFFFFFFFFFFFFFFFFFFFFFFFFFFFFFFFF MUL NOT AND SWAP1 DUP4 PUSH20 0xFFFFFFFFFFFFFFFFFFFFFFFFFFFFFFFFFFFFFFFF AND MUL OR SWAP1 SSTORE POP PUSH1 0xC0 DUP3 ADD MLOAD DUP2 PUSH1 0x6 ADD SSTORE SWAP1 POP POP PUSH1 0x3 PUSH0 DUP2 SLOAD DUP1 SWAP3 SWAP2 SWAP1 PUSH2 0x1261 SWAP1 PUSH2 0x2032 JUMP JUMPDEST SWAP2 SWAP1 POP SSTORE POP POP POP POP POP POP POP POP JUMP JUMPDEST PUSH1 0x1 PUSH0 SWAP1 SLOAD SWAP1 PUSH2 0x100 EXP SWAP1 DIV PUSH20 0xFFFFFFFFFFFFFFFFFFFFFFFFFFFFFFFFFFFFFFFF AND DUP2 JUMP JUMPDEST PUSH0 DUP1 PUSH1 0x1 SWAP1 POP JUMPDEST PUSH1 0x2 SLOAD DUP2 LT ISZERO PUSH2 0x1321 JUMPI DUP3 PUSH20 0xFFFFFFFFFFFFFFFFFFFFFFFFFFFFFFFFFFFFFFFF AND PUSH1 0x6 PUSH0 DUP4 DUP2 MSTORE PUSH1 0x20 ADD SWAP1 DUP2 MSTORE PUSH1 0x20 ADD PUSH0 KECCAK256 PUSH1 0x5 ADD PUSH0 SWAP1 SLOAD SWAP1 PUSH2 0x100 EXP SWAP1 DIV PUSH20 0xFFFFFFFFFFFFFFFFFFFFFFFFFFFFFFFFFFFFFFFF AND PUSH20 0xFFFFFFFFFFFFFFFFFFFFFFFFFFFFFFFFFFFFFFFF AND SUB PUSH2 0x1314 JUMPI PUSH0 SWAP2 POP POP PUSH2 0x1327 JUMP JUMPDEST DUP1 DUP1 PUSH1 0x1 ADD SWAP2 POP POP PUSH2 0x129B JUMP JUMPDEST POP PUSH1 0x1 SWAP1 POP JUMPDEST SWAP2 SWAP1 POP JUMP JUMPDEST PUSH0 DUP1 PUSH1 0x1 SWAP1 POP JUMPDEST PUSH1 0x3 SLOAD DUP2 LT ISZERO PUSH2 0x13B9 JUMPI DUP3 PUSH20 0xFFFFFFFFFFFFFFFFFFFFFFFFFFFFFFFFFFFFFFFF AND PUSH1 0x7 PUSH0 DUP4 DUP2 MSTORE PUSH1 0x20 ADD SWAP1 DUP2 MSTORE PUSH1 0x20 ADD PUSH0 KECCAK256 PUSH1 0x5 ADD PUSH0 SWAP1 SLOAD SWAP1 PUSH2 0x100 EXP SWAP1 DIV PUSH20 0xFFFFFFFFFFFFFFFFFFFFFFFFFFFFFFFFFFFFFFFF AND PUSH20 0xFFFFFFFFFFFFFFFFFFFFFFFFFFFFFFFFFFFFFFFF AND SUB PUSH2 0x13AC JUMPI PUSH0 SWAP2 POP POP PUSH2 0x13BF JUMP JUMPDEST DUP1 DUP1 PUSH1 0x1 ADD SWAP2 POP POP PUSH2 0x1333 JUMP JUMPDEST POP PUSH1 0x1 SWAP1 POP JUMPDEST SWAP2 SWAP1 POP JUMP JUMPDEST PUSH1 0x40 MLOAD DUP1 PUSH1 0xC0 ADD PUSH1 0x40 MSTORE DUP1 PUSH1 0x60 DUP2 MSTORE PUSH1 0x20 ADD PUSH0 DUP2 MSTORE PUSH1 0x20 ADD PUSH0 DUP2 MSTORE PUSH1 0x20 ADD PUSH1 0x60 DUP2 MSTORE PUSH1 0x20 ADD PUSH0 DUP2 MSTORE PUSH1 0x20 ADD PUSH0 PUSH20 0xFFFFFFFFFFFFFFFFFFFFFFFFFFFFFFFFFFFFFFFF AND DUP2 MSTORE POP SWAP1 JUMP JUMPDEST PUSH1 0x40 MLOAD DUP1 PUSH1 0xE0 ADD PUSH1 0x40 MSTORE DUP1 PUSH1 0x60 DUP2 MSTORE PUSH1 0x20 ADD PUSH1 0x60 DUP2 MSTORE PUSH1 0x20 ADD PUSH0 DUP2 MSTORE PUSH1 0x20 ADD PUSH1 0x60 DUP2 MSTORE PUSH1 0x20 ADD PUSH0 DUP2 MSTORE PUSH1 0x20 ADD PUSH0 PUSH20 0xFFFFFFFFFFFFFFFFFFFFFFFFFFFFFFFFFFFFFFFF AND DUP2 MSTORE PUSH1 0x20 ADD PUSH0 DUP2 MSTORE POP SWAP1 JUMP JUMPDEST PUSH0 DUP2 MLOAD SWAP1 POP SWAP2 SWAP1 POP JUMP JUMPDEST PUSH0 DUP3 DUP3 MSTORE PUSH1 0x20 DUP3 ADD SWAP1 POP SWAP3 SWAP2 POP POP JUMP JUMPDEST PUSH0 JUMPDEST DUP4 DUP2 LT ISZERO PUSH2 0x1492 JUMPI DUP1 DUP3 ADD MLOAD DUP2 DUP5 ADD MSTORE PUSH1 0x20 DUP2 ADD SWAP1 POP PUSH2 0x1477 JUMP JUMPDEST PUSH0 DUP5 DUP5 ADD MSTORE POP POP POP POP JUMP JUMPDEST PUSH0 PUSH1 0x1F NOT PUSH1 0x1F DUP4 ADD AND SWAP1 POP SWAP2 SWAP1 POP JUMP JUMPDEST PUSH0 PUSH2 0x14B7 DUP3 PUSH2 0x145B JUMP JUMPDEST PUSH2 0x14C1 DUP2 DUP6 PUSH2 0x1465 JUMP JUMPDEST SWAP4 POP PUSH2 0x14D1 DUP2 DUP6 PUSH1 0x20 DUP7 ADD PUSH2 0x1475 JUMP JUMPDEST PUSH2 0x14DA DUP2 PUSH2 0x149D JUMP JUMPDEST DUP5 ADD SWAP2 POP POP SWAP3 SWAP2 POP POP JUMP JUMPDEST PUSH0 PUSH1 0x20 DUP3 ADD SWAP1 POP DUP2 DUP2 SUB PUSH0 DUP4 ADD MSTORE PUSH2 0x14FD DUP2 DUP5 PUSH2 0x14AD JUMP JUMPDEST SWAP1 POP SWAP3 SWAP2 POP POP JUMP JUMPDEST PUSH0 DUP2 MLOAD SWAP1 POP SWAP2 SWAP1 POP JUMP JUMPDEST PUSH0 DUP3 DUP3 MSTORE PUSH1 0x20 DUP3 ADD SWAP1 POP SWAP3 SWAP2 POP POP JUMP JUMPDEST PUSH0 DUP2 SWAP1 POP PUSH1 0x20 DUP3 ADD SWAP1 POP SWAP2 SWAP1 POP JUMP JUMPDEST PUSH0 DUP3 DUP3 MSTORE PUSH1 0x20 DUP3 ADD SWAP1 POP SWAP3 SWAP2 POP POP JUMP JUMPDEST PUSH0 PUSH2 0x1548 DUP3 PUSH2 0x145B JUMP JUMPDEST PUSH2 0x1552 DUP2 DUP6 PUSH2 0x152E JUMP JUMPDEST SWAP4 POP PUSH2 0x1562 DUP2 DUP6 PUSH1 0x20 DUP7 ADD PUSH2 0x1475 JUMP JUMPDEST PUSH2 0x156B DUP2 PUSH2 0x149D JUMP JUMPDEST DUP5 ADD SWAP2 POP POP SWAP3 SWAP2 POP POP JUMP JUMPDEST PUSH0 DUP2 SWAP1 POP SWAP2 SWAP1 POP JUMP JUMPDEST PUSH2 0x1588 DUP2 PUSH2 0x1576 JUMP JUMPDEST DUP3 MSTORE POP POP JUMP JUMPDEST PUSH0 PUSH20 0xFFFFFFFFFFFFFFFFFFFFFFFFFFFFFFFFFFFFFFFF DUP3 AND SWAP1 POP SWAP2 SWAP1 POP JUMP JUMPDEST PUSH0 PUSH2 0x15B7 DUP3 PUSH2 0x158E JUMP JUMPDEST SWAP1 POP SWAP2 SWAP1 POP JUMP JUMPDEST PUSH2 0x15C7 DUP2 PUSH2 0x15AD JUMP JUMPDEST DUP3 MSTORE POP POP JUMP JUMPDEST PUSH0 PUSH1 0xC0 DUP4 ADD PUSH0 DUP4 ADD MLOAD DUP5 DUP3 SUB PUSH0 DUP7 ADD MSTORE PUSH2 0x15E7 DUP3 DUP3 PUSH2 0x153E JUMP JUMPDEST SWAP2 POP POP PUSH1 0x20 DUP4 ADD MLOAD PUSH2 0x15FC PUSH1 0x20 DUP7 ADD DUP3 PUSH2 0x157F JUMP JUMPDEST POP PUSH1 0x40 DUP4 ADD MLOAD PUSH2 0x160F PUSH1 0x40 DUP7 ADD DUP3 PUSH2 0x157F JUMP JUMPDEST POP PUSH1 0x60 DUP4 ADD MLOAD DUP5 DUP3 SUB PUSH1 0x60 DUP7 ADD MSTORE PUSH2 0x1627 DUP3 DUP3 PUSH2 0x153E JUMP JUMPDEST SWAP2 POP POP PUSH1 0x80 DUP4 ADD MLOAD PUSH2 0x163C PUSH1 0x80 DUP7 ADD DUP3 PUSH2 0x157F JUMP JUMPDEST POP PUSH1 0xA0 DUP4 ADD MLOAD PUSH2 0x164F PUSH1 0xA0 DUP7 ADD DUP3 PUSH2 0x15BE JUMP JUMPDEST POP DUP1 SWAP2 POP POP SWAP3 SWAP2 POP POP JUMP JUMPDEST PUSH0 PUSH2 0x1665 DUP4 DUP4 PUSH2 0x15CD JUMP JUMPDEST SWAP1 POP SWAP3 SWAP2 POP POP JUMP JUMPDEST PUSH0 PUSH1 0x20 DUP3 ADD SWAP1 POP SWAP2 SWAP1 POP JUMP JUMPDEST PUSH0 PUSH2 0x1683 DUP3 PUSH2 0x1505 JUMP JUMPDEST PUSH2 0x168D DUP2 DUP6 PUSH2 0x150F JUMP JUMPDEST SWAP4 POP DUP4 PUSH1 0x20 DUP3 MUL DUP6 ADD PUSH2 0x169F DUP6 PUSH2 0x151F JUMP JUMPDEST DUP1 PUSH0 JUMPDEST DUP6 DUP2 LT ISZERO PUSH2 0x16DA JUMPI DUP5 DUP5 SUB DUP10 MSTORE DUP2 MLOAD PUSH2 0x16BB DUP6 DUP3 PUSH2 0x165A JUMP JUMPDEST SWAP5 POP PUSH2 0x16C6 DUP4 PUSH2 0x166D JUMP JUMPDEST SWAP3 POP PUSH1 0x20 DUP11 ADD SWAP10 POP POP PUSH1 0x1 DUP2 ADD SWAP1 POP PUSH2 0x16A2 JUMP JUMPDEST POP DUP3 SWAP8 POP DUP8 SWAP6 POP POP POP POP POP POP SWAP3 SWAP2 POP POP JUMP JUMPDEST PUSH0 PUSH1 0x20 DUP3 ADD SWAP1 POP DUP2 DUP2 SUB PUSH0 DUP4 ADD MSTORE PUSH2 0x1704 DUP2 DUP5 PUSH2 0x1679 JUMP JUMPDEST SWAP1 POP SWAP3 SWAP2 POP POP JUMP JUMPDEST PUSH0 DUP2 MLOAD SWAP1 POP SWAP2 SWAP1 POP JUMP JUMPDEST PUSH0 DUP3 DUP3 MSTORE PUSH1 0x20 DUP3 ADD SWAP1 POP SWAP3 SWAP2 POP POP JUMP JUMPDEST PUSH0 DUP2 SWAP1 POP PUSH1 0x20 DUP3 ADD SWAP1 POP SWAP2 SWAP1 POP JUMP JUMPDEST PUSH0 PUSH1 0xE0 DUP4 ADD PUSH0 DUP4 ADD MLOAD DUP5 DUP3 SUB PUSH0 DUP7 ADD MSTORE PUSH2 0x174F DUP3 DUP3 PUSH2 0x153E JUMP JUMPDEST SWAP2 POP POP PUSH1 0x20 DUP4 ADD MLOAD DUP5 DUP3 SUB PUSH1 0x20 DUP7 ADD MSTORE PUSH2 0x1769 DUP3 DUP3 PUSH2 0x153E JUMP JUMPDEST SWAP2 POP POP PUSH1 0x40 DUP4 ADD MLOAD PUSH2 0x177E PUSH1 0x40 DUP7 ADD DUP3 PUSH2 0x157F JUMP JUMPDEST POP PUSH1 0x60 DUP4 ADD MLOAD DUP5 DUP3 SUB PUSH1 0x60 DUP7 ADD MSTORE PUSH2 0x1796 DUP3 DUP3 PUSH2 0x153E JUMP JUMPDEST SWAP2 POP POP PUSH1 0x80 DUP4 ADD MLOAD PUSH2 0x17AB PUSH1 0x80 DUP7 ADD DUP3 PUSH2 0x157F JUMP JUMPDEST POP PUSH1 0xA0 DUP4 ADD MLOAD PUSH2 0x17BE PUSH1 0xA0 DUP7 ADD DUP3 PUSH2 0x15BE JUMP JUMPDEST POP PUSH1 0xC0 DUP4 ADD MLOAD PUSH2 0x17D1 PUSH1 0xC0 DUP7 ADD DUP3 PUSH2 0x157F JUMP JUMPDEST POP DUP1 SWAP2 POP POP SWAP3 SWAP2 POP POP JUMP JUMPDEST PUSH0 PUSH2 0x17E7 DUP4 DUP4 PUSH2 0x1735 JUMP JUMPDEST SWAP1 POP SWAP3 SWAP2 POP POP JUMP JUMPDEST PUSH0 PUSH1 0x20 DUP3 ADD SWAP1 POP SWAP2 SWAP1 POP JUMP JUMPDEST PUSH0 PUSH2 0x1805 DUP3 PUSH2 0x170C JUMP JUMPDEST PUSH2 0x180F DUP2 DUP6 PUSH2 0x1716 JUMP JUMPDEST SWAP4 POP DUP4 PUSH1 0x20 DUP3 MUL DUP6 ADD PUSH2 0x1821 DUP6 PUSH2 0x1726 JUMP JUMPDEST DUP1 PUSH0 JUMPDEST DUP6 DUP2 LT ISZERO PUSH2 0x185C JUMPI DUP5 DUP5 SUB DUP10 MSTORE DUP2 MLOAD PUSH2 0x183D DUP6 DUP3 PUSH2 0x17DC JUMP JUMPDEST SWAP5 POP PUSH2 0x1848 DUP4 PUSH2 0x17EF JUMP JUMPDEST SWAP3 POP PUSH1 0x20 DUP11 ADD SWAP10 POP POP PUSH1 0x1 DUP2 ADD SWAP1 POP PUSH2 0x1824 JUMP JUMPDEST POP DUP3 SWAP8 POP DUP8 SWAP6 POP POP POP POP POP POP SWAP3 SWAP2 POP POP JUMP JUMPDEST PUSH0 PUSH1 0x20 DUP3 ADD SWAP1 POP DUP2 DUP2 SUB PUSH0 DUP4 ADD MSTORE PUSH2 0x1886 DUP2 DUP5 PUSH2 0x17FB JUMP JUMPDEST SWAP1 POP SWAP3 SWAP2 POP POP JUMP JUMPDEST PUSH0 DUP1 REVERT JUMPDEST PUSH0 DUP1 REVERT JUMPDEST PUSH2 0x189F DUP2 PUSH2 0x1576 JUMP JUMPDEST DUP2 EQ PUSH2 0x18A9 JUMPI PUSH0 DUP1 REVERT JUMPDEST POP JUMP JUMPDEST PUSH0 DUP2 CALLDATALOAD SWAP1 POP PUSH2 0x18BA DUP2 PUSH2 0x1896 JUMP JUMPDEST SWAP3 SWAP2 POP POP JUMP JUMPDEST PUSH0 DUP1 PUSH1 0x40 DUP4 DUP6 SUB SLT ISZERO PUSH2 0x18D6 JUMPI PUSH2 0x18D5 PUSH2 0x188E JUMP JUMPDEST JUMPDEST PUSH0 PUSH2 0x18E3 DUP6 DUP3 DUP7 ADD PUSH2 0x18AC JUMP JUMPDEST SWAP3 POP POP PUSH1 0x20 PUSH2 0x18F4 DUP6 DUP3 DUP7 ADD PUSH2 0x18AC JUMP JUMPDEST SWAP2 POP POP SWAP3 POP SWAP3 SWAP1 POP JUMP JUMPDEST PUSH0 DUP1 REVERT JUMPDEST PUSH0 DUP1 REVERT JUMPDEST PUSH0 DUP1 REVERT JUMPDEST PUSH0 DUP1 DUP4 PUSH1 0x1F DUP5 ADD SLT PUSH2 0x191F JUMPI PUSH2 0x191E PUSH2 0x18FE JUMP JUMPDEST JUMPDEST DUP3 CALLDATALOAD SWAP1 POP PUSH8 0xFFFFFFFFFFFFFFFF DUP2 GT ISZERO PUSH2 0x193C JUMPI PUSH2 0x193B PUSH2 0x1902 JUMP JUMPDEST JUMPDEST PUSH1 0x20 DUP4 ADD SWAP2 POP DUP4 PUSH1 0x1 DUP3 MUL DUP4 ADD GT ISZERO PUSH2 0x1958 JUMPI PUSH2 0x1957 PUSH2 0x1906 JUMP JUMPDEST JUMPDEST SWAP3 POP SWAP3 SWAP1 POP JUMP JUMPDEST PUSH0 DUP1 PUSH0 DUP1 PUSH0 PUSH1 0x60 DUP7 DUP9 SUB SLT ISZERO PUSH2 0x1978 JUMPI PUSH2 0x1977 PUSH2 0x188E JUMP JUMPDEST JUMPDEST PUSH0 DUP7 ADD CALLDATALOAD PUSH8 0xFFFFFFFFFFFFFFFF DUP2 GT ISZERO PUSH2 0x1995 JUMPI PUSH2 0x1994 PUSH2 0x1892 JUMP JUMPDEST JUMPDEST PUSH2 0x19A1 DUP9 DUP3 DUP10 ADD PUSH2 0x190A JUMP JUMPDEST SWAP6 POP SWAP6 POP POP PUSH1 0x20 PUSH2 0x19B4 DUP9 DUP3 DUP10 ADD PUSH2 0x18AC JUMP JUMPDEST SWAP4 POP POP PUSH1 0x40 DUP7 ADD CALLDATALOAD PUSH8 0xFFFFFFFFFFFFFFFF DUP2 GT ISZERO PUSH2 0x19D5 JUMPI PUSH2 0x19D4 PUSH2 0x1892 JUMP JUMPDEST JUMPDEST PUSH2 0x19E1 DUP9 DUP3 DUP10 ADD PUSH2 0x190A JUMP JUMPDEST SWAP3 POP SWAP3 POP POP SWAP3 SWAP6 POP SWAP3 SWAP6 SWAP1 SWAP4 POP JUMP JUMPDEST PUSH0 DUP1 PUSH0 DUP1 PUSH0 DUP1 PUSH0 PUSH1 0x80 DUP9 DUP11 SUB SLT ISZERO PUSH2 0x1A0B JUMPI PUSH2 0x1A0A PUSH2 0x188E JUMP JUMPDEST JUMPDEST PUSH0 DUP9 ADD CALLDATALOAD PUSH8 0xFFFFFFFFFFFFFFFF DUP2 GT ISZERO PUSH2 0x1A28 JUMPI PUSH2 0x1A27 PUSH2 0x1892 JUMP JUMPDEST JUMPDEST PUSH2 0x1A34 DUP11 DUP3 DUP12 ADD PUSH2 0x190A JUMP JUMPDEST SWAP8 POP SWAP8 POP POP PUSH1 0x20 DUP9 ADD CALLDATALOAD PUSH8 0xFFFFFFFFFFFFFFFF DUP2 GT ISZERO PUSH2 0x1A57 JUMPI PUSH2 0x1A56 PUSH2 0x1892 JUMP JUMPDEST JUMPDEST PUSH2 0x1A63 DUP11 DUP3 DUP12 ADD PUSH2 0x190A JUMP JUMPDEST SWAP6 POP SWAP6 POP POP PUSH1 0x40 PUSH2 0x1A76 DUP11 DUP3 DUP12 ADD PUSH2 0x18AC JUMP JUMPDEST SWAP4 POP POP PUSH1 0x60 DUP9 ADD CALLDATALOAD PUSH8 0xFFFFFFFFFFFFFFFF DUP2 GT ISZERO PUSH2 0x1A97 JUMPI PUSH2 0x1A96 PUSH2 0x1892 JUMP JUMPDEST JUMPDEST PUSH2 0x1AA3 DUP11 DUP3 DUP12 ADD PUSH2 0x190A JUMP JUMPDEST SWAP3 POP SWAP3 POP POP SWAP3 SWAP6 SWAP9 SWAP2 SWAP5 SWAP8 POP SWAP3 SWAP6 POP JUMP JUMPDEST PUSH2 0x1ABD DUP2 PUSH2 0x15AD JUMP JUMPDEST DUP3 MSTORE POP POP JUMP JUMPDEST PUSH0 PUSH1 0x20 DUP3 ADD SWAP1 POP PUSH2 0x1AD6 PUSH0 DUP4 ADD DUP5 PUSH2 0x1AB4 JUMP JUMPDEST SWAP3 SWAP2 POP POP JUMP JUMPDEST PUSH32 0x4E487B7100000000000000000000000000000000000000000000000000000000 PUSH0 MSTORE PUSH1 0x11 PUSH1 0x4 MSTORE PUSH1 0x24 PUSH0 REVERT JUMPDEST PUSH0 PUSH2 0x1B13 DUP3 PUSH2 0x1576 JUMP JUMPDEST SWAP2 POP PUSH2 0x1B1E DUP4 PUSH2 0x1576 JUMP JUMPDEST SWAP3 POP DUP3 DUP3 SUB SWAP1 POP DUP2 DUP2 GT ISZERO PUSH2 0x1B36 JUMPI PUSH2 0x1B35 PUSH2 0x1ADC JUMP JUMPDEST JUMPDEST SWAP3 SWAP2 POP POP JUMP JUMPDEST PUSH32 0x4E487B7100000000000000000000000000000000000000000000000000000000 PUSH0 MSTORE PUSH1 0x41 PUSH1 0x4 MSTORE PUSH1 0x24 PUSH0 REVERT JUMPDEST PUSH32 0x4E487B7100000000000000000000000000000000000000000000000000000000 PUSH0 MSTORE PUSH1 0x22 PUSH1 0x4 MSTORE PUSH1 0x24 PUSH0 REVERT JUMPDEST PUSH0 PUSH1 0x2 DUP3 DIV SWAP1 POP PUSH1 0x1 DUP3 AND DUP1 PUSH2 0x1BAD JUMPI PUSH1 0x7F DUP3 AND SWAP2 POP JUMPDEST PUSH1 0x20 DUP3 LT DUP2 SUB PUSH2 0x1BC0 JUMPI PUSH2 0x1BBF PUSH2 0x1B69 JUMP JUMPDEST JUMPDEST POP SWAP2 SWAP1 POP JUMP JUMPDEST PUSH32 0x4E487B7100000000000000000000000000000000000000000000000000000000 PUSH0 MSTORE PUSH1 0x32 PUSH1 0x4 MSTORE PUSH1 0x24 PUSH0 REVERT JUMPDEST PUSH32 0x4E6F742066726F6D20656C656374696F6E20636F6D6D697373696F6E00000000 PUSH0 DUP3 ADD MSTORE POP JUMP JUMPDEST PUSH0 PUSH2 0x1C27 PUSH1 0x1C DUP4 PUSH2 0x1465 JUMP JUMPDEST SWAP2 POP PUSH2 0x1C32 DUP3 PUSH2 0x1BF3 JUMP JUMPDEST PUSH1 0x20 DUP3 ADD SWAP1 POP SWAP2 SWAP1 POP JUMP JUMPDEST PUSH0 PUSH1 0x20 DUP3 ADD SWAP1 POP DUP2 DUP2 SUB PUSH0 DUP4 ADD MSTORE PUSH2 0x1C54 DUP2 PUSH2 0x1C1B JUMP JUMPDEST SWAP1 POP SWAP2 SWAP1 POP JUMP JUMPDEST PUSH32 0x4E6F2063616E6469646174657320726567697374657265640000000000000000 PUSH0 DUP3 ADD MSTORE POP JUMP JUMPDEST PUSH0 PUSH2 0x1C8F PUSH1 0x18 DUP4 PUSH2 0x1465 JUMP JUMPDEST SWAP2 POP PUSH2 0x1C9A DUP3 PUSH2 0x1C5B JUMP JUMPDEST PUSH1 0x20 DUP3 ADD SWAP1 POP SWAP2 SWAP1 POP JUMP JUMPDEST PUSH0 PUSH1 0x20 DUP3 ADD SWAP1 POP DUP2 DUP2 SUB PUSH0 DUP4 ADD MSTORE PUSH2 0x1CBC DUP2 PUSH2 0x1C83 JUMP JUMPDEST SWAP1 POP SWAP2 SWAP1 POP JUMP JUMPDEST PUSH0 PUSH2 0x1CCD DUP3 PUSH2 0x1576 JUMP JUMPDEST SWAP2 POP PUSH2 0x1CD8 DUP4 PUSH2 0x1576 JUMP JUMPDEST SWAP3 POP DUP3 DUP3 ADD SWAP1 POP DUP1 DUP3 GT ISZERO PUSH2 0x1CF0 JUMPI PUSH2 0x1CEF PUSH2 0x1ADC JUMP JUMPDEST JUMPDEST SWAP3 SWAP2 POP POP JUMP JUMPDEST PUSH32 0x566F74657220616C726561647920726567697374657265640000000000000000 PUSH0 DUP3 ADD MSTORE POP JUMP JUMPDEST PUSH0 PUSH2 0x1D2A PUSH1 0x18 DUP4 PUSH2 0x1465 JUMP JUMPDEST SWAP2 POP PUSH2 0x1D35 DUP3 PUSH2 0x1CF6 JUMP JUMPDEST PUSH1 0x20 DUP3 ADD SWAP1 POP SWAP2 SWAP1 POP JUMP JUMPDEST PUSH0 PUSH1 0x20 DUP3 ADD SWAP1 POP DUP2 DUP2 SUB PUSH0 DUP4 ADD MSTORE PUSH2 0x1D57 DUP2 PUSH2 0x1D1E JUMP JUMPDEST SWAP1 POP SWAP2 SWAP1 POP JUMP JUMPDEST PUSH32 0x796F7520617265206E6F7420656C696769626C65000000000000000000000000 PUSH0 DUP3 ADD MSTORE POP JUMP JUMPDEST PUSH0 PUSH2 0x1D92 PUSH1 0x14 DUP4 PUSH2 0x1465 JUMP JUMPDEST SWAP2 POP PUSH2 0x1D9D DUP3 PUSH2 0x1D5E JUMP JUMPDEST PUSH1 0x20 DUP3 ADD SWAP1 POP SWAP2 SWAP1 POP JUMP JUMPDEST PUSH0 PUSH1 0x20 DUP3 ADD SWAP1 POP DUP2 DUP2 SUB PUSH0 DUP4 ADD MSTORE PUSH2 0x1DBF DUP2 PUSH2 0x1D86 JUMP JUMPDEST SWAP1 POP SWAP2 SWAP1 POP JUMP JUMPDEST PUSH0 DUP2 SWAP1 POP DUP2 PUSH0 MSTORE PUSH1 0x20 PUSH0 KECCAK256 SWAP1 POP SWAP2 SWAP1 POP JUMP JUMPDEST PUSH0 PUSH1 0x20 PUSH1 0x1F DUP4 ADD DIV SWAP1 POP SWAP2 SWAP1 POP JUMP JUMPDEST PUSH0 DUP3 DUP3 SHL SWAP1 POP SWAP3 SWAP2 POP POP JUMP JUMPDEST PUSH0 PUSH1 0x8 DUP4 MUL PUSH2 0x1E22 PUSH32 0xFFFFFFFFFFFFFFFFFFFFFFFFFFFFFFFFFFFFFFFFFFFFFFFFFFFFFFFFFFFFFFFF DUP3 PUSH2 0x1DE7 JUMP JUMPDEST PUSH2 0x1E2C DUP7 DUP4 PUSH2 0x1DE7 JUMP JUMPDEST SWAP6 POP DUP1 NOT DUP5 AND SWAP4 POP DUP1 DUP7 AND DUP5 OR SWAP3 POP POP POP SWAP4 SWAP3 POP POP POP JUMP JUMPDEST PUSH0 DUP2 SWAP1 POP SWAP2 SWAP1 POP JUMP JUMPDEST PUSH0 PUSH2 0x1E67 PUSH2 0x1E62 PUSH2 0x1E5D DUP5 PUSH2 0x1576 JUMP JUMPDEST PUSH2 0x1E44 JUMP JUMPDEST PUSH2 0x1576 JUMP JUMPDEST SWAP1 POP SWAP2 SWAP1 POP JUMP JUMPDEST PUSH0 DUP2 SWAP1 POP SWAP2 SWAP1 POP JUMP JUMPDEST PUSH2 0x1E80 DUP4 PUSH2 0x1E4D JUMP JUMPDEST PUSH2 0x1E94 PUSH2 0x1E8C DUP3 PUSH2 0x1E6E JUMP JUMPDEST DUP5 DUP5 SLOAD PUSH2 0x1DF3 JUMP JUMPDEST DUP3 SSTORE POP POP POP POP JUMP JUMPDEST PUSH0 SWAP1 JUMP JUMPDEST PUSH2 0x1EA8 PUSH2 0x1E9C JUMP JUMPDEST PUSH2 0x1EB3 DUP2 DUP5 DUP5 PUSH2 0x1E77 JUMP JUMPDEST POP POP POP JUMP JUMPDEST JUMPDEST DUP2 DUP2 LT ISZERO PUSH2 0x1ED6 JUMPI PUSH2 0x1ECB PUSH0 DUP3 PUSH2 0x1EA0 JUMP JUMPDEST PUSH1 0x1 DUP2 ADD SWAP1 POP PUSH2 0x1EB9 JUMP JUMPDEST POP POP JUMP JUMPDEST PUSH1 0x1F DUP3 GT ISZERO PUSH2 0x1F1B JUMPI PUSH2 0x1EEC DUP2 PUSH2 0x1DC6 JUMP JUMPDEST PUSH2 0x1EF5 DUP5 PUSH2 0x1DD8 JUMP JUMPDEST DUP2 ADD PUSH1 0x20 DUP6 LT ISZERO PUSH2 0x1F04 JUMPI DUP2 SWAP1 POP JUMPDEST PUSH2 0x1F18 PUSH2 0x1F10 DUP6 PUSH2 0x1DD8 JUMP JUMPDEST DUP4 ADD DUP3 PUSH2 0x1EB8 JUMP JUMPDEST POP POP JUMPDEST POP POP POP JUMP JUMPDEST PUSH0 DUP3 DUP3 SHR SWAP1 POP SWAP3 SWAP2 POP POP JUMP JUMPDEST PUSH0 PUSH2 0x1F3B PUSH0 NOT DUP5 PUSH1 0x8 MUL PUSH2 0x1F20 JUMP JUMPDEST NOT DUP1 DUP4 AND SWAP2 POP POP SWAP3 SWAP2 POP POP JUMP JUMPDEST PUSH0 PUSH2 0x1F53 DUP4 DUP4 PUSH2 0x1F2C JUMP JUMPDEST SWAP2 POP DUP3 PUSH1 0x2 MUL DUP3 OR SWAP1 POP SWAP3 SWAP2 POP POP JUMP JUMPDEST PUSH2 0x1F6C DUP3 PUSH2 0x145B JUMP JUMPDEST PUSH8 0xFFFFFFFFFFFFFFFF DUP2 GT ISZERO PUSH2 0x1F85 JUMPI PUSH2 0x1F84 PUSH2 0x1B3C JUMP JUMPDEST JUMPDEST PUSH2 0x1F8F DUP3 SLOAD PUSH2 0x1B96 JUMP JUMPDEST PUSH2 0x1F9A DUP3 DUP3 DUP6 PUSH2 0x1EDA JUMP JUMPDEST PUSH0 PUSH1 0x20 SWAP1 POP PUSH1 0x1F DUP4 GT PUSH1 0x1 DUP2 EQ PUSH2 0x1FCB JUMPI PUSH0 DUP5 ISZERO PUSH2 0x1FB9 JUMPI DUP3 DUP8 ADD MLOAD SWAP1 POP JUMPDEST PUSH2 0x1FC3 DUP6 DUP3 PUSH2 0x1F48 JUMP JUMPDEST DUP7 SSTORE POP PUSH2 0x202A JUMP JUMPDEST PUSH1 0x1F NOT DUP5 AND PUSH2 0x1FD9 DUP7 PUSH2 0x1DC6 JUMP JUMPDEST PUSH0 JUMPDEST DUP3 DUP2 LT ISZERO PUSH2 0x2000 JUMPI DUP5 DUP10 ADD MLOAD DUP3 SSTORE PUSH1 0x1 DUP3 ADD SWAP2 POP PUSH1 0x20 DUP6 ADD SWAP5 POP PUSH1 0x20 DUP2 ADD SWAP1 POP PUSH2 0x1FDB JUMP JUMPDEST DUP7 DUP4 LT ISZERO PUSH2 0x201D JUMPI DUP5 DUP10 ADD MLOAD PUSH2 0x2019 PUSH1 0x1F DUP10 AND DUP3 PUSH2 0x1F2C JUMP JUMPDEST DUP4 SSTORE POP JUMPDEST PUSH1 0x1 PUSH1 0x2 DUP9 MUL ADD DUP9 SSTORE POP POP POP JUMPDEST POP POP POP POP POP POP JUMP JUMPDEST PUSH0 PUSH2 0x203C DUP3 PUSH2 0x1576 JUMP JUMPDEST SWAP2 POP PUSH32 0xFFFFFFFFFFFFFFFFFFFFFFFFFFFFFFFFFFFFFFFFFFFFFFFFFFFFFFFFFFFFFFFF DUP3 SUB PUSH2 0x206E JUMPI PUSH2 0x206D PUSH2 0x1ADC JUMP JUMPDEST JUMPDEST PUSH1 0x1 DUP3 ADD SWAP1 POP SWAP2 SWAP1 POP JUMP JUMPDEST PUSH32 0x416C726561647920766F74656400000000000000000000000000000000000000 PUSH0 DUP3 ADD MSTORE POP JUMP JUMPDEST PUSH0 PUSH2 0x20AD PUSH1 0xD DUP4 PUSH2 0x1465 JUMP JUMPDEST SWAP2 POP PUSH2 0x20B8 DUP3 PUSH2 0x2079 JUMP JUMPDEST PUSH1 0x20 DUP3 ADD SWAP1 POP SWAP2 SWAP1 POP JUMP JUMPDEST PUSH0 PUSH1 0x20 DUP3 ADD SWAP1 POP DUP2 DUP2 SUB PUSH0 DUP4 ADD MSTORE PUSH2 0x20DA DUP2 PUSH2 0x20A1 JUMP JUMPDEST SWAP1 POP SWAP2 SWAP1 POP JUMP JUMPDEST PUSH32 0x796F7520617265206E6F74206120766F74657200000000000000000000000000 PUSH0 DUP3 ADD MSTORE POP JUMP JUMPDEST PUSH0 PUSH2 0x2115 PUSH1 0x13 DUP4 PUSH2 0x1465 JUMP JUMPDEST SWAP2 POP PUSH2 0x2120 DUP3 PUSH2 0x20E1 JUMP JUMPDEST PUSH1 0x20 DUP3 ADD SWAP1 POP SWAP2 SWAP1 POP JUMP JUMPDEST PUSH0 PUSH1 0x20 DUP3 ADD SWAP1 POP DUP2 DUP2 SUB PUSH0 DUP4 ADD MSTORE PUSH2 0x2142 DUP2 PUSH2 0x2109 JUMP JUMPDEST SWAP1 POP SWAP2 SWAP1 POP JUMP JUMPDEST PUSH32 0x566F74696E67206E6F7420737461727465640000000000000000000000000000 PUSH0 DUP3 ADD MSTORE POP JUMP JUMPDEST PUSH0 PUSH2 0x217D PUSH1 0x12 DUP4 PUSH2 0x1465 JUMP JUMPDEST SWAP2 POP PUSH2 0x2188 DUP3 PUSH2 0x2149 JUMP JUMPDEST PUSH1 0x20 DUP3 ADD SWAP1 POP SWAP2 SWAP1 POP JUMP JUMPDEST PUSH0 PUSH1 0x20 DUP3 ADD SWAP1 POP DUP2 DUP2 SUB PUSH0 DUP4 ADD MSTORE PUSH2 0x21AA DUP2 PUSH2 0x2171 JUMP JUMPDEST SWAP1 POP SWAP2 SWAP1 POP JUMP JUMPDEST PUSH32 0x43616E64696461746520726567697374726174696F6E206E6F7420646F6E6520 PUSH0 DUP3 ADD MSTORE PUSH32 0x7965740000000000000000000000000000000000000000000000000000000000 PUSH1 0x20 DUP3 ADD MSTORE POP JUMP JUMPDEST PUSH0 PUSH2 0x220B PUSH1 0x23 DUP4 PUSH2 0x1465 JUMP JUMPDEST SWAP2 POP PUSH2 0x2216 DUP3 PUSH2 0x21B1 JUMP JUMPDEST PUSH1 0x40 DUP3 ADD SWAP1 POP SWAP2 SWAP1 POP JUMP JUMPDEST PUSH0 PUSH1 0x20 DUP3 ADD SWAP1 POP DUP2 DUP2 SUB PUSH0 DUP4 ADD MSTORE PUSH2 0x2238 DUP2 PUSH2 0x21FF JUMP JUMPDEST SWAP1 POP SWAP2 SWAP1 POP JUMP JUMPDEST PUSH32 0x696E76616C69642043616E646964617465204964000000000000000000000000 PUSH0 DUP3 ADD MSTORE POP JUMP JUMPDEST PUSH0 PUSH2 0x2273 PUSH1 0x14 DUP4 PUSH2 0x1465 JUMP JUMPDEST SWAP2 POP PUSH2 0x227E DUP3 PUSH2 0x223F JUMP JUMPDEST PUSH1 0x20 DUP3 ADD SWAP1 POP SWAP2 SWAP1 POP JUMP JUMPDEST PUSH0 PUSH1 0x20 DUP3 ADD SWAP1 POP DUP2 DUP2 SUB PUSH0 DUP4 ADD MSTORE PUSH2 0x22A0 DUP2 PUSH2 0x2267 JUMP JUMPDEST SWAP1 POP SWAP2 SWAP1 POP JUMP JUMPDEST PUSH32 0x596F75206172652066726F6D20656C656374696F6E20636F6D6D6973696F6E00 PUSH0 DUP3 ADD MSTORE POP JUMP JUMPDEST PUSH0 PUSH2 0x22DB PUSH1 0x1F DUP4 PUSH2 0x1465 JUMP JUMPDEST SWAP2 POP PUSH2 0x22E6 DUP3 PUSH2 0x22A7 JUMP JUMPDEST PUSH1 0x20 DUP3 ADD SWAP1 POP SWAP2 SWAP1 POP JUMP JUMPDEST PUSH0 PUSH1 0x20 DUP3 ADD SWAP1 POP DUP2 DUP2 SUB PUSH0 DUP4 ADD MSTORE PUSH2 0x2308 DUP2 PUSH2 0x22CF JUMP JUMPDEST SWAP1 POP SWAP2 SWAP1 POP JUMP JUMPDEST PUSH32 0x43616E64696461746520616C7265616479207265676973746572656400000000 PUSH0 DUP3 ADD MSTORE POP JUMP JUMPDEST PUSH0 PUSH2 0x2343 PUSH1 0x1C DUP4 PUSH2 0x1465 JUMP JUMPDEST SWAP2 POP PUSH2 0x234E DUP3 PUSH2 0x230F JUMP JUMPDEST PUSH1 0x20 DUP3 ADD SWAP1 POP SWAP2 SWAP1 POP JUMP JUMPDEST PUSH0 PUSH1 0x20 DUP3 ADD SWAP1 POP DUP2 DUP2 SUB PUSH0 DUP4 ADD MSTORE PUSH2 0x2370 DUP2 PUSH2 0x2337 JUMP JUMPDEST SWAP1 POP SWAP2 SWAP1 POP JUMP JUMPDEST PUSH32 0x596F7520617265206E6F7420656C696769626C65000000000000000000000000 PUSH0 DUP3 ADD MSTORE POP JUMP JUMPDEST PUSH0 PUSH2 0x23AB PUSH1 0x14 DUP4 PUSH2 0x1465 JUMP JUMPDEST SWAP2 POP PUSH2 0x23B6 DUP3 PUSH2 0x2377 JUMP JUMPDEST PUSH1 0x20 DUP3 ADD SWAP1 POP SWAP2 SWAP1 POP JUMP JUMPDEST PUSH0 PUSH1 0x20 DUP3 ADD SWAP1 POP DUP2 DUP2 SUB PUSH0 DUP4 ADD MSTORE PUSH2 0x23D8 DUP2 PUSH2 0x239F JUMP JUMPDEST SWAP1 POP SWAP2 SWAP1 POP JUMP JUMPDEST PUSH32 0x43616E64696461746520526567697374726174696F6E2069732066756C6C0000 PUSH0 DUP3 ADD MSTORE POP JUMP JUMPDEST PUSH0 PUSH2 0x2413 PUSH1 0x1E DUP4 PUSH2 0x1465 JUMP JUMPDEST SWAP2 POP PUSH2 0x241E DUP3 PUSH2 0x23DF JUMP JUMPDEST PUSH1 0x20 DUP3 ADD SWAP1 POP SWAP2 SWAP1 POP JUMP JUMPDEST PUSH0 PUSH1 0x20 DUP3 ADD SWAP1 POP DUP2 DUP2 SUB PUSH0 DUP4 ADD MSTORE PUSH2 0x2440 DUP2 PUSH2 0x2407 JUMP JUMPDEST SWAP1 POP SWAP2 SWAP1 POP JUMP INVALID LOG2 PUSH5 0x6970667358 0x22 SLT KECCAK256 0x5D EXTCODECOPY LOG1 SAR GASPRICE LOG1 0xDC CREATE2 0xE2 0xBB JUMPI 0xC8 ISZERO 0x2F PUSH20 0x64FEB5F29430DAABB2D3ED0EA8A1470E2364736F PUSH13 0x63430008170033000000000000 "
				},
				"gasEstimates": {
					"creation": {
						"codeDepositCost": "1868200",
						"executionCost": "70444",
						"totalCost": "1938644"
					},
					"external": {
						"candidateList()": "infinite",
						"candidateRegister(string,string,uint256,string)": "infinite",
						"emergency()": "26619",
						"result()": "infinite",
						"vote(uint256,uint256)": "infinite",
						"voteTime(uint256,uint256)": "infinite",
						"voterList()": "infinite",
						"voterRegister(string,uint256,string)": "infinite",
						"votingStatus()": "infinite",
						"winner()": "2596"
					},
					"internal": {
						"candidateVerification(address)": "infinite",
						"voterVerification(address)": "infinite"
					}
				},
				"methodIdentifiers": {
					"candidateList()": "498ea441",
					"candidateRegister(string,string,uint256,string)": "cf5ce2e7",
					"emergency()": "caa6fea4",
					"result()": "65372147",
					"vote(uint256,uint256)": "b384abef",
					"voteTime(uint256,uint256)": "65ca2be3",
					"voterList()": "24089918",
					"voterRegister(string,uint256,string)": "93e5fed2",
					"votingStatus()": "19f41a40",
					"winner()": "dfbf53ae"
				}
			},
			"storageLayout": {
				"storage": [
					{
						"astId": 3,
						"contract": "Voting/Vote.sol:Vote",
						"label": "electionComision",
						"offset": 0,
						"slot": "0",
						"type": "t_address"
					},
					{
						"astId": 5,
						"contract": "Voting/Vote.sol:Vote",
						"label": "winner",
						"offset": 0,
						"slot": "1",
						"type": "t_address"
					},
					{
						"astId": 36,
						"contract": "Voting/Vote.sol:Vote",
						"label": "nextVoterId",
						"offset": 0,
						"slot": "2",
						"type": "t_uint256"
					},
					{
						"astId": 39,
						"contract": "Voting/Vote.sol:Vote",
						"label": "nextCandidateId",
						"offset": 0,
						"slot": "3",
						"type": "t_uint256"
					},
					{
						"astId": 41,
						"contract": "Voting/Vote.sol:Vote",
						"label": "startTime",
						"offset": 0,
						"slot": "4",
						"type": "t_uint256"
					},
					{
						"astId": 43,
						"contract": "Voting/Vote.sol:Vote",
						"label": "endTime",
						"offset": 0,
						"slot": "5",
						"type": "t_uint256"
					},
					{
						"astId": 48,
						"contract": "Voting/Vote.sol:Vote",
						"label": "voterDetails",
						"offset": 0,
						"slot": "6",
						"type": "t_mapping(t_uint256,t_struct(Voter)18_storage)"
					},
					{
						"astId": 53,
						"contract": "Voting/Vote.sol:Vote",
						"label": "candidateDetails",
						"offset": 0,
						"slot": "7",
						"type": "t_mapping(t_uint256,t_struct(Candidate)33_storage)"
					},
					{
						"astId": 55,
						"contract": "Voting/Vote.sol:Vote",
						"label": "stopVoting",
						"offset": 0,
						"slot": "8",
						"type": "t_bool"
					}
				],
				"types": {
					"t_address": {
						"encoding": "inplace",
						"label": "address",
						"numberOfBytes": "20"
					},
					"t_bool": {
						"encoding": "inplace",
						"label": "bool",
						"numberOfBytes": "1"
					},
					"t_mapping(t_uint256,t_struct(Candidate)33_storage)": {
						"encoding": "mapping",
						"key": "t_uint256",
						"label": "mapping(uint256 => struct Vote.Candidate)",
						"numberOfBytes": "32",
						"value": "t_struct(Candidate)33_storage"
					},
					"t_mapping(t_uint256,t_struct(Voter)18_storage)": {
						"encoding": "mapping",
						"key": "t_uint256",
						"label": "mapping(uint256 => struct Vote.Voter)",
						"numberOfBytes": "32",
						"value": "t_struct(Voter)18_storage"
					},
					"t_string_storage": {
						"encoding": "bytes",
						"label": "string",
						"numberOfBytes": "32"
					},
					"t_struct(Candidate)33_storage": {
						"encoding": "inplace",
						"label": "struct Vote.Candidate",
						"members": [
							{
								"astId": 20,
								"contract": "Voting/Vote.sol:Vote",
								"label": "name",
								"offset": 0,
								"slot": "0",
								"type": "t_string_storage"
							},
							{
								"astId": 22,
								"contract": "Voting/Vote.sol:Vote",
								"label": "party",
								"offset": 0,
								"slot": "1",
								"type": "t_string_storage"
							},
							{
								"astId": 24,
								"contract": "Voting/Vote.sol:Vote",
								"label": "age",
								"offset": 0,
								"slot": "2",
								"type": "t_uint256"
							},
							{
								"astId": 26,
								"contract": "Voting/Vote.sol:Vote",
								"label": "gender",
								"offset": 0,
								"slot": "3",
								"type": "t_string_storage"
							},
							{
								"astId": 28,
								"contract": "Voting/Vote.sol:Vote",
								"label": "candidateId",
								"offset": 0,
								"slot": "4",
								"type": "t_uint256"
							},
							{
								"astId": 30,
								"contract": "Voting/Vote.sol:Vote",
								"label": "candidateAddress",
								"offset": 0,
								"slot": "5",
								"type": "t_address"
							},
							{
								"astId": 32,
								"contract": "Voting/Vote.sol:Vote",
								"label": "votes",
								"offset": 0,
								"slot": "6",
								"type": "t_uint256"
							}
						],
						"numberOfBytes": "224"
					},
					"t_struct(Voter)18_storage": {
						"encoding": "inplace",
						"label": "struct Vote.Voter",
						"members": [
							{
								"astId": 7,
								"contract": "Voting/Vote.sol:Vote",
								"label": "name",
								"offset": 0,
								"slot": "0",
								"type": "t_string_storage"
							},
							{
								"astId": 9,
								"contract": "Voting/Vote.sol:Vote",
								"label": "age",
								"offset": 0,
								"slot": "1",
								"type": "t_uint256"
							},
							{
								"astId": 11,
								"contract": "Voting/Vote.sol:Vote",
								"label": "voterId",
								"offset": 0,
								"slot": "2",
								"type": "t_uint256"
							},
							{
								"astId": 13,
								"contract": "Voting/Vote.sol:Vote",
								"label": "gender",
								"offset": 0,
								"slot": "3",
								"type": "t_string_storage"
							},
							{
								"astId": 15,
								"contract": "Voting/Vote.sol:Vote",
								"label": "voteCandidateId",
								"offset": 0,
								"slot": "4",
								"type": "t_uint256"
							},
							{
								"astId": 17,
								"contract": "Voting/Vote.sol:Vote",
								"label": "voterAddress",
								"offset": 0,
								"slot": "5",
								"type": "t_address"
							}
						],
						"numberOfBytes": "192"
					},
					"t_uint256": {
						"encoding": "inplace",
						"label": "uint256",
						"numberOfBytes": "32"
					}
				}
			},
			"userdoc": {
				"kind": "user",
				"methods": {},
				"version": 1
			}
		}
	}
}